:020000040800F2
:10000000180800209D010008A5010008A7010008AC
:10001000A9010008AB010008AD01000800000000C4
:10002000000000000000000000000000AF01000818
:10003000B101000800000000B3010008B50100088C
:10004000B7010008B7010008B7010008B7010008B0
:10005000B7010008B7010008690700083108000867
:10006000510800087108000891080008B70100084D
:10007000B7010008B7010008B7010008B701000880
:10008000B7010008B7010008B7010008B701000870
:10009000B7010008B7010008B7010008B10800085F
:1000A000B7010008B7010008B7010008B701000850
:1000B000B7010008B7010008B7010008B701000840
:1000C000B7010008B7010008B7010008B701000830
:1000D000B7010008B7010008B9160008B701000809
:1000E00089070008B7010008B7010008B701000838
:1000F000B7010008B7010008B7010008B701000800
:10010000B7010008B7010008B7010008B7010008EF
:10011000B7010008B7010008B7010008B7010008DF
:10012000B7010008B7010008B7010008B7010008CF
:10013000B7010008B7010008B7010008B7010008BF
:10014000B7010008B9140008B7010008B70100089A
:10015000B7010008B7010008B7010008B70100089F
:10016000B7010008B7010008B7010008B70100088F
:10017000B7010008B7010008B7010008000000003F
:10018000B7010008B7010008DFF80CD000F06AFAE8
:10019000004800479D3500081808002006488047A1
:1001A00006480047FEE7FEE7FEE7FEE7FEE7FEE75C
:1001B000FEE7FEE7FEE7FEE7A51600088901000856
:1001C0002DE9F05F0546002092469B46884606468C
:1001D000814640241BE0284641464746224600F01F
:1001E0006EF853465A46C01A914110D3114618462C
:1001F000224600F055F82D1A67EB01084F462246BB
:100200000120002100F04CF817EB00094E41201EA0
:10021000A4F10104DFDC484631462A46434600F09B
:1002200000B830BCBDE8C09FD2B201E000F8012B9D
:10023000491EFBD270470022F6E710B513460A4666
:1002400004461946FFF7F0FF204610BD421C10F887
:10025000011B0029FBD1801A704730B504460020ED
:10026000034600E05B1C934203D2E05CCD5C401B84
:10027000F8D030BD30B50B460146002020220124C5
:1002800009E021FA02F59D4205D303FA02F5491B64
:1002900004FA02F52844151EA2F10102F1DC30BD7A
:1002A000202A04DB203A00FA02F100207047914036
:1002B000C2F1200320FA03F3194390407047202A2B
:1002C00004DB203A21FA02F00021704721FA02F300
:1002D000D040C2F1200291400843194670472DE9F1
:1002E000FE4F804681EA0300C00F0C46009021F0CB
:1002F000004123F00045B8EB0200A94105D2404679
:10030000214690461C460B46024623F0004010430F
:1003100047D0270DC7F30A00C3F30A510290401AD1
:10032000019040286BDAC3F3130040F4801B00985F
:10033000924620B10023D2EB030A63EB0B0B01982A
:100340005946C0F140025046FFF7AAFF06460D4647
:1003500050465946019A00F097F910EB08006141A8
:10036000002487EA115284EAE7731A4340D0009AC6
:1003700062B3019A012A4FEA075215DC001B61EBB8
:1003800002014FF0004202EA0752CDE90042001C90
:1003900041F5801132462B4600F097F903B000F08A
:1003A00045B840462146F9E7001B61EB0201001CFD
:1003B00041F5801300185B412018A2F5001747EBA8
:1003C000030140EAD570B6196D4111E06D084FEA9E
:1003D000360645EAC0754FEA0752001B61EB020181
:1003E000001C41F5801149084FEA300000195141C5
:1003F00032462B4603B000F01CB800F057B9009805
:10040000012240000023D0EB020263EBE07300986E
:1004100021464FEAE074B8EB000061EB0401E9E724
:1004200083F000435BE781F0004158E730BCBDE852
:10043000C08F30BCBDE8C04FFFF7DFBF2DE9FE4FD6
:1004400081EA030404F0004421F0004100944FF0DD
:10045000000B23F0004350EA01045ED052EA03048B
:100460005BD0C3F30A54C1F30A552C44A4F2F3340D
:100470000194A0FB0254C1F3130141F48011C3F3B2
:10048000130343F4801301FB024400FB034E840A70
:10049000970A44EA815447EA8357A4FB0768029508
:1004A0008D0A05FB07854FEA932C04FB0C542705A6
:1004B000029D4FEA065847EA1637B5EB08056EEB82
:1004C000070C870E920E47EA811742EA8312A7FBB8
:1004D0000201B6EB0B0164EB00042B0D43EA0C3375
:1004E0005E1844EB1C50DA465146E7FB0201C5F3A7
:1004F00013044FEA0B3343EA14534FEA0432019CCE
:1005000043EA0603A4F10C040294009CCDE900B474
:1005100000F0DBF803B000F003B800200146F9E773
:1005200030BCBDE8C08F2DE9F04D81EA030404F032
:10053000004B21F0004514464FF0000A23F0004123
:1005400050EA050220D054EA01021DD0C5F30A5733
:100550000246C5F31303C1F31300C1F30A5640F476
:10056000801543F48013A7EB0608101BD64608F24B
:10057000FD3873EB050002D308F1010801E0921881
:100580005B41B8F1000F03DA00200146BDE8F08DB1
:1005900000204FF48011064684460EE0171B73EBD3
:1005A000050705D3121B63EB050306434CEA010C58
:1005B00049084FEA300092185B4150EA0107EDD13B
:1005C00052EA030012D082EA040083EA05010843DC
:1005D00005D0101BAB4106D20122002306E0002209
:1005E0004FF0004302E06FF0010253101AEB0600D7
:1005F0004CEB085110EB0A0041EB0B01BDE8F04D4C
:1006000000F054B8C1F30A52C1F3130140F2FF33B2
:1006100041F480119A4202DA00200146704740F20C
:1006200033439A42A2F2334202DC5242FFF747BE02
:10063000FFF736BE30B5041E71F1000404DB4FF045
:100640000044404264EB0101141E73F1000405DB19
:100650001C464FF00043524263EB0403994208BF2B
:10066000904230BD064C074D06E0E06840F00103C3
:1006700094E8070098471034AC42F6D3FFF788FDA2
:100680005460000874600008202A06DBCB17203A6B
:1006900041FA02F043EAE07306E041FA02F3D04087
:1006A000C2F12002914008431946704710B5141E4C
:1006B00073F1000408DA401C41F1000192185B411B
:1006C0001A4301D120F0010010BD2DE9F04D9246F2
:1006D0009B4611B1B1FA81F202E0B0FA80F2203209
:1006E0009046FFF7DDFD04460F4640EA0A0041EA66
:1006F0000B0153465A46084313D0114653EA0100F2
:1007000019D0C8F140025046FFF7D9FD05460E4604
:10071000504659464246FFF7C3FD084305D0012025
:1007200004E020463946BDE8F08D0020054346EA46
:10073000E0762C4337430A986305E40AA0EB0800EF
:100740000022FD0A44EA47540A3002D5002001463F
:10075000E9E7010510196941DDE90845001969411A
:10076000BDE8F04DA2E7000080B5012000F060FA7E
:10077000002808BF80BD012000F044F90120BDE839
:10078000804003F003BE000080B54FF4806000F0AD
:100790004FFA38B14FF4806000F034F94FF48060C4
:1007A00003F0F4FD4FF4006000F042FA38B14FF46A
:1007B000006000F027F94FF4006003F0E7FD4FF40C
:1007C000805000F035FA38B14FF4805000F01AF93B
:1007D0004FF4805003F0DAFD4FF4005000F028FA97
:1007E00038B14FF4005000F00DF94FF4005003F011
:1007F000CDFD4FF4804000F01BFA38B14FF480403B
:1008000000F000F94FF4804003F0C0FD4FF40040C9
:1008100000F00EFA002808BF80BD4FF4004000F041
:10082000F1F84FF40040BDE8804003F0AFBD000098
:1008300080B5022000F0FCF9002808BF80BD02202E
:1008400000F0E0F80220BDE8804003F09FBD00000A
:1008500080B5042000F0ECF9002808BF80BD04201A
:1008600000F0D0F80420BDE8804003F08FBD000008
:1008700080B5082000F0DCF9002808BF80BD082002
:1008800000F0C0F80820BDE8804003F07FBD000004
:1008900080B5102000F0CCF9002808BF80BD1020E2
:1008A00000F0B0F81020BDE8804003F06FBD0000FC
:1008B00080B5202000F0BCF928B1202000F0A2F87B
:1008C000202003F063FD402000F0B2F928B1402061
:1008D00000F098F8402003F059FD802000F0A8F9BE
:1008E00028B1802000F08EF8802003F04FFD4FF4F7
:1008F000807000F09DF938B14FF4807000F082F8FC
:100900004FF4807003F042FD4FF4007000F090F956
:10091000002808BF80BD4FF4007000F073F84FF45A
:100920000070BDE8804003F031BD000081B041F2AD
:100930004C01C4F202010A6802430A6009680840D7
:100940000090009801B0704781B041F24C00C4F2B1
:100950000200016841F001010160006800F001003F
:100960000090009801B0704781B041F24C01C4F290
:1009700002010A6802430A60096808400090009872
:1009800001B0704781B041F25800C4F20200016822
:1009900041F400310160006800F4003000900098DC
:1009A00001B0704781B041F25800C4F20200016802
:1009B00041F400410160006800F40040009000989C
:1009C00001B0704781B041F26000C4F202000168DA
:1009D00041F001010160006800F001000090009802
:1009E00001B0704781B041F26000C4F202000168BA
:1009F00041F480510160006800F48050009000983C
:100A000001B0704740F21441C4F201010860704720
:100A100040F20441C4F201010A6822EA00000860C1
:100A20007047000040F22441C4F201010A6822EA42
:100A3000000008607047000040F20C41C4F2010160
:100A40000A6822EA000008607047000040F22C416A
:100A5000C4F201010A6822EA000008607047000041
:100A600040F20041C4F201010A6822EA0000086075
:100A70007047000040F22041C4F201010A6822EAF6
:100A8000000008607047000040F20841C4F2010114
:100A90000A6822EA000008607047000040F228411E
:100AA000C4F201010A6822EA0000086070470000F1
:100AB00040F20441C4F201010A6810430860704723
:100AC00040F22441C4F201010A68104308607047F3
:100AD00040F20C41C4F201010A68104308607047FB
:100AE00040F22C41C4F201010A68104308607047CB
:100AF00040F20041C4F201010A68104308607047E7
:100B000040F22041C4F201010A68104308607047B6
:100B100040F20841C4F201010A68104308607047BE
:100B200040F22841C4F201010A681043086070478E
:100B3000B0B504460068217A61B1C8B1617A022972
:100B400018D0012919D0F9B9FFF762FF2068FFF723
:100B5000CFFF17E0FFF784FF2068FFF759FF6068B9
:100B6000FFF788FF6068FFF75DFF00252846B0BDEE
:100B7000002525E0FFF7BCFF01E0FFF771FF2068CB
:100B8000FFF796FF002500E00125A07A03280AD888
:100B9000DFE800F016020C102068FFF74DFF206818
:100BA000FFF7B6FF0CE045F0020509E02068FFF70B
:100BB0006BFF02E02068FFF7ABFF2068FFF788FFBC
:100BC000606830B3617A022908D0012909D071B96F
:100BD000FFF728FF6068FFF793FF0AE0FFF790FF39
:100BE00001E0FFF747FF6068FFF76AFF01E045F0AB
:100BF0000405A07A03280BD8DFE800F00B020D11E2
:100C00006068FFF723FF6068FFF78AFF2846B0BDE2
:100C100001252846B0BD6068FFF740FF02E060682C
:100C2000FFF77EFF6068FFF75BFF2846B0BD00005E
:100C300040F21441C4F2010109680140081AB0FAF7
:100C400080F040097047000042F20000C4F2020048
:100C5000006800F00700704742F20000C4F2020092
:100C60000168042262F302010160704791FAA1F168
:100C7000B1FA81F1490003228A4000681040C8405F
:100C8000704700002DE9F0410C460546086890FACF
:100C9000A0F1B1FA81F730FA07F130D04FF0010836
:100CA00008FA07F110EA010624D06068013801282B
:100CB00009D8A2682846314600F080F82168E26829
:100CC000284600F063F822692846314600F066F8AD
:100CD0006068022809D1626928463146FF2E02D891
:100CE00000F022F801E000F02FF862682846314653
:100CF00000F03CF82068013730FA07F1D0D100202D
:100D0000BDE8F08100690840401AB0FA80F040095F
:100D10007047000040690840401AB0FA80F040096E
:100D2000704700008162704791FAA1F1B1FA81F138
:100D300089008A400F2303FA01F1036A23EA0101C3
:100D40001143016270470000090A91FAA1F1B1FA5A
:100D500081F189008A400F2303FA01F1436A23EAF3
:100D600001011143416270478161704791FAA1F11D
:100D7000B1FA81F149008A40032303FA01F10368C3
:100D800023EA010111430160704700004A434368B0
:100D900023EA0101114341607047000091FAA1F17B
:100DA000B1FA81F149008A40032303FA01F1C368D3
:100DB00023EA01011143C1607047000091FAA1F1DB
:100DC000B1FA81F149008A40032303FA01F18368F3
:100DD00023EA01011143816070470000AFF30080F6
:100DE00044F6D351C1F26201A0FB01014FF0FF3084
:100DF00000EB91104EF21001CEF20001486000208D
:100E0000886005200860704747F60440C4F200007F
:100E1000016841F0020101607047000047F60040A0
:100E2000C4F200000068C0F34000704747F20000C1
:100E3000C4F200000168012262F34A210160704798
:100E400041F20800C4F20200006800F0F0007047B0
:100E500041F20800C4F20200006800F4E06070474C
:100E600041F20800C4F20200006800F460507047CC
:100E700041F20800C4F20200006800F00C00704764
:100E800041F20800C4F20200006800F00C00704754
:100E900080B5B0F5407F11D0C02823D100F038F8DC
:100EA000A0F540004FEAB01003281BD8DFE800F09F
:100EB00012021C25BDE8804000F042BB00F028F87B
:100EC00000F17D404FEA302003280BD8DFE800F026
:100ED000021C0C1500F034FB00F008FBBDE880405C
:100EE00000F012BB002080BD00F088F800281CBF75
:100EF00042F20040C0F2F40080BD00F099F80028F2
:100F000018BF4FF4004080BDBDE8804000F018BB22
:100F100041F28801C4F202010968014041EA00403F
:100F20007047000080B5302815D00C2823D0032846
:100F300035D100F04FF8A0F5403003282FD8DFE876
:100F400000F00240303900F0FBFA00F0CFFABDE8C3
:100F5000804000F0E7BA00F03DF8A0F540104FEAFD
:100F6000301003281BD8DFE800F012021C25BDE872
:100F7000804000F0E5BA00F02DF8A0F540204FEADF
:100F8000B00003280BD8DFE800F002200C1500F0B9
:100F9000D7FA00F0ABFABDE8804000F0B5BA002007
:100FA00080BD00F02BF800281CBF42F20040C0F2C8
:100FB000F40080BD00F03CF8002818BF4FF400405A
:100FC00080BDBDE8804000F0BBBABDE8804000F0C5
:100FD000B7BA000041F28801C4F202010968014079
:100FE00041EA00407047000041F20000C4F20200F4
:100FF000016841F4807101607047000041F2000017
:10100000C4F202000068C0F38020704741F2000083
:10101000C4F202000068C0F38020704741F204006F
:10102000C4F202000168102262F31C610160704783
:1010300041F29000C4F202000068C0F34000704723
:1010400041F29400C4F20200016841F00101016024
:101050007047000041F29400C4F202000068C0F33F
:101060004000704741F20000C4F20200006800F046
:10107000F000704741F29400C4F20200006800F4EE
:101080007060704741F20000C4F202000068C0F3D3
:10109000C000704741F20C00C4F20200016821F068
:1010A000730141F002010160416848F2FF02CFF68E
:1010B0009F72114041F4001141F44061416070475A
:1010C00041F20000C4F20200016841F08061016059
:1010D0007047000041F21000C4F20200016841F4C0
:1010E000801101607047000041F20000C4F202006C
:1010F0000068C0F3C060704741F20C00C4F2020007
:10110000016848F28C02CFF6FF12114040F602222D
:10111000114301607047000041F20000C4F2020078
:10112000016841F0807101607047000041F20C00DD
:10113000C4F20200016841F0807101607047000054
:1011400041F20C00C4F20200006800F07000704729
:1011500041F20C00C4F20200006800F00300704786
:1011600041F20C00C4F202000068C0F30620704790
:1011700041F20C00C4F20200006800F0C060704749
:1011800041F20000C4F202000068C0F34060704702
:1011900041F20800C4F20200016821F0F001016090
:1011A0007047000041F20800C4F20200016821F417
:1011B000E06101607047000041F20800C4F20200E3
:1011C000016821F4605101607047000041F208009D
:1011D000C4F20200016841F00301016070470000A1
:1011E000416821F00801416070470000016841F04A
:1011F0004001016070470000806800F4C0607047E3
:10120000806800F4C0507047B0B50D46044600F049
:1012100037F800281CBF0120B0BD20684FF6BF7111
:1012200020EA010CD5E90012D5E9033041EA0C01AE
:1012300011431943084369690843AA691043EA69DD
:1012400010432A6A10432060606840F6047290439D
:10125000AA6842EA1141084360600020B0EBD22F37
:1012600002D1204600F01AF8286AB0F5005F1CBFD2
:101270000020B0BD696A204600F00CF80020B0BD27
:101280000068C0F3801070470068C0F3801070479A
:10129000007B704789B2016170470000416841F4EA
:1012A0008051416070470000416841F480514160C5
:1012B00070470000416821F0100141607047000054
:1012C000017370470A0C92FAA2F2B2FA82F29040CD
:1012D000CAB240F2080CC4F2010C5CF8223023EAD6
:1012E000114108434CF822007047000040F2000111
:1012F000C2F2000108607047416821F490414160EA
:10130000816821F02A01816070470000016841F086
:10131000010101607047000050E8001F41F020010A
:1013200040E80012002AF7D17047000070B50E4661
:10133000044600F067F808B1012070BD206846F649
:10134000F311CEF6FF7108407168D6E90323B56941
:1013500008431043184328432060B168204600F03A
:101360008FF87169204600F085F8012044F6FF31BE
:10137000C4F200018C4214DD44F60041C4F20001C5
:101380008C421CD045F20001C4F200018C4218D0FE
:1013900043F60001C4F201018C4218BF70BD032066
:1013A00015E044F20041C4F200018C420ED044F634
:1013B0000001C4F200018C4216D1302007E0C020A9
:1013C00001E04FF44070FFF763FD02E00C20FFF7EF
:1013D000A9FD01460028AFD03368002BACD0B2691C
:1013E000204600F02FF8002070BD0000C069C0F357
:1013F00040107047C069C0F380107047C069C0F3E7
:10140000C0107047006800F001007047006800F0ED
:101410000100704744F20040C4F200000068C0F3CD
:1014200040107047808CC0B270470000018B41F0C3
:101430000801018370470000018B41F01001018316
:1014400070470000B2F5004F0CD15A0802EB410181
:10145000B1FBF3F14FF6F0720A40C1F342011143C0
:10146000C160704701EB5301B1FBF3F189B2C16078
:1014700070470000826822F4407211438160704717
:10148000426822F440521143416070470185704721
:1014900081B04EF21001CEF200010A680092421CA7
:1014A00008BF024600982AB10868C00302EBE07248
:1014B000002AF9D101B0704780B5FFF7AFFC0128D1
:1014C00012D1FFF7A1FC40F2F830C2F200004168EF
:1014D00047F60042C4F20002914218BF80BDC068C6
:1014E00010B1BDE88040004780BD000010B5044643
:1014F000FFF7A6FCC0F3031045F20061C0F600013F
:10150000085C24FA00F010BD10B50446FFF7A0FCFB
:10151000000A45F21061C0F60001085C24FA00F0F0
:1015200010BD000010B50446FFF79AFCC00A45F252
:101530001061C0F60001085C24FA00F010BD000044
:1015400010B5FFF795FC4FEAB001032911D842F21C
:101550000040C0F2F400DFE801F0023C161BFFF788
:1015600091FD0446FFF78EFDB4B1F8B1FFF77AFDA7
:101570001EE0FFF787FD0446FFF784FD8CB1F8B14C
:10158000FFF770FD1EE041F20020C0F27A0010BDAE
:10159000BDE8104000F026B8E0B1FFF763FD000A97
:1015A00007E0D8B1FFF75EFD000A0CE0FFF762FD2F
:1015B000000945F21861C0F6000151F8200010BD85
:1015C000FFF758FD000945F21861C0F6000151F817
:1015D000200010BDFFF74EFD000AEAE7FFF74AFDC5
:1015E000000AF0E710B5FFF7B3FD03280DD002287D
:1015F00010D0012813D1FFF745FD0446FFF742FD47
:10160000BCB100B3FFF72EFD1FE041F20024C0F291
:101610007A042BE042F20044C0F2F40426E0FFF723
:1016200031FD0446FFF72EFD44B1B0B1FFF71AFDBE
:1016300015E070B3FFF716FD000A07E068B3FFF787
:1016400011FD000A0CE0FFF715FD000945F21861D5
:10165000C0F6000151F8204008E0FFF70BFD00093B
:1016600045F21861C0F6000151F82040FFF768FD0F
:10167000012101EB1010B4FBF0F4FFF771FD4443BE
:10168000FFF776FD400E022101EB4000B4FBF0F0C5
:1016900010BDFFF7EFFC000AD8E7FFF7EBFC000AEC
:1016A000DEE700004EF68850CEF20000016841F4FB
:1016B000700101607047000010B544F20044C4F2AC
:1016C00000042046FFF792FE90B1FFF7A3FE78B129
:1016D0002046FFF7A7FE40F20841C2F200014A6827
:1016E000A24218BF10BD896811B1BDE8104008477B
:1016F00010BD00000028B8BF704700F01F01012294
:1017000002FA01F140094EF20012CEF2000242F854
:10171000201070474EF20410CEF20000402101600C
:101720007047000000F1604100F00F024EF61453C4
:10173000CEF200031A44B0F1FF3FC8BF01F5644286
:1017400000201070704700004EF22640CEF20000DC
:10175000002101707047000010B582B001AC214635
:1017600000F006F8204600F001FB02B010BD0000BA
:1017700080B582B001F076FE03281CBF02B080BDA8
:1017800045F61C40C0F6000001F04CF945F6DD308E
:10179000C0F6000001F046F945F6E530C0F600005D
:1017A000009045F62A30C0F6000045F6F931C0F643
:1017B000000107A24FF4B57301F034F945F6174064
:1017C000C0F6000002B0BDE8804001F02BB900BFB8
:1017D000617070735F636F6D6D6F6E5F6C723131CE
:1017E00078785F66657463685F76657273696F6E3B
:1017F000000000002DE9F04381B0032003F0C4F99C
:1018000040F23804C2F2000460630025E563A0469C
:1018100028F8385F052003F0B7F9206244F29D10E4
:10182000C0F60000C4E90A054FF48070264626F889
:10183000240F072003F0A8F9A06040F201292746F1
:1018400027F80C9F102003F09FF9606143F200001D
:10185000C4F201002060254625F8189F606B04F152
:101860004402414602F0E6FC206A04F130023146AF
:1018700002F0E0FCA06804F11002394602F038FDE5
:10188000606904F11C02294602F032FD206B02F06F
:101890008DFC211D204602F043FF204601B0BDE82B
:1018A000F083000040F2D430C2F20000006880797A
:1018B000162808BF704780B540F29030C2F2000091
:1018C0008068002102F04AFDBDE8804070470000BA
:1018D00040F2D430C2F2000000684079162808BFF8
:1018E000704780B540F2A830C2F200008068002145
:1018F00002F034FDBDE880407047000040F2D43073
:10190000C2F2000000688079162808BF704780B5D1
:1019100040F29030C2F200008068012102F01EFD0A
:10192000BDE880407047000040F2D430C2F20000B1
:1019300000684079162808BF704780B540F2A8308B
:10194000C2F200008068012102F008FDBDE880407D
:1019500070470000F0B581B00C4640F28C31C2F205
:1019600000010A78002A00F0B58100220A70694659
:1019700001F022FD45F62445C0F60005284601F099
:1019800051F845F6D636C0F60006304601F04AF862
:101990000099D1A001F046F845F61747C0F60007B8
:1019A000384601F03FF8009820400090284601F0AA
:1019B00039F8304601F036F80099CEA001F032F83F
:1019C000384601F02FF89DF80000400716D545F67F
:1019D0002440C0F6000001F025F845F6D630C0F6E8
:1019E000000001F01FF8CEA001F01CF845F61740EA
:1019F000C0F6000001F016F802F0F0F89DF80000C3
:101A0000C00616D545F62440C0F6000001F00AF8DD
:101A100045F6D630C0F6000001F004F8C3A001F08E
:101A200001F845F61740C0F6000000F0FBFF01F09A
:101A3000B9FF9DF80000400616D545F61C40C0F6DB
:101A4000000000F0EFFF45F6DD30C0F6000000F0CA
:101A5000E9FFBBA000F0E6FF45F61740C0F6000026
:101A600000F0E0FF01F066FF9DF80000800616D54B
:101A700045F62440C0F6000000F0D4FF45F6D6300D
:101A8000C0F6000000F0CEFFB1A000F0CBFF45F69D
:101A90001740C0F6000000F0C5FF02F083F8009880
:101AA00010F0080F53D001061CD4C00135D445F600
:101AB0002440C0F6000000F0B5FF45F6D630C0F671
:101AC000000000F0AFFF45F6AD20C0F6000000F0CA
:101AD000A9FF45F61740C0F6000000F0A3FF01F093
:101AE00083FF34E045F61C40C0F6000000F09AFF8A
:101AF00045F6DD30C0F6000000F094FF45F60D30ED
:101B0000C0F6000000F08EFF45F61740C0F600005A
:101B100000F088FF01F062FF19E045F61C40C0F6B6
:101B2000000000F07FFF45F6DD30C0F6000000F059
:101B300079FF45F61830C0F6000000F073FF45F657
:101B40001740C0F6000000F06DFF01F0D1FE9DF8D7
:101B50000100C00740D045F62444C0F600042046EA
:101B600000F060FF45F6D635C0F60005284600F0C7
:101B700059FF45F68220C0F6000000F053FF45F6FD
:101B80001740C0F6000000F04DFF009E204600F018
:101B900049FF284600F046FF16F4007F0ED145F6B7
:101BA0006420C0F6000000F03DFF45F61740C0F687
:101BB000000000F037FF01F07FFE0DE045F6492000
:101BC000C0F6000000F02EFF45F61740C0F60000FA
:101BD00000F028FF01F054FE9DF80100400719D5E0
:101BE00045F62C40C0F6000000F01CFF45F6CF3053
:101BF000C0F6000000F016FF45F6A930C0F6000060
:101C000000F010FF45F61740C0F6000000F00AFF94
:101C100001F0C2FF9DF80300000719D545F62440E6
:101C2000C0F6000000F0FEFE45F6D630C0F600001B
:101C300000F0F8FE45F6FA20C0F6000000F0F2FED3
:101C400045F61740C0F6000000F0ECFE01F08EFEF5
:101C50009DF80200C00619D545F62440C0F60000E4
:101C600000F0E0FE45F6D630C0F6000000F0DAFEE7
:101C700045F69C20C0F6000000F0D4FE45F6174063
:101C8000C0F6000000F0CEFE02F03AF89DF8020027
:101C9000000719D545F62440C0F6000000F0C2FE4A
:101CA00045F6D630C0F6000000F0BCFE45F68C20AC
:101CB000C0F6000000F0B6FE45F61740C0F6000082
:101CC00000F0B0FE01F01AFE45F6CD30C0F600007F
:101CD00000F0A8FE01B0F0BD496E746572727570B7
:101CE0007420666C616773203D2030782530385849
:101CF0000A000000496E7465727275707420666C1B
:101D0000616773202861667465722066696C74650A
:101D100072696E6729203D203078253038580A00D6
:101D2000547820646F6E650A00000000507265618F
:101D30006D626C652064657465637465640A000097
:101D4000486561646572206572726F720A000000F6
:101D500053796E63776F7264206F72206865616477
:101D600065722076616C69640A000000F0B581B08C
:101D7000044645F62445C0F60005284600F052FE0C
:101D800045F6D637C0F60007384600F04BFE4FA0A8
:101D900000F048FE45F61746C0F60006304600F053
:101DA00041FE284600F03EFE384600F03BFE6188CA
:101DB0004CA000F037FE304600F034FE284600F01C
:101DC00031FE384600F02EFE21784CA000F02AFEAD
:101DD000304600F027FE284600F024FE384600F08A
:101DE00021FE617845F60D10C0F6000000F01AFEE5
:101DF000304600F017FE607801281FD16088B0F5EA
:101E0000427F59D045F62C40C0F6000000F00AFE93
:101E100045F6CF30C0F6000000F004FE618845F6BC
:101E2000ED10C0F600004FF4427200F0FBFD45F6E5
:101E30001740C0F6000000F0F5FD607802281AD1C6
:101E40006088B0F5817F16D045F62C40C0F60000C2
:101E500000F0E8FD45F6CF30C0F6000000F0E2FDEE
:101E60002CA04FF4817100F0DDFD45F61740C0F65F
:101E7000000000F0D7FD607803281DD16088B0F520
:101E8000817F19D045F62C40C0F6000000F0CAFD55
:101E900045F6CF30C0F6000000F0C4FD45F6B110A5
:101EA000C0F600004FF4817100F0BCFD45F617400C
:101EB000C0F6000000F0B6FD45F6CD30C0F60000DB
:101EC00001B0BDE8F04000F0ADBD00BF4C52313173
:101ED000787820696E666F726D6174696F6E3A0A08
:101EE0000000000020202D204669726D7761726528
:101EF000203D203078253034580A000020202D2045
:101F00004861726477617265203D203078253032F7
:101F1000580A00004C523131323020646F65736EC4
:101F2000277420757365206C61746573742066690D
:101F3000726D776172652076657273696F6E207756
:101F400068696368206973203078253032580A0048
:101F500070B582B004464CF68066C1F63456304601
:101F60000D2102F0D1FD0546002800F0D88101F0D6
:101F70003BFF2046022101F055F8032826D145F603
:101F80001C40C0F6000000F04DFD45F6DD30C0F607
:101F9000000000F047FD45F6E530C0F60000009077
:101FA00045F62A30C0F6000045F6F931C0F60001CA
:101FB00045F65342C0F6000240F29D1300F032FD98
:101FC00045F61740C0F6000000F02CFD20463146D3
:101FD00001F03AF8032826D145F61C40C0F600006F
:101FE00000F020FD45F6DD30C0F6000000F01AFDDF
:101FF00045F6E530C0F60000009045F62A30C0F600
:10200000000045F6F931C0F6000145F65342C0F62E
:1020100000024FF4CF7300F005FD45F61740C0F6FF
:10202000000000F0FFFC304602F086FD014620462D
:1020300001F026F8032826D145F61C40C0F6000022
:1020400000F0F0FC45F6DD30C0F6000000F0EAFCE0
:1020500045F6E530C0F60000009045F62A30C0F69F
:10206000000045F6F931C0F6000145F65342C0F6CE
:1020700000024FF4D07300F0D5FC45F61740C0F6CF
:10208000000000F0CFFC691C204600F0AFFF0328E1
:1020900026D145F61C40C0F6000000F0C3FC45F612
:1020A000DD30C0F6000000F0BDFC45F6E530C0F6BE
:1020B0000000009045F62A30C0F6000045F6F931E0
:1020C000C0F6000145F65342C0F6000240F2A113EB
:1020D00000F0A8FC45F61740C0F6000000F0A2FC96
:1020E00095F900102046022201F070F8032826D14D
:1020F00045F61C40C0F6000000F094FC45F6DD30CB
:10210000C0F6000000F08EFC45F6E530C0F6000099
:10211000009045F62A30C0F6000045F6F931C0F6C9
:10212000000145F65342C0F600024FF4D17300F0AF
:1021300079FC45F61740C0F6000000F073FC20461D
:10214000012101F005F8032826D145F61C40C0F610
:10215000000000F067FC45F6DD30C0F6000000F03E
:1021600061FC45F6E530C0F60000009045F62A30E7
:10217000C0F6000045F6F931C0F6000145F65342BD
:10218000C0F6000240F2A31300F04CFC45F61740E5
:10219000C0F6000000F046FC00252046002100F0BB
:1021A000EDFC032826D145F61C40C0F6000000F0E7
:1021B00039FC45F6DD30C0F6000000F033FC45F692
:1021C000E530C0F60000009045F62A30C0F6000069
:1021D00045F6F931C0F6000145F65342C0F600025B
:1021E0004FF4D27300F01EFC45F61740C0F6000015
:1021F00000F018FC01F0BAFE40F20401C2F2000146
:10220000CD70204600F0A2FE032826D145F61C40E2
:10221000C0F6000000F006FC45F6DD30C0F6000018
:1022200000F000FC45F6E530C0F60000009045F6F1
:102230002A30C0F6000045F6F931C0F6000145F637
:102240005342C0F6000240F2AB1300F0EBFB45F640
:102250001740C0F6000000F0E5FB45F2F861C0F65B
:102260000001204600F08EFE032826D145F61C40D2
:10227000C0F6000000F0D6FB45F6DD30C0F60000E9
:1022800000F0D0FB45F6E530C0F60000009045F6C2
:102290002A30C0F6000045F6F931C0F6000145F6D7
:1022A0005342C0F600024FF4D67300F0BBFB45F674
:1022B0001740C0F6000000F0B5FB2046122100F0E8
:1022C00083FE03281CBF02B070BD45F61C40C0F65B
:1022D000000000F0A7FB45F6DD30C0F6000000F07E
:1022E000A1FB45F6E530C0F60000009045F62A3027
:1022F000C0F6000045F6F931C0F6000145F653423C
:10230000C0F6000240F2AD1300F08CFB45F617401A
:10231000C0F6000002B0BDE8704000F083BB45F697
:102320001C40C0F6000000F07DFB45F6DD30C0F635
:10233000000000F077FB45F6B620C0F6000000F084
:1023400071FB45F61740C0F6000000F06BFB00BFC4
:10235000FEE700002DE9F04383B01D4617460E4608
:10236000804602A900F00CFD9DF808302B70BB429E
:1023700018D945F61C40C0F6000000F053FB45F6A6
:10238000DD30C0F6000000F04DFB297845F6CA00AC
:10239000C0F600003A4600F045FB45F61740C0F68F
:1023A00000006CE09DF809204046314600F04EFFE9
:1023B0002A7835A039A100F035FB2878A8B100278C
:1023C00045F6CD39C0F6000938A400BF2FB117F08B
:1023D0000F0002D1484600F025FBF15D204600F0D9
:1023E00021FB013728788742F0D345F6CD30C0F67F
:1023F000000000F017FB45F62445C0F6000528460E
:1024000000F010FB45F6D637C0F60007384600F05E
:1024100009FB28A000F006FB45F61746C0F60006AB
:10242000304600F0FFFA01A9404600F0FDFB2846C7
:1024300000F0F8FA384600F0F5FA9DF9041021A0F2
:1024400000F0F0FA304600F0EDFA284600F0EAFA23
:10245000384600F0E7FA9DF9061021A000F0E2FAF4
:10246000304600F0DFFA284600F0DCFA384600F08B
:10247000D9FA9DF9051023A000F0D4FA304600F0F7
:10248000D1FA03B0BDE8F0832573202D2028256CF8
:1024900075206279746573293A0A00005061636B94
:1024A000657420636F6E74656E7400002025303291
:1024B000580000005061636B65742073746174751B
:1024C000733A0A0020202D20525353492070616333
:1024D0006B6574203D2025692064426D0A00000070
:1024E00020202D205369676E616C20525353492080
:1024F0007061636B6574203D2025692064426D0A1C
:102500000000000020202D20534E52207061636B8C
:102510006574203D2025692064420A0010B582B010
:10252000044600F0BFFF032826D145F61C40C0F644
:10253000000000F077FA45F6DD30C0F6000000F04C
:1025400071FA45F6E530C0F60000009045F62A30F5
:10255000C0F6000045F6F931C0F6000145F63442F8
:10256000C0F6000240F2451300F05CFA45F6174051
:10257000C0F6000000F056FA02F0D2FA01462046FA
:1025800000F0E0FF032826D145F61C40C0F600000D
:1025900000F048FA45F6DD30C0F6000000F042FADF
:1025A00045F6E530C0F60000009045F62A30C0F64A
:1025B000000045F6F931C0F6000145F63442C0F698
:1025C000000240F2491300F02DFA45F61740C0F61C
:1025D000000000F027FA02F0A9FA0146204600F0B8
:1025E00063FF032826D145F61C40C0F6000000F02A
:1025F00019FA45F6DD30C0F6000000F013FA45F692
:10260000E530C0F60000009045F62A30C0F6000024
:1026100045F6F931C0F6000145F63442C0F6000235
:102620004FF4A67300F0FEF945F61740C0F600001F
:1026300000F0F8F902F0A2FA017869B34268417833
:10264000204600F091FF032826D145F61C40C0F635
:10265000000000F0E7F945F6DD30C0F6000000F0BC
:10266000E1F945F6E530C0F60000009045F62A3065
:10267000C0F6000045F6F931C0F6000145F63442D7
:10268000C0F6000240F2511300F0CCF945F61740B5
:10269000C0F6000000F0C6F902F030FA0178427886
:1026A000204600F035FE032826D145F61C40C0F632
:1026B000000000F0B7F945F6DD30C0F6000000F08C
:1026C000B1F945F6E530C0F60000009045F62A3035
:1026D000C0F6000045F6F931C0F6000145F6344277
:1026E000C0F6000240F2551300F09CF945F6174081
:1026F000C0F6000000F096F9204600F01DFE032809
:1027000026D145F61C40C0F6000000F08BF945F6D6
:10271000DD30C0F6000000F085F945F6E530C0F682
:102720000000009045F62A30C0F6000045F6F93169
:10273000C0F6000145F63442C0F6000240F25713DD
:1027400000F070F945F61740C0F6000000F06AF995
:1027500020463F2100F0CAFD032826D145F61C4043
:10276000C0F6000000F05EF945F6DD30C0F600006E
:1027700000F058F945F6E530C0F60000009045F647
:102780002A30C0F6000045F6F931C0F6000145F6E2
:102790003442C0F600024FF4AC7300F043F945F642
:1027A0001740C0F6000000F03DF90DF1060120468B
:1027B00000F01AFE032826D145F61C40C0F60000A2
:1027C00000F030F945F6DD30C0F6000000F02AF9DF
:1027D00045F6E530C0F60000009045F62A30C0F618
:1027E000000045F6F931C0F6000145F63442C0F666
:1027F000000240F25B1300F015F945F61740C0F6F1
:10280000000000F00FF9204600F096FD032826D1C5
:1028100045F61C40C0F6000000F004F945F6DD3036
:10282000C0F6000000F0FEF845F6E530C0F6000006
:10283000009045F62A30C0F6000045F6F931C0F6A2
:10284000000145F63442C0F600024FF4AE7300F0CA
:10285000E9F845F61740C0F6000000F0E3F84CF642
:10286000FC71C0F6FF31204600F074FD032826D12C
:1028700045F61C40C0F6000000F0D4F845F6DD3007
:10288000C0F6000000F0CEF845F6E530C0F60000D6
:10289000009045F62A30C0F6000045F6F931C0F642
:1028A000000145F63442C0F6000240F25D1300F02C
:1028B000B9F845F61740C0F6000000F0B3F802B0D2
:1028C00010BD000080B500F073F801F025FB45F65F
:1028D0002440C0F6000000F0A5F845F6D630C0F65A
:1028E000000000F09FF845F6CD30C0F6000000F083
:1028F00099F845F61740C0F60000BDE8804000F0AA
:1029000091B8000010B502F005F940F2D434C2F2DB
:1029100000042060407916280ED002F035F940F20C
:10292000A831C2F2000101F1080241F8040B4FF492
:1029300000730B8001F0DCFC2068807916280ED033
:1029400002F022F940F29031C2F2000101F10802D6
:1029500041F8040B4FF400730B8001F0C9FC2068B0
:10296000C07916280ED002F00FF940F29C31C2F265
:10297000000101F1080241F8040B4FF400730B80D1
:1029800001F0B6FC20680079162808BF10BD02F0DF
:10299000FBF840F2B431C2F2000101F1080241F843
:1029A000040B4FF400730B8001F0A2FC10BD00007B
:1029B00080B507A000F036F807A000F033F808A0B3
:1029C0000CA100F02FF810A0BDE8804000F02AB85C
:1029D0001B5B303B33326D00494E464F3A200000BE
:1029E00053444B2076657273696F6E3A2025730AE3
:1029F00000000000322E302E312D342D6763393621
:102A000034393636000000001B5B306D00000000DA
:102A100045F2F860C0F6000040F20401C2F2000185
:102A200000F028B983B080B581B00DF10C0C8CE8B2
:102A30000E0003A9009102F0C7F801B0BDE8804084
:102A400003B0704700A0704776322E322E3000005F
:102A500070B514460D46064600F058F8306900215E
:102A600001F07CFC706800212A46234601F0D0FE6C
:102A70003069012101F072FC002070BDF0B581B019
:102A80001D4616460F46044600208DF803008DF8BB
:102A90000200204600F03AF82069002101F05EFCB7
:102AA000606839460022334601F0B2FE20690121F8
:102AB00001F054FC204600F029F82069002101F0C3
:102AC0004DFC60680DF103010DF10202012301F0DC
:102AD0009FFE6068069B00212A4601F099FE20694E
:102AE000012101F03BFC002001B0F0BD10B504460F
:102AF000C069002101F032FC0120FEF7C9FCE06949
:102B0000012101F02BFC002010BD0000B0B582B007
:102B100004460DF1070500BF606C294601F064FB17
:102B20009DF807000128F7D002B0B0BDF0B581B024
:102B30001C4615460E460746FFF7E8FF3869002198
:102B400001F00CFC7868314600222B4601F060FE53
:102B50007868069B2146002201F05AFE386901215F
:102B600001F0FCFB002001B0F0BD00005421C0F2D8
:102B7000F3014FF08042002300F08ABB80B582B0A1
:102B80008DF8071042F20271ADF805100021009196
:102B90000DF1050103220023FFF7C8FF02B080BD3D
:102BA000C00344F6D351C1F26201A0FB01018809C0
:102BB000704700000138C1B2022982BF46F24800C6
:102BC000C0F60000704740B245F25851C0F600010F
:102BD00051F82000704700000138C1B20E298FBFA4
:102BE000002040B201A151F820007047093D0000CB
:102BF000127A000024F4000048E8010090D003009D
:102C000020A1070000000000B12800006151000071
:102C1000C3A200000000000000000000F81803003C
:102C2000F0310600E0630C00B0B582B00C46002520
:102C30008DF80650ADF804500321009145F2FE6175
:102C4000C0F6000101AB0222FFF718FF08B102B085
:102C5000B0BD9DF80410A5EB510121709DF9051040
:102C60000231890861709DF80610A5EB5101A17031
:102C700002B0B0BDB0B50C4600F00CF80546607867
:102C8000FFF7AAFF4FF47A7105FB01010139B1FB8F
:102C9000F0F0B0BD70B50A788B78C9780026072AA5
:102CA0004FF0000E38BF4FF0010E002918BF012170
:102CB000A2EB410C8578C47801790129214608BF2F
:102CC0000231052B13D3072B08BF0133012D2BD164
:102CD00011FB03F4E10002EB4E03023BC3EBC3051F
:102CE000AD00B5EBC40F35DAA1EB43112FE06FF067
:102CF0000704A6EB8206072A38BFA4EB82061C2431
:102D0000012D08BF0824344404EBC1014FEA8C04B0
:102D100000292546C8BF01EB8C05691E91FBF4F123
:102D20000433594308311DE0950005EBCE051C3DE9
:102D300025F00705CE00B5EBC10F03DAB5EBC40FE4
:102D4000C8BFE500711B0029D8BF0021594301EB22
:102D50004C1100E09C4601EB8C0101394FEA8C03D9
:102D600091FBF3F14EF0020301EB430100880844AC
:102D7000012141EA8000911E8840013870BD0000A9
:102D800010B582B00C460021ADF80610022100916A
:102D900045F20071C0F600010DF106030222FFF7B3
:102DA0006DFE08B102B010BD9DF8061021709DF8AF
:102DB0000710617002B010BD0138C1B20E2982BF88
:102DC00046F24800C0F60000704740B245F270512C
:102DD000C0F6000151F8200070470000072882BFAC
:102DE00046F24800C0F60000704740B245F2B051CC
:102DF000C0F6000151F820007047000006A146F21D
:102E00004802C0F60002012808BF0A4609A10028AE
:102E100018BF1146084670474C52313158585F521E
:102E20004144494F5F4C4F52415F4352435F4F4EC5
:102E3000000000004C52313158585F524144494F14
:102E40005F4C4F52415F4352435F4F464600000084
:102E500006A146F24802C0F60002012808BF0A4651
:102E60000AA1002818BF1146084670474C5231315C
:102E700058585F524144494F5F4C4F52415F49514E
:102E80005F494E5645525445440000004C52313182
:102E900058585F524144494F5F4C4F52415F49512E
:102EA0005F5354414E4441524400000006A146F293
:102EB0004802C0F60002012808BF0A460AA10028FD
:102EC00018BF1146084670474C52313158585F526E
:102ED0004144494F5F4C4F52415F504B545F494D05
:102EE000504C4943495400004C52313158585F52BC
:102EF0004144494F5F4C4F52415F504B545F4558DE
:102F0000504C4943495400000538C1B2072982BFDB
:102F100046F24800C0F60000704740B245F2D0517A
:102F2000C0F6000151F8200070470000032882BF5E
:102F300046F24800C0F60000704740B245F2F0513A
:102F4000C0F6000151F820007047000080B584B041
:102F500040F60272ADF80A200A788DF80C204A7803
:102F60008DF80D208A788DF80E20C9788DF80F1015
:102F7000002100910DF10A0106220023FFF7D6FD82
:102F800004B080BD80B584B041F20202ADF80820E3
:102F90000A888DF80B20120A8DF80A208A788DF89D
:102FA0000C20CA788DF80D200A798DF80E20497909
:102FB0008DF80F100021009102A908220023FFF7CD
:102FC000B5FD04B080BD000080B582B08DF807105B
:102FD00042F60231ADF80510002100910DF1050116
:102FE00003220023FFF7A2FD02B080BD80B584B0AC
:102FF00041F20252ADF80A200A788DF80C204A7886
:103000008DF80D208A788DF80E20C9788DF80F1074
:10301000002100910DF10A0106220023FFF786FD31
:1030200004B080BD80B582B08DF8071040F6026113
:10303000ADF80510002100910DF1050103220023D8
:10304000FFF774FD02B080BD80B584B040F6023257
:10305000ADF80A208DF80F100A0E8DF80C200A0C1E
:103060008DF80D20090A8DF80E10002100910DF148
:103070000A0106220023FFF759FD04B080BD0000BD
:1030800080B586B042F60212ADF80B200A784B7874
:1030900002F00F0242EA03128DF80D208A78CB78F5
:1030A00002F00F0242EA03128DF80E200A794B79E2
:1030B00002F00F0242EA03128DF80F208A79CB79D1
:1030C00002F00F0242EA03128DF810200A7A4B7ABE
:1030D00002F00F0242EA03128DF811208A7ACB7AAD
:1030E00002F00F0242EA03128DF812200A7B4B7B9A
:1030F00002F00F0242EA03128DF813208A7BCB7B89
:1031000002F00F0242EA03128DF814200A7C02F04A
:103110000F028DF81520498A8DF81710090A8DF8CD
:103120001610002100910DF10B010D220023FFF775
:10313000FDFC06B080BD000010B504460846FFF750
:103140002FFD01462046BDE8104000F013B80000F6
:1031500080B582B08DF8071041F20231ADF805104C
:10316000002100910DF1050103220023FFF7DEFC91
:1031700002B080BD10B584B0044640F60210ADF830
:103180000B008DF80F10080C8DF80D00080A8DF853
:103190000E002046FFF7EAFC08B104B010BD002085
:1031A00000900DF10B01204605220023FFF7BEFC25
:1031B00004B010BD10B504460846FFF7F1FC014607
:1031C0002046BDE8104000F015B8000080B582B080
:1031D0008DF8061041F20211ADF804108DF80720A9
:1031E0000021009101A904220023FFF79FFC02B0F7
:1031F00080BD000010B584B0044640F60220ADF852
:103200000B008DF80F10080C8DF80D00080A8DF8D2
:103210000E002046FFF7AAFC08B104B010BD002044
:1032200000900DF10B01204605220023FFF77EFCE4
:1032300004B010BD41704271090A0170110E817015
:10324000110CC170110A01717047000080B582B085
:103250008C468DF8062040F60121ADF804108DF85B
:103260000730009301A904226346FFF707FC02B070
:1032700080BD000080B582B00B46009245F202711D
:10328000C0F600010222FFF751FC02B080BD000031
:10329000F0B585B01C4615460A4606460DF10607F0
:1032A00038464FF48671FFF7C5FF280C8DF80D00E6
:1032B000280E8DF80C00280A8DF80E008DF80F509E
:1032C000200E8DF81000200C8DF81100200A8DF8CA
:1032D00012008DF8134000200090304639460E222F
:1032E0000023FFF723FC05B0F0BD000080B582B0DD
:1032F0008DF8071040F60171ADF80510002100911E
:103300000DF1050103220023FFF710FC02B080BD80
:1033100080B582B041F20163ADF8053041EA820127
:103320008DF80710002100910DF105010322002303
:10333000FFF7FCFB02B080BD80B582B00021009198
:1033400045F20471C0F6000102220023FFF7EEFBF4
:1033500002B080BD80B584B041F20142ADF80A20D0
:103360008DF80F100A0E8DF80C200A0C8DF80D2028
:10337000090A8DF80E10002100910DF10A010622B4
:103380000023FFF7D3FB04B080BD0000002908BF75
:10339000704742080A7000F0010048707047000052
:1033A000002908BF7047C0F342024A7000F00102D2
:1033B0008A70000908707047B0B582B00C460546A7
:1033C0000020019001A9284600F028F820B90199B1
:1033D00011B12846FFF7BEFF1CB1002804BF0199B8
:1033E000216002B0B0BD000010B582B00C460021D3
:1033F00001910221009145F20671C0F6000101AB76
:103400000222FFF73BFB08B102B010BDBDF804106B
:1034100009BA090C218002B010BD00000B46002142
:10342000002200F001B80000F0B583B01C4616463B
:103430000F460DF106010622FFF70AFB054670B99B
:103440009DF806003946FFF7A1FF9DF807003146B9
:10345000FFF7A6FF002C1EBF029800BA2060284686
:1034600003B0F0BD10B582B00C46002101910421DB
:10347000009145F20871C0F6000101AB0222FFF78E
:10348000FDFA08B102B010BD9DF8041021709DF83E
:1034900005106170BDF8061009BA090C618002B010
:1034A00010BD0000FFF722BB80B584B041F20122BD
:1034B000ADF806200A788DF808204A788DF80920A2
:1034C0008A788DF80A20CA788DF80B200A798DF851
:1034D0000C204A798DF80D208A798DF80E20C97953
:1034E0008DF80F10002100910DF106010A22002332
:1034F000FFF71CFB04B080BD80B584B041F20133FE
:10350000ADF806308DF80B108DF80F200B0E8DF8EE
:1035100008300B0C8DF80930090A8DF80A10110ECD
:103520008DF80C10110C8DF80D10110A8DF80E107D
:10353000002100910DF106010A220023FFF7F6FA9F
:1035400004B080BD80B582B08DF8071041F2010152
:10355000ADF80510002100910DF1050103220023B3
:10356000FFF7E4FA02B080BD80B584B08DF80C108E
:1035700041F20171ADF80A108DF80F20110C8DF891
:103580000D10110A8DF80E10002100910DF10A01A5
:1035900006220023FFF7CAFA04B080BDF0B581B05F
:1035A00001F078F8FFF7AEF901F0F6FA45F624409D
:1035B000C0F60000FFF736FA45F6D630C0F6000038
:1035C000FFF730FA40F20800C2F20000016889A05B
:1035D000FFF728FA45F61740C0F60000FFF722FA79
:1035E000FFF770F9FEF706F940F28005C2F2000518
:1035F0002860FEF793FF2868FEF7AEF82868FEF70C
:10360000A7FC286840F2DC44C0F2001421460022E6
:10361000FFF772FF032825D145F61C40C0F60000D5
:10362000FFF700FA45F6DD30C0F60000FFF7FAF9C3
:1036300045F6E530C0F60000009045F62A30C0F6A9
:10364000000045F6B841C0F6000145F6D142C0F68B
:1036500000028B23FFF7E6F945F61740C0F600009D
:10366000FFF7E0F928684CF6FC71C0F6FF31FFF770
:1036700071FE032825D145F61C40C0F60000FFF777
:10368000D1F945F6DD30C0F60000FFF7CBF945F67D
:10369000E530C0F60000009045F62A30C0F6000084
:1036A00045F6B841C0F6000145F6D142C0F6000229
:1036B0008C23FFF7B7F945F61740C0F60000FFF777
:1036C000B1F9012040F23006C2F200063054013058
:1036D0000728FBD1FFF79CF940F20C07C2F2000764
:1036E000396808443860FEF709F939682868FFF737
:1036F00023FD032825D145F61C40C0F60000FFF746
:1037000091F945F6DD30C0F60000FFF78BF945F67C
:10371000E530C0F60000009045F62A30C0F6000003
:1037200045F6B841C0F6000145F6D142C0F60002A8
:103730009623FFF777F945F61740C0F60000FFF72C
:1037400071F9B6F8050040F2CA31C2F20001888072
:10375000D6F80100086040F2C836C2F20006308890
:10376000132806D828682146FEF7F4F83088142874
:10377000F8D3142806D040F2C230C2F2000001880B
:103780000139018040F2C234C2F20004208800EB0B
:103790008000404200F1640145F6AD40C0F60000F3
:1037A000FFF740F931881DA0FFF73CF9218845F665
:1037B0007140C0F60000FFF735F940F2C630C2F2A2
:1037C0000000018845F68E40C0F60000FFF72AF998
:1037D00040F2C430C2F20000018816A0FFF722F9BF
:1037E00040F2C030C2F2000001881BA0FFF71AF9B6
:1037F000FEE700BF3D3D3D3D3D204C5231317878E4
:1038000020504552206578616D706C65202D202513
:1038100073203D3D3D3D3D0A0A00000046696E6152
:103820006C2050455220696E6465783A20256420EA
:103830000A000000435243204572726F7220726585
:1038400063657074696F6E20616D6F756E743A2078
:103850002564200A0000000046534B204C656E672B
:103860007468204572726F72207265636570746946
:103870006F6E20616D6F756E743A202564200A00AA
:1038800080B545F62440C0F60000FFF7CBF845F6BA
:10389000D630C0F60000FFF7C5F845F63120C0F677
:1038A0000000FFF7BFF845F61740C0F60000BDE87E
:1038B0008040FFF7B7B8000080B545F62440C0F659
:1038C0000000FFF7AFF845F6D630C0F60000FFF76E
:1038D000A9F845F63120C0F60000FFF7A3F845F639
:1038E0001740C0F60000BDE88040FFF79BB800001D
:1038F00040F2C030C2F2000000F01EBA80B545F6BA
:103900002440C0F60000FFF78DF845F6D630C0F62B
:103910000000FFF787F845F63120C0F60000FFF7FA
:1039200081F845F61740C0F60000BDE88040FFF77B
:1039300079B8000080B545F62440C0F60000FFF7D6
:1039400071F845F6D630C0F60000FFF76BF845F683
:103950003120C0F60000FFF765F845F61740C0F6C5
:103960000000BDE88040FFF75DB8000080B545F677
:103970002440C0F60000FFF755F845F6D630C0F6F3
:103980000000FFF74FF845F63120C0F60000FFF7C2
:1039900049F845F61740C0F60000BDE88040FFF743
:1039A00041B8000080B545F62440C0F60000FFF79E
:1039B00039F845F6D630C0F60000FFF733F845F683
:1039C0003120C0F60000FFF72DF845F61740C0F68D
:1039D0000000BDE88040FFF725B8000040F2C43089
:1039E000C2F2000000F0A8B970B582B0FDF75AFF2E
:1039F00040F28005C2F20005286840F23004C2F2AD
:103A000000040DF1070321460722FEF7A3FC601C0A
:103A100040F2CA31C2F200010622FCF71EFC002867
:103A200056D140F28400C2F20000017801292CD165
:103A300040F2C230C2F2000001880131018040F240
:103A4000D130C2F20000007821780E1A40F2C8305E
:103A5000C2F20000018851FA86F10180F0B202281A
:103A600015D337A0FEF7DEFF37A0FEF7DBFF4FF0E0
:103A7000FF3050FA86F136A0FEF7D4FF45F6174026
:103A8000C0F60000FEF7CEFF01E0012101702078B2
:103A900040F2D131C2F20001087045F62440C0F670
:103AA0000000FEF7BFFF45F6D630C0F60000FEF777
:103AB000B9FF40F2C830C2F20000028821782AA083
:103AC000FEF7B0FF45F61740C0F60000FEF7AAFF6C
:103AD00040F2C830C2F20000008813282ED8FDF74B
:103AE0000DFF40F20C00C2F2000001682868FFF7E9
:103AF00023FB032822D145F61C40C0F60000FEF748
:103B000091FF45F6DD30C0F60000FEF78BFF45F66D
:103B1000E530C0F60000009045F62A30C0F60000FF
:103B200045F6B841C0F6000118A2E623FEF77AFF79
:103B300045F61740C0F60000FEF774FF02B070BDF6
:103B40001B5B303B33336D005741524E3A2000002F
:103B50002564207061636B6574287329206D697317
:103B60007365640A00000000436F756E746572200F
:103B700076616C75653A2025642C20504552206989
:103B80006E6465783A2025640A0000006F6E5F72EB
:103B9000785F646F6E65000040F2C630C2F20000CC
:103BA00000F0CAB880B545F62440C0F60000FEF724
:103BB00039FF45F6D630C0F60000FEF733FF45F674
:103BC0003120C0F60000FEF72DFF45F61740C0F685
:103BD0000000BDE88040FEF725BF0000B0B582B010
:103BE000FDF776FEC820FDF753FC40F23004C2F228
:103BF000000420780130207045F62440C0F6000013
:103C0000FEF710FF45F6D630C0F60000FEF70AFFBB
:103C1000217836A0FEF706FF45F61740C0F60000F3
:103C2000FEF700FF40F28005C2F200052868214639
:103C30000722FFF71FFB032825D145F61C40C0F6DD
:103C40000000FEF7EFFE45F6DD30C0F60000FEF79F
:103C5000E9FE45F6E530C0F60000009045F62A3052
:103C6000C0F6000045F6B841C0F6000145F6C64270
:103C7000C0F60002C023FEF7D5FE45F61740C0F699
:103C80000000FEF7CFFEFDF74FFE28680021FFF78A
:103C900091FA03281CBF02B0B0BD45F61C40C0F627
:103CA0000000FEF7BFFE45F6DD30C0F60000FEF76F
:103CB000B9FE45F6E530C0F60000009045F62A3022
:103CC000C0F6000045F6B841C0F6000145F6C64210
:103CD000C0F60002C323FEF7A5FE45F61740C0F666
:103CE000000002B0BDE8B040FEF79CBE436F756EA9
:103CF0007465722076616C75653A2025640A00004F
:103D000080B545F62440C0F60000FEF78BFE45F670
:103D1000D630C0F60000FEF785FE45F63120C0F62D
:103D20000000FEF77FFE45F61740C0F60000BDE834
:103D30008040FEF777BE000010B582B00446FDF764
:103D4000B1FD40F28400C2F200000078012802BFF9
:103D5000208801302080FDF7D1FD40F20C00C2F236
:103D60000000016840F28000C2F200000068FFF726
:103D7000E3F903281CBF02B010BD45F61C40C0F695
:103D80000000FEF74FFE45F6DD30C0F60000FEF7FE
:103D900049FE45F6E530C0F60000009045F62A30B1
:103DA000C0F6000045F6B841C0F6000106A24FF487
:103DB0008273FEF737FE45F61740C0F6000002B0EA
:103DC000BDE81040FEF72EBE7065725F72656365D8
:103DD0007074696F6E5F6661696C7572655F68614A
:103DE0006E646C696E67000070B545F62444C0F6D9
:103DF00000042046FEF716FE45F6D635C0F600054F
:103E00002846FEF70FFE32A0FEF70CFE45F61746D9
:103E1000C0F600063046FEF705FE2046FEF702FE1D
:103E20002846FEF7FFFD0220FFF780F8014645F621
:103E30007830C0F60000FEF7F5FD3046FEF7F2FDE3
:103E40002046FEF7EFFD2846FEF7ECFD45F6B530BF
:103E5000C0F600004CF68061C1F63451FEF7E2FD79
:103E60003046FEF7DFFD2046FEF7DCFD2846FEF774
:103E7000D9FD45F6DF20C0F600000D21FEF7D2FD8A
:103E80003046FEF7CFFD2046FEF7CCFD2846FEF774
:103E9000C9FD0120FEF78EFE014612A0FEF7C2FD0D
:103EA0003046FEF7BFFD2046FEF7BCFD2846FEF774
:103EB000B9FD12A0FEF7B6FD3046FEF7B3FD45F69C
:103EC000CD30C0F60000BDE87040FEF7ABBD00BFCE
:103ED000436F6D6D6F6E20706172616D6574657298
:103EE000733A0A0020202046616C6C6261636B208B
:103EF0006D6F6465203D2025730A0000202020524C
:103F00007820626F6F737420646561637469766191
:103F10007465640A0000000080B545F62440C0F6D0
:103F20000000FEF77FFD45F6D630C0F60000FEF734
:103F300079FDFEF787FD014605A0FEF773FD45F606
:103F40001740C0F60000BDE88040FEF76BBD00BF23
:103F50004C5231315858206472697665722076650A
:103F60007273696F6E3A2025730A0000F0B581B054
:103F700045F62444C0F600042046FEF753FD45F6FE
:103F8000D636C0F600063046FEF74CFD45F67B10EF
:103F9000C0F60000FEF746FD45F61745C0F60005E1
:103FA0002846FEF73FFD2046FEF73CFD3046FEF773
:103FB00039FD0720FEF7A8FF014645F68F30C0F611
:103FC0000000FEF72FFD2846FEF72CFD2046FEF7E9
:103FD00029FD3046FEF726FD0420FEF7EDFE0146E2
:103FE00045F64430C0F60000FEF71CFD2846FEF7FB
:103FF00019FD2046FEF716FD3046FEF713FD0120A1
:10400000FEF7ECFE014645F65E30C0F60000FEF716
:1040100009FD2846FEF706FD45F6CD37C0F6000738
:104020003846FEF7FFFC2046FEF7FCFC3046FEF764
:10403000F9FC45F69810C0F60000FEF7F3FC2846A0
:10404000FEF7F0FC2046FEF7EDFC3046FEF7EAFCFA
:1040500045F65810C0F600000821FEF7E3FC28469C
:10406000FEF7E0FC2046FEF7DDFC3046FEF7DAFC0A
:104070000020FEF71BFF014624A0FEF7D3FC2846D4
:10408000FEF7D0FC2046FEF7CDFC3046FEF7CAFC1A
:1040900025A00721FEF7C6FC2846FEF7C3FC2046F4
:1040A000FEF7C0FC3046FEF7BDFC0120FEF7A6FE81
:1040B000014626A0FEF7B6FC2846FEF7B3FC2046D4
:1040C000FEF7B0FC3046FEF7ADFC0120FEF7C0FE67
:1040D000014625A0FEF7A6FC2846FEF7A3FC3846BD
:1040E000FEF7A0FC2046FEF79DFC3046FEF79AFC4A
:1040F00024A01221FEF796FC2846FEF793FC3846D2
:1041000001B0BDE8F040FEF78DBC00BF2020204884
:104110006561646572206D6F646520202020203DFC
:104120002025730A000000002020205061796C6F68
:104130006164206C656E67746820203D20256420D2
:10414000627974652873290A00000000202020434A
:104150005243206D6F646520202020202020203DC8
:104160002025730A00000000202020495120202033
:1041700020202020202020202020203D2025730AE0
:10418000000000004C6F52612073796E63776F728C
:1041900064203D203078253032580A0040F28C30BF
:1041A000C2F20000012101707047000010B5044602
:1041B00000F05EFA18B1207B08B1207C10B102201B
:1041C000C0B210BDD4E90801FDF77CF894F92C00C9
:1041D000FDF790FA94F92C00FDF7A4FA0120207461
:1041E0000020C0B210BD0000B0B50C46054600F07E
:1041F0003FFA002802BF0220C0B2B0BDD5E90101DC
:10420000FCF734FD30B1012810D1D5E90101FCF7EC
:1042100081FD03E0D5E90101FCF774FD0138B0FA36
:1042200080F0400920700020C0B2B0BD0320C0B2B1
:10423000B0BD0000F0B58FB014460E46074600F042
:10424000F7F910B101200FB0F0BD00F0D9F9054623
:10425000012085B10021297329703A686A607A6863
:10426000AA60CDE90921CDE90B10CDE90D116868EF
:1042700000F0A6F808B10FB0F0BD686809A9FCF716
:1042800001FD0028DED1707858B304A9284600F05B
:10429000BBF80028EFD1707808A900F0C1F9002818
:1042A000E9D1D6E900E1B2684FF0000C85F810C002
:1042B000DDE90476DDE90630C5E905E1C5E9072752
:1042C000C5E90963E862A86ACDF808C00126ADF81F
:1042D0000C60019008988DF80E0001A8FCF728FCEE
:1042E0002E7301202870256000200FB0F0BD000063
:1042F000F0B587B014460E46074600F099F900283D
:104300001EBF012007B0F0BD00F07AF9054601207C
:10431000E5B10021297329703A686A607A68AA6059
:10432000CDE90511CDE90311CDE90120686800F060
:1043300047F858B93178284600F010F830B9686865
:1043400001A9FCF79FFC0146012009B107B0F0BDAF
:1043500028702560002007B0F0BD0000B0B50D4604
:10436000044600F085F938B14DB1012D04D1D4E9EE
:104370000101FCF7F9FC06E00220C0B2B0BDD4E9AF
:104380000101FCF7CFFC0020C0B2B0BD40F28801B3
:10439000C2F200011031002205E000BF30310132CD
:1043A000102A28BF704751F8083C8342F6D10B7899
:1043B000002BF3D08B68002BF0D0C86818470000A2
:1043C00080B500F138404FEAB020072807D8DFE871
:1043D00000F004090B0D0F11131501200FE002204E
:1043E000C0B280BD02200AE0042008E0082006E0F8
:1043F000102004E0202002E0402000E08020FCF7B4
:1044000095FA0020C0B280BDB0B582680223FF2AB1
:1044100000F34F80541E3F2C00F282804FF0060CB8
:104420004FF4702EDFE814F0BF004000E900860072
:10443000E900E900E9008B00E900E900E900E90092
:10444000E900E900E9009000E900E900E900E9007D
:10445000E900E900E900E900E900E900E900E90014
:10446000E900E900E9009700E900E900E900E90056
:10447000E900E900E900E900E900E900E900E900F4
:10448000E900E900E900E900E900E900E900E900E4
:10449000E900E900E900E900E900E900E900E900D4
:1044A000E900E900E9009F004FF0070C4FF4700E9F
:1044B00079E0B2F5805F10DAB2F5806F1BDAB2F501
:1044C000807F57D0B2F5007F40F097804FF0170CF7
:1044D00040F2020EC0F2F00E65E0B2F5804F16DA3F
:1044E000B2F5805F4ED0B2F5005F40F086800223C7
:1044F000C0F2F0034DE049D0B2F5006F40F07D808E
:104500004FF0280C40F2020ECFF2000E4BE043D0E9
:10451000B2F5004F40F071800223CFF2000338E083
:10452000802A6AD10123C0F6007303F1614E4FF077
:10453000170C38E04FF0080C4FF0706E33E04FF07E
:10454000090C4FF0704E2EE04FF00A0C40F2010EB5
:10455000C0F20F0E27E00123C0F20F0303F5610E36
:104560004FF0170C1FE04FF0170C40F2010EC0F691
:10457000007E18E00123C0F20F0303F1010E4FF09B
:10458000170C10E00123C0F20F0308E00123C0F66E
:10459000007303F1010E04E00123C0F6007303F180
:1045A000020E4FF0280CC1E901E2C1F80CC04068CE
:1045B00000F138404FEAB020072809D8DFE800F0C2
:1045C000040B0D0F1113151A00230B60D8B2B0BDE8
:1045D0000223D8B2B0BD012008E0022006E003208B
:1045E00004E0042002E0052000E00620086000232B
:1045F000D8B2B0BD072008600023D8B2B0BD00001B
:10460000002140F28800C2F2000000BF0278002AB8
:1046100008BF7047013130300F29F7D900207047AB
:1046200003288EBF022008600020C0B2704700003F
:1046300040F28801C2F200010431002206E000BF0E
:1046400030310132102A24BF0020704711F8043C99
:10465000002BF5D0D0F800C00B686345F0D1D0F83E
:1046600004C04B68634504BF01207047E8E70000C1
:1046700040F28801C2F20001401A3030002100BF30
:10468000303804BF0120704701310F2984BF00205A
:104690007047F5E710B5FCF7DFFA00BFFCF7D4FA76
:1046A0000428FBD1FCF7C2FBFCF79EFCFCF7AEFC38
:1046B0000128FBD1FCF7C4FCFCF7CCFC0128FBD1A2
:1046C000FCF7ACFCFCF718FDFCF726FDFCF72EFD13
:1046D000FCF756FD0128FBD1FCF7DCFCFCF7F0FCF5
:1046E000FCF7F8FCFCF700FD0128FBD1FCF76EFDA0
:1046F000FCF7C6FB0C28FBD1FCF74AFDFCF752FD8A
:10470000FCF75AFD4BF20044C0F2C4442046FCF7CB
:1047100065FB2046FCF7EAFDFCF754F9002010BDCC
:10472000F0B58BB00F46064600F0CEF8054610B344
:104730003068686043F60041C4F2000188421CD032
:1047400043F20001C4F20101884247D1FCF74AF963
:104750000120FCF709F945F21050C0F6000090E87E
:104760004E00D0E90440CDE9054001A84EC001A9A2
:104770004FF0904017E0012047E0FCF713F90420C8
:10478000FCF7F2F845F22850C0F6000090E84E0021
:10479000D0E90440CDE9054001A84EC040F6000034
:1047A000C4F6000001A9FCF76DFA01AE30462421E1
:1047B000FBF741FD4FF4E06003904FF482700290EC
:1047C0004FF4007006901820079007200A90686840
:1047D0003146FCF719FD18B1012016E0022014E063
:1047E0006868FCF761FD6868FCF764FD6868FCF7C1
:1047F000F7FC6868FCF7FAFC6868FCF745FD0028E0
:10480000FAD0012028703D600020C0B20BB0F0BD8E
:104810002DE9F04F81B0984691468A46834600F0D4
:1048200063F8002843D09BF80000002841D0B8F17D
:10483000000F40D000264446454600BFDBF8040088
:10484000AFB2FCF7DDFC002F18BFB0F5C05F0CD095
:10485000BAF1000F1ABFA8EB07001AF800100021E8
:10486000DBF80400FCF72CFD013DDBF80400FCF74D
:10487000C3FCB0FA80F040093043C0070CD1DBF82C
:104880000400FCF705FDB9F1000F1EBFA1B2A8EBB3
:10489000010109F80100013C45EA04000004A0B24E
:1048A000B0FA80F04FEA5016C8D1002004E0022090
:1048B00002E0032000E00020C0B201B000F000B828
:1048C00030BCBDE8C08F0000002140F2D830C2F2F9
:1048D000000000BF0278002A08BF7047013108308D
:1048E0000329F7D90020704740F2D831C2F2000105
:1048F000401A0830002100BF083804BF012070476B
:104900000131032984BF00207047F5E72DE9F0410C
:1049100088B090460E46074600F072F8054690B300
:10492000386844F20041C4F20001884219D168603D
:10493000FCF728F8FCF708F845F24050C0F60000F4
:1049400090E88E00D0E90440CDE9054001A88EC072
:1049500001A94FF09040FCF795F9FCF7F5FEFCF744
:10496000D9FE30680021CDE9021104910C22CDE975
:104970000521079101907068A860686801A9FCF79B
:10498000D5FC012803D1012008B0BDE8F08168689A
:10499000FCF7B2FC6868FCF7B9FC00BF6868FCF77C
:1049A00035FD0028FAD06868FCF740FD6868FCF720
:1049B00043FD6868FCF7B0FC01202870C8F800507F
:1049C000002008B0BDE8F081F0B581B015460E4674
:1049D000044692B12F4600BF6068FCF70FFD002827
:1049E000FAD0E81B315C6068FCF750FD013FF3D161
:1049F0006068FCF7FFFC0028FAD0002001B0F0BD91
:104A000040F20840C2F200000178002918BF0020DF
:104A10007047000000F05EB800F00AB800F060B81F
:104A200000F064B800F064B800F08CB800F04CB846
:104A3000024642F68060CFF20F70104449F6806360
:104A4000C3F2470398420FD801F11100C0B22728E2
:104A500084BF0020704701EB810045F20A71C0F667
:104A6000000108445530704780B54EF60000C7F28B
:104A7000F20013184EF2011CC0F2F55C00206345F1
:104A80004FF0000E38BF4FF0010E46F60043C8F657
:104A9000CA031A4462454FF0000238BF012242EABD
:104AA0000E02012ABDE880400DD101F11202D2B2FE
:104AB0001F2A88BF704701EB810045F2D271C0F612
:104AC000000108445A30704745F67400C0F60000F3
:104AD0007047000045F67C00C0F6000070470000FB
:104AE00045F67E00C0F600007047000001207047C8
:104AF00045F68600C0F600007047000040F2100046
:104B0000C2F200004069004740F21002C2F2000207
:104B10001268104740F21000C2F20000806900479E
:104B200040F21000C2F20000C068004740F21000DE
:104B3000C2F200008068004740F21001C2F200019A
:104B40004968084744F20061C2F2C33188423EBF5F
:104B500045F6A200C0F60000704749F20142C7F2D4
:104B6000357245F6B603C0F6000345F68E01C0F671
:104B70000001904238BF19460846704740F21000C5
:104B8000C2F200000069004745F24861C0F600012A
:104B900001EBC00070470000002000F001B80000E9
:104BA00080B582B001904FF46120009046F2500031
:104BB000C0F60000694640F28832C2F20002FFF7F8
:104BC000A5FE02B080BD0000B0B5C0B00A460146E7
:104BD0000DF1010000F014F801280EDB40F28830DE
:104BE000C2F2000004680DF101052846FBF72EFB18
:104BF000024620462946FFF7E7FE40B0B0BD000060
:104C000037B514460846064B6A46214600F0E0F8E0
:104C100004466946002000F075FC20463EBD0000B9
:104C20000555000802E008C8121F08C1002AFAD181
:104C300070477047002001E001C1121F002AFBD11C
:104C4000704700002DE9FF5F82B00021DDE90430EC
:104C5000020DDDF840B0034318D044F61050A2F224
:104C6000FF3242431514119801281FD0A5EB0B0009
:104C7000401C5FEA000A4FF000064E4FDFF8389103
:104C8000B046504615D5CAF1000413E0119801242E
:104C90004AA3012801D16FEA0B010298119AC0E9D9
:104CA0000031C0E9024206B000F08EB8CBF100003E
:104CB000DFE704460021404A491842EB0450CDE9A1
:104CC000001012E0E00707D032463B464046494616
:104CD000FBF7B4FB8046894632463B4610461946F0
:104CE000FBF7ACFB06460F466410002CEAD1DDE969
:104CF0000401DDE90023BAF1000F06DAFBF79EFBA1
:104D000042464B46FBF79AFB05E0FBF70CFC42469C
:104D10004B46FBF708FC04460E460022284BFBF7E7
:104D200089FC03D84FF0FF30014607E00022254BF5
:104D300020463146FBF7D3FAFBF764FC102409E068
:104D4000002C0ADB0A220023FBF73AFA039B3032DD
:104D50001A55641E50EA0102F2D1641C039AC4F190
:104D600011031444119A012A03D0012208430DD1E2
:104D70000AE0084304D000204FF0110B119072E7B5
:104D8000A3EB0B056D1E0DE05B4504DD4FF000024B
:104D900005F1010504E003DA4FF00002A5F1010579
:104DA000002AECD002981199C0E90231C0E900450F
:104DB00079E70000000014400000F03F30000000E0
:104DC0000000F0430000E03F30BCBDE8C09F0000A1
:104DD0002DE9FF4F95B09B468946064600250FE218
:104DE000252877D100242746F84A0121059400E0C0
:104DF000044316F8013F203B01FA03F01042F7D1BB
:104E000030782A2811D06FF02F033078A0F13002CB
:104E1000092A16D8059A44F0020402EB820203EB39
:104E200042021044761C0590EFE759F8042B0592D6
:104E3000002A03DA504244F40054059044F002047E
:104E4000761C30782E2816D116F8010F44F0040491
:104E50002A280DD06FF02F023078A0F13003092BF3
:104E600009D807EB870302EB4303C718761CF3E767
:104E700059F8047B761C30786C280FD006DC4C285F
:104E800017D068280DD06A2814D104E0742810D0F7
:104E90007A280FD10DE044F400140AE044F48014A1
:104EA00001E044F440147278824202D104F5801487
:104EB000761C761C307866280BD013DC582877D007
:104EC00009DC002875D04528F6D04628F4D04728BC
:104ED0001AD19DE118E0632835D0642879D065287F
:104EE00012D195E1702873D008DC6728F1D06928C9
:104EF0006FD06E280DD06F2806D1B5E073282CD066
:104F0000752875D0782874D05A46179990476D1C2B
:104F100075E1C4F30250022809D003280DD0D9F856
:104F2000001004280DD00D6009F1040967E1D9F8DB
:104F30000010EA17C1E90052F6E7D9F800100D8019
:104F4000F2E70D70F0E719F8041B8DF8001000204F
:104F50008DF80100EA46012003E059F804AB4FF058
:104F6000FF3061074FF0000102D40DE008F10101AC
:104F70008846B9420FDA8045F8DB1AF80810002994
:104F8000F4D108E008F1010188468142FADB1AF801
:104F900008100029F6D105985B46A0EB08072146CA
:104FA0003846179A00F097FA284400EB080507E006
:104FB0004DE029E10DE01AF8010B5A461799904788
:104FC000B8F10108F7D25B4621463846179A13E13B
:104FD00042E00A220092C4F302524FF0000A022A71
:104FE00008D059F804CB032A4FEAEC710AD00DE03F
:104FF00029E02AE009F1070121F00702F2E802C1E5
:10500000914609E00FFA8CFC4FEAEC71042A03D1B7
:105010004FFA8CFC4FEAEC71002907DA0A460021AE
:10502000DCF1000C61EB02012D2202E0220504D527
:105030002B228DF80420012203E0E20701D0202278
:10504000F7E7904659E00A2102E010220DE0102116
:105050004FF0000A00910BE010224FF0000A44F0DC
:1050600004040827009203E008224FF0000A00928F
:10507000C4F30252022A05D059F804CB0021032AB6
:1050800008D009E009F1070121F00702F2E802C1A6
:10509000914605E01FFA8CFC042A01D10CF0FF0CAC
:1050A0004FF00008220728D5702806D0009B83F017
:1050B000100353EA0A0305D00EE040228DF80420C5
:1050C000012208E05CEA010206D030228DF80420BB
:1050D0008DF8050002229046009B83F0080353EAF6
:1050E0000A030AD15CEA010201D1620705D5302228
:1050F0008DF804204FF001087F1E582804D034A0FA
:1051000003900EA802900DE036A0F9E753466046E2
:10511000009AFBF755F884460398825C0298401E7B
:10512000029002705CEA0100F0D1029806A9081A08
:1051300000F1200A600702D524F4803400E0012742
:10514000574502DDA7EB0A0000E0002000EB0A0152
:10515000009005984144401A0590E00306D45B4650
:105160002146179A059800F0B6F90544002706E095
:1051700001A85A46C05D179990476D1C7F1C474592
:10518000F6DBE0030CD55B462146179A059800F044
:10519000A2F9054404E030205A46179990476D1C47
:1051A0000099481E00900029F5DC08E00298029959
:1051B0005A460078491C0291179990476D1CBAF124
:1051C0000001AAF1010AF1DC65E1000009280100F3
:1051D000303132333435363738396162636465666D
:1051E000000000003031323334353637383941422F
:1051F000434445460000000000F05BF90544761C7E
:10520000307800287FF4ECAD19B0284600F04EB994
:10521000620700D4062709F1070222F0070CFCE818
:105220000223E14603F000485FEA080C02D00FF2C7
:10523000702C0DE05FEA045C02D50FF2682C07E0E9
:105240005FEAC47C02D00FF2602C01E0AFF2700C78
:105250004FF0FF3823F00043CDF850C065280CD044
:1052600006DC452809D046281DD047283DD13DE021
:10527000662818D067287ED138E00021112F01DB85
:10528000112000E0781CCDE9000106A90EA8FFF767
:10529000D9FCDDE90F010E9A03910021009207F17C
:1052A000010A04914DE04FF000400097CDE9011054
:1052B00006A90EA8FFF7C6FCDDE90F0203920E9BBC
:1052C00011990022DDF80CA00093049211B9791C09
:1052D00000EB010AB7EB0A0004D4C0F1FF3007F17C
:1052E000010A0490AAEB0700019044E0012F00DAC4
:1052F00001270021112F01DD112000E03846CDE902
:10530000000106A90EA8FFF79DFCDDE90F010E9A2A
:105310000391002104910092BA4621070CD403990D
:10532000514500DA8A46BAF1010F05DD009AAAF16B
:105330000101515C302908D0B84202DA10F1040FA3
:1053400006DA0121CDE9011015E0AAF10101E9E732
:10535000002805DC049901440491AAEB000102E055
:10536000411C514500DD8A460499401A401C0190B9
:105370004FF000400290200704D40198504501DB13
:10538000CDF8048000208DF84F0002980DF14F07F2
:10539000B0F1004F25D02B200E9002984FF002085C
:1053A00000280CDA404202902D200E9007E00A21DE
:1053B0000298FAF75FFF3031029007F8011DB8F14B
:1053C0000001A8F10108F2DC02980028EFD1791E53
:1053D0000E980870307800F0200040F0450007F883
:1053E000020D12A8C01B00F107081498007800B144
:1053F000012000EB0A01019801EBE071059841449E
:10540000401A401E0590E00306D45B462146179AD9
:10541000059800F060F805441498007818B15A46D1
:10542000179990476D1CE00324D55B462146179AD7
:10543000059800F050F805441CE00498002807DBAC
:10544000DDE90301884203DD0098405C179901E023
:10545000179930205A469047049805F10105401CE1
:1054600004900198401E019004D12E205A461799AD
:1054700090476D1CBAF10001AAF1010ADDDC05E0DC
:1054800017F8010B5A46179990476D1CB8F10001A7
:10549000A8F10108F4DC5B462146179A0598ABE6B3
:1054A0002D0000002B0000002000000030BCBDE8F3
:1054B000C08F2DE9F041044600251E46174688049A
:1054C00004D405E039462020B0476D1C641EF9D590
:1054D0002846BDE8F0812DE9F041044600251E462E
:1054E0009046C80301D5302700E02027880404D562
:1054F00005E041463846B0476D1C641EF9D5284684
:10550000BDE8F0810A68531C0B6010707047000002
:10551000E0000000020000000300000000000000A6
:105520000000000005000000001C00000200000058
:105530000300000000000000000000000600000062
:105540000C0000000200000003000000000000004A
:1055500000000000070000008B5F0008AA5F000841
:105560002F600008000000000000000000000000A4
:10557000195E0008BA5D0008015E0008315E00088F
:105580008A5D0008115D0008486000085A5D000847
:10559000725D0008D25D000848600008486000089D
:1055A000DF5C0008F85C00082A5D000800000000CD
:1055B000176000087C5E0008C75E0008F65E000801
:1055C000415F0008605E0008AB5E0008255F0008D0
:1055D0004A5E0008955E0008E05E00080F5F000864
:1055E0005A5F0008435D0008A35D0008EA5D0008FB
:1055F000CB5F0008E15F0008705F0008FC5F0008F7
:105600000000000000000000010203040607080972
:105610000000000001020304A0860100400D030009
:10562000801A060000350C0040420F0080841E00E6
:1056300000093D0000127A000024F40000366E01DB
:105640000048E801006CDC0200000048080000008F
:1056500000000048040000000000004800040000B2
:10566000000400480800000000040048200000007A
:10567000000400481000000000040048000400007E
:105680000000004800010000000000480002000087
:1056900000080048800000000004004840000000AE
:1056A00000000048800000000000004840000000AA
:1056B0000000004820000000000400480002000034
:1056C0000004004800010000000000480100000044
:1056D0000000004802000000000000481000000028
:1056E000000400480100000000080048020000001B
:1056F0000008004801000000080000070101020442
:1057000002030109010E010D0101F100000000F288
:1057100000000000F300000000F400000000F500AD
:10572000000000F700000000F800000000F9000091
:105730000000FA00000000FB00000000FC00000078
:1057400000FD00000000FE00000000FF000000005F
:105750000000000000010000000002000000000343
:105760000000000003000001000400000100070029
:10577000000000080000000009000000000A00000E
:1057800000000C000000000D000000000E000000F2
:10579000000D000001000D000002000E00000200DC
:1057A0000E000003000E000004000E0000070016AB
:1057B000010101041601010204160101010616018E
:1057C0000103051601010307160101040616010174
:1057D0000407EE02000400EE02000400EF020004E1
:1057E00000F002000400F102000400F202000400D4
:1057F000F202000400F402000400F602000400F7C4
:1058000002000400F802000400F902000400FA0299
:10581000000400FB02000400FC02000400FD020082
:105820000400FE02000300FF020004000002000466
:105830000001020000000202000000040200040057
:10584000050200040006020004000702000400082C
:105850000200040009020004000A020004000B0216
:105860000004000C020003000D020001000D020004
:1058700000000000010600002C01000001010305EA
:1058800007101314150403000103020000000607AB
:10589000060403040E0C0E0C0C0C0C08080909007D
:1058A000EE070C0C0E0001030404030606060606B0
:1058B00006060600000002020203030405040406B3
:1058C0000505060606070600000052656365697651
:1058D0006564207061796C6F6164202873697A65F2
:1058E0003A20256429206973206269676765722000
:1058F0007468616E207468652062756666657220E2
:105900002873697A653A20256429210A0020202D10
:10591000205479706520202020203D2030782530CB
:10592000325820283078303120666F72204C523146
:105930003131302C203078303220666F72204C525A
:10594000313132302C203078303320666F72204C69
:105950005231313231290A00202020507265616DA8
:10596000626C65206C656E677468203D202564203C
:1059700073796D626F6C2873290A004C6F52612035
:105980006D6F64756C6174696F6E20706172616DAA
:1059900065746572733A0A004C6F526120706163DE
:1059A0006B657420706172616D65746572733A0A1B
:1059B000004C523131323120646F65736E27742090
:1059C000757365206C6174657374206669726D7798
:1059D0006172652076657273696F6E20776869639E
:1059E00068206973203078253032580A004C5231D3
:1059F000313130206973206F6E2076657273696F64
:105A00006E203078253032782C20627574206C61DD
:105A100074657374206669726D776172652076654E
:105A20007273696F6E206973203078253032580A9E
:105A3000004E6F2049525120726F7574696E652057
:105A4000646566696E65640A004368616E6E656CC4
:105A50002061637469766974792064657465637420
:105A600065640A004E6F206368616E6E656C20612C
:105A700063746976697479206465746563746564B8
:105A80000A0043414420646F6E650A00474E535339
:105A9000207363616E20646F6E650A0057692D463E
:105AA00069207363616E20646F6E650A005278200E
:105AB000646F6E650A00496E76616C69642074617A
:105AC00072676574206672657175656E6379206FA3
:105AD0007220706F776572206C6576656C0A0020A5
