:020000040800F2
:10000000080C0020F5020008FD020008294E000837
:1000100001030008030300080503000800000000B6
:1000200000000000000000000000000007030008BE
:1000300009030008000000000B03000895570008A2
:100040000F030008915300080F03000885570008AC
:100050000F0300080F03000881190008C1190008E8
:10006000C9190008D1190008D91900080F030008A0
:100070000F0300080F0300080F0300080F03000818
:100080000F0300080F0300080F0300080F03000808
:100090000F0300080F0300080F030008E119000810
:1000A0000F0300080F0300080F0300080F030008E8
:1000B0000F0300080F0300080F0300080F030008D8
:1000C0000F0300080F0300080F0300080F030008C8
:1000D0000F030008655D0008755D0008855D000878
:1000E00089190008B95600080F0300080F0300081B
:1000F0000F0300080F0300080F0300080F03000898
:100100000F0300080F0300080F0300080F03000887
:100110000F0300080F030008F95700080F03000839
:100120000F0300080F0300080F0300080F03000867
:100130000F0300080F0300080F0300080F03000857
:100140000F030008CD5100080F0300080F0300083B
:100150000F0300080F0300080F0300080F03000837
:100160000F0300080F0300080F0300080F03000827
:100170000F0300080F0300080F0300080000000031
:100180000F0300080F03000800F002F800F0A2F8C7
:100190000AA090E8000C82448344AAF10107DA45E2
:1001A00001D100F097F8AFF2090EBAE80F0013F092
:1001B000010F18BFFB1A43F0010318477CB500007C
:1001C0009CB500000A4410F8014B14F00F0508BF5D
:1001D00010F8015B240908BF10F8014B6D1E05D013
:1001E00010F8013B6D1E01F8013BF9D1641E03D0EC
:1001F000641E01F8015BFBD19142E4D3704700001B
:100200000023002400250026103A28BF78C1FBD81F
:10021000520728BF30C148BF0B6070476E2900F0FD
:100220007583702900F0BB8466290AF02C86652945
:100230000AF0298667290AF0268661290AF02586B0
:1002400003681B0A28BF41F08001692900F0128170
:10025000642900F00F81752900F00C816F2900F0EE
:100260004984782900F08784E92900F0E383E429B0
:1002700000F0E083F52900F0DD83EF2900F04684EB
:10028000F82900F086840368DB0928BF41F080016B
:10029000632901F0A280732901F0A780E32901F00E
:1002A000B280F32901F0B780002070471FB50AF033
:1002B000DDFD01F005F90400002000210AF0C0FD79
:1002C000401C6060002000210AF0A4FDE0601FBD1A
:1002D00010B510BD01F0C7F81146FFF7E7FF09F0B0
:1002E000EFFB01F0A3F903B4FFF7F2FF03BC01F049
:1002F000E9F900000948804709480047FEE7FEE7A2
:10030000FEE7FEE7FEE7FEE7FEE7FEE7FEE7FEE7C5
:1003100004480549054A064B70470000A5570008E8
:100320008901000808060020080C002008080020A9
:100330000808002053EA020C00F069802DE9F04B18
:100340004FF00006002B1FBFB3FA83F503FA05F444
:1003500024FA05F65E4012BF1643B2FA82F502FA9D
:1003600005F4C5F120051EBF22FA05FC44EA0C0481
:10037000203556EA044C4FEA144418BF641C4FF071
:1003800000084FF00009904271EB030C39D30029AB
:1003900019BFB1FA81F701FA07F6B0FA80F700FA4F
:1003A00007F6C7F120071EBF20FA07FC46EA0C0635
:1003B0002037B6FBF4FCA7EB0507103F07F01F0B37
:1003C000CBF120062CFA06F60CFA0BFB44BFB34621
:1003D0000026202FA4BF5E464FF0000B5BEA060C00
:1003E00008BF4FF0010B19EB0B0948EB0608ABFBFC
:1003F000027C06FB02CC0BFB03CCC01B71EB0C0197
:10040000C1E70B46024641464846BDE8F08B13B5AE
:10041000084318BF4FF0FF300146AFF30080BDE83E
:100420001C4070471CB50C46064B7B446946009047
:10043000204600F084FA04460020694600F092FA53
:1004400020461CBD370500000FB41CB5084B06AA9A
:100450007B4469460090059800F071FA044600203C
:10046000694600F07FFA20461CBC5DF814FB0000D2
:10047000110500002DE9F041064600241068752999
:10048000314616A510D000F0ADF9002802DA40423E
:1004900013A507E031688A0701D512A502E04907D4
:1004A00004D511A5012401E000F0A5F900210A22DC
:1004B00006F1240709E0B0FBF2FCB0FBF2F302FB0B
:1004C0001C00303078541846491C0028F3D12346CC
:1004D0002A463046BDE8F04100F0BFB900000000F8
:1004E0002D0000002B000000200000002DE9F05F2F
:1004F000894604464FF0000ADFF874B1FB44C0F8A7
:1005000020A02046E1688847002874D0252806D01E
:10051000D4E901219047206A401C2062F1E70026BF
:100520005F462046E16888472028054607DB312DD5
:1005300005D2781910F8200C08B10643F1E7B0078E
:1005400001D526F00406C4F81CA00027C4F818A0A2
:100550002A2D09D028460AF055FC38B304EB870849
:10056000303DC8F8185019E059F8041B204604EB38
:1005700087029161E1688847012F054618D1E0693B
:10058000002820DA26F020061DE0D8F8180000EB3D
:10059000800005EB40003038C8F818002046E168BC
:1005A000884705460AF02EFC0028EED1012F0AD01C
:1005B0002E2D08D12046E16888477F1C0546022F72
:1005C00046F02006C4DBA069002803DA404246F06A
:1005D0000106A061F00701D026F010066C2D0BD0AB
:1005E000682D09D04C2D39D06A2D35D0742D35D0D9
:1005F0007A2D33D016E038E0E1682F462046884750
:10060000B842054609D16C2F26D04FF48060E168CE
:10061000064320468847054604E06C2F1AD04FF465
:10062000807006430DB3A5F14100192802D820358A
:1006300046F400664A462946204626604E46FFF7A5
:10064000EDFD80B101280BD0F61D26F0070000F16A
:10065000080956E74020E4E78020D8E70020D6E7E5
:1006600006F104094DE7284652E7206A00F002B877
:100670008EA9000030BCBDE8C09F10B5431C02E04D
:1006800010F8011B71B18107FAD14FF0013202C895
:100690008C1A8C4314EAC211F9D0C01A0A0603D08E
:1006A000C01E10BDC01A10BD0A0401D0801E10BDAE
:1006B0000902FCD0401E10BD032A40F2308010F029
:1006C000030C00F0158011F8013BBCF1020F6244ED
:1006D00098BF11F801CB00F8013B38BF11F8013B7E
:1006E000A2F1040298BF00F801CB38BF00F8013B2B
:1006F00011F0030300F05E82083AC0F0088051F860
:10070000043B083A51F804CBA0E80810F5E7121DA5
:100710005CBF51F8043B40F8043BAFF30080D207C4
:1007200024BF11F8013B11F801CB48BF11F8012B90
:1007300024BF00F8013B00F801CB48BF00F8012BB3
:1007400070474FF0000200B5134694469646203994
:1007500022BFA0E80C50A0E80C50B1F12001BFF47A
:10076000F7AF090728BFA0E80C5048BF0CC05DF8E0
:1007700004EB890028BF40F8042B08BF704748BF2E
:1007800020F8022B11F0804F18BF00F8012B7047A2
:1007900070477047704770B5044685690068C106A8
:1007A00001D5302600E02026C00707D070BDD4E96F
:1007B000012130469047206A401C20626D1EF6D50C
:1007C00070BD70B5044685690078C00707D170BD5B
:1007D000D4E9012120209047206A401C20626D1E30
:1007E000F6D570BD09684A0501D540B27047C90504
:1007F000FCD500B2704709684A0501D5C0B2704700
:10080000C905FCD580B2704770B50C460546012A73
:1008100005D02878800600D5EA69002302E001238C
:1008200005E05B1C934202D2E05C0028F9D1A86984
:10083000E618C01AA861286A184428622846FFF7FB
:10084000AAFF04E0D5E9012114F8010B9047B44256
:10085000F8D32846FFF7B5FF70BD2DE9F0470D46E8
:1008600099469246044600F124080168880604D59A
:10087000E06921F01001216000E00120A84201DDC3
:10088000471B00E00027A1697A1902EB0900081A4A
:10089000A0612078C00602D42046FFF77CFF002626
:1008A00008E0D4E901211AF806009047206A401CAC
:1008B000761C20624E45F4DB2078C0060AD520461F
:1008C000FFF769FF06E0D4E9012130209047206A54
:1008D000401C2062381EA7F10107F4DC07E0D4E9D0
:1008E000012118F805009047206A401C2062281E4C
:1008F000A5F10105F3DC2046FFF763FF2078000631
:1009000002D50220BDE8F0870120FBE711680268EC
:10091000006A530501D508700AE0D30501D50880A7
:1009200006E0130603D5C217C1E9000200E0086023
:100930000120704701694A1C02610878704700B5C0
:100940008FB0CDE901310021059105497944CDE908
:10095000031011466846FFF7C9FD0FB000BD000047
:10096000E5FFFFFF0A6802F8010B0A60704700000C
:100970002DE9FF5F15468A460446DFF8AC80F8444F
:100980000027D8E900103E46CDE9001010E03AF803
:1009900016106A4602A800F042FD411C07D02178DB
:1009A000890603D5E269391891420DD80744761CAF
:1009B0002078800602D5E069B84205DDAE42E6DB6C
:1009C0003AF816000028E2D1A069C01BA0612046B9
:1009D000FFF7E1FED8E90010CDE90010002017E094
:1009E0003AF818106A4602A800F019FDB0F1FF3F6E
:1009F00081460BD000250DF1080B05E0D4E901215B
:100A00001BF8050090476D1C4D45F7D308F1010018
:100A1000B0428046E4DB206A384420622046FFF77B
:100A2000D0FE00F003B800001EA500003FBCBDE8EA
:100A3000C09F00002DE9F0418046D21D22F0070240
:100A40000025D2E90002F52915A614D0011E72F185
:100A5000000106DA0023D0EB030063EB020211A6CB
:100A600008E0D8F800108B0701D50FA602E049076F
:100A700001D50EA601251146002408F1240704E043
:100A800000F0CAF830323A55641C50EA0102F7D13E
:100A90002B46324621464046BDE8F041FFF7DDBE19
:100AA000000000002D0000002B00000020000000CE
:100AB00030B4002100F1240408E002F00705D20858
:100AC000303542EA4372DB086554491C52EA03059B
:100AD000F3D10468002310A2250708D504F02004F0
:100AE0000C4304D0C46901230CA2641EC46130BC51
:100AF000FFF7B3BE10B5044621461068FFF77BFE32
:100B000002462046BDE810400023D1E7D21D22F066
:100B10000701D1E90023CBE700000000300000000E
:100B2000F0B40D460188090502D5214C7C4402E051
:100B30001F4C7C440E34002100F1240608E002F032
:100B40000F071209E75D42EA03721B097754491C3B
:100B500052EA0307F3D102780023120704D5702D5F
:100B600006D009B1022311342246F0BCFFF775BE4E
:100B700001231034F8E770B504460D46214610688D
:100B8000FFF739FE024629462046BDE870400023A3
:100B9000C6E7D21D22F00703D3E90023C0E70368AC
:100BA000126843F0200303600823C3610023B7E702
:100BB00078A3000010B5203AC0F00B80B1E81850BF
:100BC000A0E81850B1E81850A0E81850203ABFF437
:100BD000F5AF5FEA027C24BFB1E81850A0E81850D6
:100BE00044BF18C918C0BDE810405FEA827C24BF2A
:100BF00051F8043B40F8043B08BF7047D20728BFB8
:100C000031F8023B48BF11F8012B28BF20F8023B06
:100C100048BF00F8012B704730B5B0F10A0271F1FE
:100C200000034FEA900E4EEA817EB0EB0E0061EBBE
:100C300091014FEA101E4EEA017E10EB0E0041EBCF
:100C400011114FEA102E4EEA016E10EB0E0041EB2F
:100C500011214FEA104E4EEA014E10EB0E0041EB0F
:100C60001141401841F100014FEAD00040EA4170C3
:100C70004FEAD1014FEA810444EA907410EB8005F9
:100C800044EB01046D1944EB0404521BA3414FF0E3
:100C9000000348BF0A3200D530BD401C41F10001BD
:100CA00030BD2DE9FF4F0C461E464FF0FF378BB08D
:100CB000D2E90001DDF860800A908A46C1F30A5546
:100CC00005B93D46002108464FF00000BAF1000F7B
:100CD00000F4400005DA00EB80004FF4400101EA27
:100CE00050004FEA9059B9F1010F00DDB9460A985A
:100CF00050EA4A000ED044F61050A5F2FF354543A5
:100D00002F14B8F1000F1ED07542291E1EDDC9F147
:100D100000021CE0B8F1010F4FF0000001D03021BB
:100D200003E0F24305E02154401CB042FBDB3046B7
:100D30000022002121540B99C1F80880C1E900204C
:100D40000FB000F0BCB9BD1B6D1CDEE74A4600DAEF
:100D5000694206A800F0F8FB06AB93E8070003AB76
:100D600083E8070050460A9909F06BFC8DE80700FC
:100D7000A0F500501F3800900398002D0ADD42F2C4
:100D80001F014A460844002303A90390684609F05E
:100D9000D5FE09E0A0F500504A461F38002303A9FC
:100DA0000390684609F0DFFE8DE807000004000CA0
:100DB00003D04FF0FF30410800E01046B8F1000FBB
:100DC00003D00022009215461EE0751E05D4FFF7E1
:100DD00023FF303262556D1EF9D5B3460122084318
:100DE00002D000227F1C04E02078302801D10022AC
:100DF0007F1E002A099784D01DE0112D07DAFFF726
:100E00000BFF303262556D1C50EA0102F5D10843E8
:100E100002D00098C8B10EE00021681E05E0235CF6
:100E2000625C63542254401E491C8142F7DBAB468E
:100E3000A81B401E0990002004F80B000B98099A8B
:100E4000C0F80880C0E9002B7AE711264FF00008AF
:100E500057E72DE9F04F88460446D21D22F00701DE
:100E600091B0D1E90001CDE90A0109F0B3FF0246D2
:100E70000B98C00F01D02D2007E02068810701D515
:100E80002B2002E0202101EAC000032A099001D0B2
:100E9000072A05DB03464146204600F015FB0BE11F
:100EA0002078800601D5E06900E00620B8F1650FE2
:100EB000814606D0B8F1660F18D0B8F1670F70D12F
:100EC00031E00020B9F1110F009001DB112301E0A6
:100ED00009F101030AAA01A90CA8FFF7E2FEDDE966
:100EE0000C70002609F10105834647E001204B46BE
:100EF00000904FF000470AAA01A90CA8FFF7D1FE05
:100F0000DDE90DB00C995D46002610B909F101002C
:100F10000D18B9EB050003D4C0F1FF3609F1010546
:100F2000A5EB09002BE0B9F1010F01DA4FF001093F
:100F30000020B9F1110F0090484601DD112300E0B7
:100F400003460AAA01A90CA8FFF7ABFEDDE90C7065
:100F50004D4600268346207800070AD4AB4500DAC8
:100F60005D4601A8012D04DD411911F8011C30294D
:100F700007D04F4502DA17F1040F04DA0120824648
:100F80000FE06D1EEEE7002F02DCED1B3E4403E098
:100F9000781CA84200DD7D1CB81B00F1010A4FF04F
:100FA00000472078000703D4AA4501DB4FF0FF3A41
:100FB0000021B7F1004F0DF143088DF8431024D004
:100FC00002202B23002F01DA7F422D230A21021E4B
:100FD000A0F1010000DC5FB197FBF1FC97FBF1F29F
:100FE00001FB1C7C17460CF1300C08F801CDEEE734
:100FF000A8F1010003702188090501D5452100E011
:101000006521A0F1010800F8011C09980FA9A1EBC6
:101010000807FF1D00B10120411901EBEA70A16929
:101020003844081A401EA0612078C00602D4204629
:10103000FFF7B1FB099828B1D4E901219047206A54
:10104000401C20622078C00622D52046FFF7A3FB73
:101050001EE0002E04DBB34502DD01A8805D00E048
:101060003020D4E901219047206A401C2062761C80
:10107000AAF101005FEA000A0AD100F021FAC06873
:101080000168405CD4E901219047206A401C20623D
:10109000281EA5F10105DCDC07E0D4E9012118F8E0
:1010A000010B9047206A401C2062381EA7F10107FF
:1010B000F3DC2046FFF785FB032011B041E630BC8E
:1010C000BDE8C08F2DE9F04F04460D46D21D22F039
:1010D000070089B0D0E900974846394609F07AFE02
:1010E0000246F80F01D02D2307E02068810701D5C3
:1010F0002B2302E0202101EAC0038DF820300BB140
:10110000012000E00020032A824601D0072A04DBE8
:101110002946204600F0D8F93FE12078800601D426
:101120000D2500E0E569C7F30A560D2D49DA0021C7
:101130004FEA175B08464FF00000002F00F4400014
:1011400007DA00EB80004FF4400100EBD07001EAB9
:1011500060008115012901DD4FF0FF3100224FEAC7
:10116000850CBCF1180F06D31346ACF118004FF0F4
:101170008052C24003E04FF4801323FA0CF30CF1C9
:101180000C0CBCF1200F04D3ACF1200C09FA0CF0CC
:1011900001E007FA0CF000294FF0004801DD18B912
:1011A0000FE00ED140450CD319EB02095F4121B984
:1011B000404502D19F4329EA0209BBEB175F00D0EB
:1011C000761C2088000502D57B48784402E07A48E6
:1011D0007844193808AA302302F80A30037C0AF14F
:1011E0000101002E0AF1020A53546A4602DC4FF054
:1011F000300101E04FF031014FF001088DF800108F
:1012000002D0A6F2FF3603E059EA470100D06B4E48
:10121000002D02DC2178090704D54FF002082E21A9
:101220008DF80110C44600210BE0C7F303433F01D2
:10123000C35C491C6D1E02F80830052908F101083D
:1012400001DA002DF1DC00210CE000EB1973491CE0
:101250001B786D1E082902F808304FEA091908F1B9
:10126000010801DA002DF0DC21688B0602D516E0BA
:10127000A8F10108E04505DD02EB080313F8013C85
:10128000302BF5D0B8F1000F09DD02EB080313F89D
:10129000013C2E2B03D1090701D4A8F10108002D30
:1012A00005DD3E2102F808106D1E08F10108407CA2
:1012B000002E02F8080008F1010804DA2D20764219
:1012C00002F8080002E02B2002F808000A214FF47F
:1012D0007A70864208F101080BDB96FBF0F330339D
:1012E00002F8083096FBF0F308F1010800FB1366E2
:1012F00001E0642E0CDB642096FBF0F3303302F83F
:10130000083096FBF0F308F1010800FB136601E0DA
:101310000A2E06DB96FBF1F0303002F8080008F1E7
:10132000010896FBF1F001FB1060303002F8080074
:10133000A16908F1010808EB050202EB0A00081A8E
:10134000A0612078C00602D42046FFF724FA216A63
:1013500008AE01EB0A00206204E0D4E9012116F88E
:10136000010B9047BAF1010AF7D22078C00602D5E6
:101370002046FFF710FA6E4609E016F8010B3E28EA
:101380000FD0D4E901219047206A401C2062B8F1B7
:101390000108F2D22046FFF714FA09B0032000F04A
:1013A0000FB8206A2844206203E0D4E901213020EC
:1013B00090476D1EEBD3F8E7159D000002FCFFFF80
:1013C00030BCBDE8C08F10B5436913B1AFF30080E6
:1013D00001E0FFF719FA012010BD127800F1240195
:1013E0000A7000224A700122EDE711684FF0FF32C7
:1013F000E9E710B5436913B1AFF3008001E0FFF7EF
:10140000B7FA012010BD128800F124018284002265
:10141000C2840122EDE711684FF0FF32E9E72DE9C0
:10142000F04116460C46054600F042F8036893F872
:101430000101012807D0FF2C12D8185D80B10120CE
:101440002C70BDE8F081D3F807013246214603F243
:101450000713C7182846BC46BDE8F0410023604783
:101460004FF0FF30EDE7754600F0EAF8AE460500B4
:101470006946534620F00700854618B020B5FEF7B0
:1014800047FFBDE820404FF000064FF000074FF047
:1014900000084FF0000BAC46ACE8C009ACE8C0094E
:1014A000ACE8C009ACE8C00921F007018D467047DF
:1014B00010B500F005F8001D10BD00BF85990000B3
:1014C00000487047B00300202DE9F0411F46044654
:1014D00003260168072A01F4006004DB08B116A5A1
:1014E00005E016A503E008B115A500E015A521F05B
:1014F00010002060A069C01EA0610FB1401EA06155
:101500002046FFF748F94FB1D4E90121384690470A
:10151000206A401C2062C01C206206E0206AFAE7B4
:10152000D4E9012115F8010B9047761EF8D2204628
:10153000FFF747F9BDE8F0814E414E006E616E0045
:10154000494E4600696E66002DE9F0478146164611
:101550008AB0354878440DC88DE80D00324878448B
:10156000801C03AC0DC884E80D0041F69B30084494
:10157000372190FBF1F290FBF1F5A5F1800501FB1D
:1015800012041B3C02D56442012000E00020DFF879
:1015900098A080460027FA44AAF1BE0A0EE0E007B0
:1015A0000AD03246684607EB470101230AEB810166
:1015B00009F0D9FA8DE8070064107F1C002CEED1E9
:1015C000194F7F44AE3F19E0E80715D007EB041030
:1015D0000DF1180A90E80E008AE80E00C068F0428B
:1015E00001D1981908903246012306A903A809F0F1
:1015F000BAFA03AB83E807006D10641C002DE3D139
:101600004FF0010332466946B8F1000F03A802D03B
:1016100009F094FA01E009F0A6FAC9E90001C9F855
:1016200008200AB0BDE8F0871C9A000010B50446F7
:10163000AFF300802046BDE81040FEF754BE000026
:10164000004870479003002030B44FF0013C50F840
:10165000042B51F8043BCCFA52F4D51A20D1FCB932
:1016600050F8042B51F8043BCCFA52F4D51A17D198
:10167000B4B950F8042B51F8043BCCFA52F4D51A03
:101680000ED16CB950F8042B51F8043BCCFA52F44B
:10169000D51A05D1002CDAD030BC4FF000007047CD
:1016A00029BAB1FA81F111F01801D1F1200084407A
:1016B000F2D1CA40CB4012F0FF0213F0FF0330BC5E
:1016C000D01A704701491820ABBEFEE72600020081
:1016D00070470000F0B585B040F60004C4F6000481
:1016E00001204FF48065019002266946204600954E
:1016F000039600F0B7FA20464FF48061012200F013
:1017000095FB20464FF480610022002700F08EFBFD
:10171000142004F08BFC20464FF48061012200F07D
:1017200085FB1E2004F0A6FD69462046CDE9005742
:10173000039600F097FA20464FF4806100F070FBAA
:1017400080B14FF0FF3500BF0120013504F092FD5C
:1017500020464FF4806100F063FB08B1632DF3D3A2
:10176000622D2AD820464FF4806100F059FB78B9E9
:101770004FF0FF350120013504F07CFD20464FF489
:10178000806100F04DFB08B9632DF3D3622D14D8AE
:1017900020464FF4806100F043FB70B1002500BF8C
:1017A000012004F067FD20464FF4806100F038FB13
:1017B00018B1632D05F10105F2D305B0F0BD0000AD
:1017C000F0B585B04BF24D0040F60004C0F60000C5
:1017D000C4F6000406F04EFE4BF24000C0F60000D6
:1017E00006F048FE2CA006F045FE4BF24800C0F67D
:1017F000000006F03FFE40F2F035C2F20005002680
:101800002E726E60FFF766FF20464FF480614FF442
:10181000806700F005FB01283CD002200390694658
:101820002046CDE9007600F01DFA00F053F828714B
:1018300000F050F8687100F04DF8A87100F04AF817
:10184000E87100F047F829796A79AB79EF791144AA
:10185000194439442872081AB0FA80F04FEA50103F
:1018600017A412A108BF0C4628604BF24D00C0F629
:10187000000006F0FFFD4BF24000C0F6000006F04D
:10188000F9FD204606F0F6FD4BF24800C0F60000D8
:1018900006F0F0FD05B0F0BD4448543131207265CA
:1018A00061642073746172740A000000444854310A
:1018B00031207265616420737563636573730A0018
:1018C00044485431312072656164206661696C65F9
:1018D000640A00002DE9F04140F600040026C4F639
:1018E000000400270DE000BF632D41D2A8F10100E4
:1018F000B0FA80F0400940EA4606062F07F10107DA
:1019000037D820464FF4806100F08AFA80B94FF052
:10191000FF3500BF0120013504F0ACFC20464FF438
:10192000806100F07DFA08B9632DF3D3622D23D8CE
:101930001E2004F09FFC20464FF4806100F070FAF6
:10194000804620464FF4806100F06AFA0128CDD12C
:101950004FF0FF350120013504F08CFC20464FF498
:10196000806100F05DFA0128BED1632DF2D3BBE7A0
:101970000026F0B2BDE8F0810026F0B2BDE8F081AB
:10198000012000F063B9000080B54FF4806000F0E2
:101990005DF94FF4006000F059F94FF4805000F009
:1019A00055F94FF4005000F051F94FF4804000F029
:1019B0004DF94FF40040BDE8804000F047B9000009
:1019C000022000F043B90000042000F03FB90000FD
:1019D000082000F03BB90000102000F037B90000EB
:1019E00080B5202000F032F9402000F02FF980204F
:1019F00000F02CF94FF4807000F028F94FF40070DB
:101A0000BDE8804000F022B942F20400CEF20400AA
:101A1000016821F0010101607047000042F20400FA
:101A2000CEF20400016821F004010160704700005B
:101A300042F20400CEF20400016821F002010160CC
:101A40007047000080B590F82510022922D1016866
:101A5000D0F838E0D0E910C30A68BEF1000F22F0D8
:101A60000E020A600A6822F001020A6003F01C01FB
:101A70004FF0010202FA01F1CCF804104FF000011E
:101A800080F8252080F8241001D0F0470021084676
:101A900080BD00BF0421C163012080BDB0B50446F4
:101AA00000F0CAF9054640F20000C2F200004068AA
:101AB000611C18BF044400BF00F0BEF9401BA042E7
:101AC000FAD3B0BD2DE9F04F81B000297ED041F6A8
:101AD000000600F13842C4F6000607234FEAB22799
:101AE000B04208BF0623062F38BF4FEAB2230022B8
:101AF0000F24002600274FF00F0900932AE000BFB3
:101B00000368032595402B4303606FF0030303EA4A
:101B10005704044406F01C0CD4F8208009FA0CF396
:101B200028EA0303236283680F24AB43836043687E
:101B300023EA0E034360C368AB43C360C36A23EA6E
:101B40000E03C362013731FA07F306F1040602F10E
:101B500002023BD0012303FA07FE1EEA010CF1D07A
:101B600040F20043C4F20103A3F57E7B27F0030398
:101B700006F00C0A5BF8033004FA0AF8009C03EA4A
:101B8000080304FA0AF5AB42BAD140F20044C4F2A9
:101B900001042368BD0823EA0C032360636823EA79
:101BA0000C036360A36823EA0C03A36040F20C44B7
:101BB000C4F20104236823EA0C0323605BF8253098
:101BC00023EA08034BF825309AE700BF01B000F084
:101BD00000B830BCBDE8C08F80B5022818D3002102
:101BE0004FF6FE724FF6FC7E4FF6F87C00EA0203D9
:101BF000022B0FD000EA0E03042B0FD000EA0C03D7
:101C0000082B0FD00009012801F10401EED10BE0EF
:101C100000200AE041F0010106E000BF41F00201AE
:101C200002E000BF41F00301C8B240F2F441C2F249
:101C3000000151F82000002808BF80BD816819B15B
:101C40004068BDE88040084780BD000040F2144174
:101C5000C4F201010A68024214BF08607047FFF72E
:101C6000BBBF00002DE9F04F84B00C68002C00F0E1
:101C7000D180021D029200F12C0241F6000640F2D2
:101C8000004E009200F13842C4F600060723C4F269
:101C9000010E4FEAB227B04208BF062300264FF0DC
:101CA00000084FF00009062F38BF4FEAB223019316
:101CB0000BE000BF0C6809F1010934FA09F208F1E0
:101CC000020806F1040600F0A580012202FA09FAD2
:101CD00014EA0A0CEED0D1F804B04BF01002122A2C
:101CE00011D16FF0030202EA5902024406F01C050A
:101CF0000F23146A03FA05F70B69BC43AB40234377
:101D00001362D1F804B00268032303FA08F3DC433A
:101D100022EA03030BF0030202FA08F52B43BBF19E
:101D2000120F03606CD8012303FA0BF313F0061FA4
:101D300066D08268CB68224003FA08F31A438260B7
:101D40004268029F22EA0A054FEA1B1202FA09F2D0
:101D50002A433A60C2688B68224003FA08F31A43A8
:101D60005FEACB03C260A5D541F26003C4F202036F
:101D70001A684FF6084742F001021A601A68CFF657
:101D8000FF7702F001020392039A29F003027244E2
:101D9000D35906F00C040F25A540AB43019D05FA6D
:101DA00004F42343D351DEF800204B6842EA0C04CC
:101DB000DD0358BF22EA0C04CEF80040DEF8042010
:101DC0009D0342EA0C0458BF22EA0C04CEF80440FA
:101DD000DEF80820DD0242EA0C0440F20C4558BF50
:101DE00022EA0C04CEF80840C4F201052A689B02DE
:101DF00042EA0C0458BF22EA0C042C605AE700BFE8
:101E0000032AA7D1009F3A6822EA0A05CBF3C00251
:101E10009CE700BF04B000F000B830BCBDE8C08F44
:101E20000069084018BF0120704700001823002AED
:101E300008BF2823C150704740F2FC50C2F2000096
:101E40000068704790F84120202A03D190F8402084
:101E5000012A01D102207047242280F84120026823
:101E6000136823F001031360136823F48053136095
:101E7000136819431160116841F0010111602021BC
:101E800080F84110002180F840100846704700009B
:101E900090F84120202A03D190F84020012A01D156
:101EA00002207047242280F841200268136823F042
:101EB00001031360136823F4706343EA0121116086
:101EC000116841F001011160202180F841100021CA
:101ED00080F8401008467047002804BF0120704772
:101EE00010B50446242084F841002068016821F0E0
:101EF00001010160204600F0A5FA0020606484F82A
:101F00004100206384F8420084F8400010BD0000C6
:101F1000002804BF0120704710B5044690F8410026
:101F200028B9002084F84000204600F0DBFA242085
:101F300084F8410094E80910E2680168012A21F060
:101F40000101016023F070610161816821F40041A9
:101F5000816003D14CF40041816007E04CF40441FE
:101F6000022A816004BF4FF400614160416804F1BE
:101F7000100C41F0007141F400414160C16821F44E
:101F80000041C1609CE80E10114341EA0321C16089
:101F9000216A41EA0C010160016841F00101016020
:101FA00000202021606484F84110206384F84200FE
:101FB00010BD00002DE9F04F83B0044690F84100B9
:101FC00020280DD1DDF830A0BAF1000F0CD0DDF8DB
:101FD00034B0BBF1000F07D094F8400001280BD1BA
:101FE000022003B000F018B94FF4007060640120C3
:101FF00003B000F011B900BF01201F461546894605
:1020000084F84000FFF718FF216806468969090433
:102010000AD500BFFFF710FF801B192800F2EC80E3
:10202000206880690004F5D40E99222084F84100CC
:1020300040204FF0000884F84200C4F84480C4F8FF
:1020400024A08A46A4F82AB0C4F83480009120461F
:1020500049462A463B46019602F05EFF30B184F8BD
:102060004080012003B000F0D7B800BF608D554616
:10207000B0F5807F12D3206849F600024168C7F6A8
:10208000004211406FF39F2942F200424944C8F2D6
:10209000FF1211434160FF2015E000BF608D2168F1
:1020A00049F600034A68C7F600431A40C3B26FF30B
:1020B0009F2942EA03424A44A2F1FC42A2F55C4253
:1020C00002F580324A6049F6004840F2000BCFF634
:1020D00000486F1C4FF0FF0AC0F2FF1B208511E083
:1020E000618D218550F8042FC9B202EA080242EA44
:1020F00001414FF0007241EA090111430160608D16
:1021000000285BD02068816949070CD4D7B3002D23
:1021100070D000BFFFF790FE801BA8426CD82068EB
:1021200081694907F6D5406A616A0870606A218D45
:1021300001306062481E2085618D01396185618DA5
:102140000029DCD00004DAD12068816909060CD4AA
:1021500037B3002D4ED000BFFFF76EFE801BA842A4
:102160004AD8206881690906F6D5618DB1F5807F6E
:10217000B6D3A4F828A050F8041F5A4601EA080173
:10218000B9E700BF81694907CDD4816949075CBFC0
:1021900081695FEA4171C6D481694907F2D5C2E716
:1021A00081690906E1D4816909065CBF81695FEA3A
:1021B0000161DAD481690906F2D5D6E720462946BD
:1021C000324602F089FF00287FF411AF20682021F9
:1021D000C16142684EF60003CFF600631A404260C8
:1021E000002084F8411084F8420084F8400003B0D5
:1021F00000F012B8FFF720FE606C40F02000606431
:10220000202084F84100002084F8420084F8400037
:10221000012003B000F000B830BCBDE8C08F000062
:102220002DE9F04F83B0044690F8410020280DD1ED
:10223000DDF830A0BAF1000F0CD0DDF834B0BBF1FE
:10224000000F07D094F8400001280BD1022003B002
:1022500000F0F4B84FF400706064012003B000F0A7
:10226000EDB800BF01201F461546894684F840009E
:10227000FFF7E2FD21680646896909040AD500BF17
:10228000FFF7DAFD801B192800F2C88020688069FA
:102290000004F5D40E99212084F8410040204FF02D
:1022A000000884F84200C4F84480C4F824A08A4698
:1022B000A4F82AB0C4F834800091204649462A4642
:1022C0003B46019602F098FE30B184F84080012030
:1022D00003B000F0B3B800BF608D554649F6004822
:1022E00040F2000ACFF60048B0F5807FC0F2FF1A36
:1022F0000CD320686FF39F29416801EA080141EA85
:10230000090141EA0A014160FF200EE0608D216869
:10231000C3B24A686FF39F2902EA080242EA034205
:1023200042EA090242F000724A606F1C4FF0FF0B54
:10233000208511E0618D218550F8042FC9B202EA91
:10234000080242EA01414FF0007241EA09011143DB
:102350000160608D002843D020462946324602F0B5
:10236000F1FE00287FF479AF616A206811F8012B33
:1023700082626162618D01396185218D013921851A
:10238000628D002AE5D00904E3D1816909060CD4E5
:10239000C7B1002D40D000BFFFF74EFD801BA84203
:1023A0003CD8206881690906F6D5618DB1F5807F3A
:1023B000C0D3A4F828B050F8041F524601EA08011F
:1023C000C3E700BF81690906EFD4816909065CBFD4
:1023D00081695FEA0161E8D481690906F2D5E4E721
:1023E00020462946324602F077FE00287FF435AFBA
:1023F00020682021C16142684EF60003CFF60063D9
:102400001A404260002084F8411084F8420084F8A9
:10241000400003B000F012B8FFF70EFD606C40F012
:1024200020006064202084F84100002084F84200ED
:1024300084F84000012003B000F000B830BCBDE8D3
:10244000C08F000010B540F21004C2F20004006812
:102450002168884208D0D4F8A810884216D005F028
:10246000BFFF002023E000BF41F23800C4F20200A9
:10247000016841F400110160016821F4001101605C
:10248000016A21F400110162002010E041F23800DD
:10249000C4F20200016841F400010160016821F406
:1024A00000010160016A21F400010162022054214F
:1024B00010FB0141B1F95020B1F852104FF47050A7
:1024C00000EA821002F00F02012301F00F0103FA6B
:1024D00002F203FA01F100F190401143BDE810400F
:1024E000FFF7F0BA10B586B040F21001C2F2000159
:1024F00000680A6890420BD04A6D904238D0D1F8FB
:10250000A82090426AD006B0BDE8104005F068BF30
:102510004DA3B1F85020D3E901CED3E90343B1F87C
:1025200052104FF4705000EA8210059301F00F0131
:10253000012302F00F0203FA01F103FA02F2114340
:1025400000F19040019101A9CDE902CE0494FFF77A
:1025500089FB41F25800C4F20200016841F4001105
:102560000160006800F400100090009806B010BDF3
:102570004AF68C73C0F60003B1F8A42003F1040EF0
:102580001B69B1F8A6104FF4705000EA8210059351
:1025900001F00F01012302F00F0203FA01F103FA27
:1025A00002F29EE81050114300F19040019101A900
:1025B0000294CDF80CC0CDF810E0FFF753FB41F2C8
:1025C0005800C4F20200016841F480010160006813
:1025D00000F480000090009806B010BD4AF68C739D
:1025E000C0F60003B1F8F82003F1040E1B69B1F83E
:1025F000FA104FF4705000EA8210059301F00F01B9
:10260000012302F00F0203FA01F103FA02F29EE83D
:102610001050114300F19040019101A90294CDF8AE
:102620000CC0CDF810E0FFF71DFB41F25800C4F2DA
:102630000200016841F400010160006800F400003C
:102640000090009806B010BD0000000012000000CD
:1026500001000000030000000400000040F2000040
:1026600040F2FC51C2F20000C2F2000140680A6868
:10267000104408607047000080B5032000F0F8F9AE
:10268000002000F009F800281CBF012080BD00F0E8
:1026900067F9002080BD0000B0B586B00146362045
:1026A0000022002400F0B8F9362000F0A1F941F230
:1026B0005800C4F20200016841F010010160006896
:1026C000694600F010000190019801A800F06CFD2F
:1026D000049D002D18BF012500F08EFD4DF683618D
:1026E000A840C4F21B31A0FB01014FF0FF3000EB0A
:1026F000914140F2B04041F20002C2F20000C4F247
:10270000000240F2E733C0E90021C0E9024304615E
:10271000846101F067FF18B1012006B0B0BD00BFB1
:1027200040F2B040C2F2000001F07AFF06B0B0BD46
:1027300070470000704700007047000070470000BD
:10274000704700007047000010B501680446086833
:10275000C0071CBF88685FEAC07031D10868800775
:1027600044BF88685FEA807032D40868400744BF7D
:1027700088685FEA407033D40868000744BF8868FF
:102780005FEA007034D40868C00644BF88685FEA16
:10279000C06035D40868800644BF88685FEA8060FE
:1027A00036D40868400646BF88685FEA406010BDBE
:1027B000402220464A60BDE81040FFF7C1BF00BF7D
:1027C000012048602046FFF7B7FF2168C6E700BF39
:1027D000022048602046FFF7ABFF2168C5E700BF35
:1027E00004204860204600F0B9F82168C4E700BF23
:1027F000082048602046FFF7A1FF2168C3E700BF1B
:10280000102048602046FFF795FF2168C2E700BF0F
:10281000202048602046FFF795FF2168C1E70000AF
:10282000002804BF012070472DE9F041044690F8CC
:10283000360028B9002084F83500204600F058F80A
:10284000022084F83600D4E900C2D4F828E0DCF88D
:102850000C00012A04D0BEF5000F03D14FF4000E86
:1028600020F01E006369A168D4E908564FF6FF778F
:1028700041F23818BB424FF2F817CFF6197818BF5B
:1028800000EA0800CFF6197729433840314308435E
:102890001043012A40EA0E0018BFBEF5000F03D115
:1028A000D4E90312114308434FF6FF718B4204D061
:1028B000D4E9061211431943084347F60041CCF806
:1028C0000C00C4F20001E06A8C4507D0CCF820006F
:1028D000012084F836000020BDE8F081226B10430F
:1028E0000862012084F836000020BDE8F081000075
:1028F00080B582B0006847F60041C4F2000188420A
:102900001CBF02B080BD41F25800C4F20200016851
:10291000002241F0004101600068002100F0004009
:1029200001900198412000F077F8412002B0BDE805
:10293000804000F05DB8000010B50446022084F825
:102940003600204602F058FC2068C16821F40021BE
:10295000C1600121002084F8361010BD70470000CE
:1029600080B582B041F25800C4F20200816841F0A3
:1029700001018160816801F0010101910199016803
:1029800041F080510160006800F080500090009894
:10299000032000F06DF86FF00B000021002200F022
:1029A0003BF86FF00A000021002200F035F86FF0CC
:1029B00009000021002200F02FF86FF00400002130
:1029C000002200F029F86FF003000021002200F03F
:1029D00023F86FF001000021002200F01DF84FF0F5
:1029E000FF300021002202B0BDE8804000F014B8A2
:1029F000002848BF7047C1B200F01F00012202FA50
:102A000000F04EF20012CEF2000242EAD10121F0B3
:102A1000030108607047000010B54EF60C5CCEF262
:102A2000000CDCF80030C3F3022E8EF00704042CF7
:102A300028BF0424BEF103034FF0FF3E0EFA04F456
:102A400038BF0023A14399400EFA03F39A43114380
:102A500000F00F0200F160430901043A03F56443FA
:102A60006244002848BF02F10C03197010BD000039
:102A70004EF60C51CEF200010A684FF6FF031A40E1
:102A800060F30A2242F0806040F0FD7008607047F9
:102A900047F2000CC4F2000CDCF8003002224EF6C3
:102AA000105162F30203CEF20001CCF800300A6844
:102AB000012842F004020A600FBF30BF40BF20BFB0
:102AC00020BF086820F004000860704747F200004B
:102AD000C4F20000006800F4C060704747F2040CC4
:102AE000C4F2000CDCF80030D0E9002023F00E0323
:102AF00040F200411A43C4F20101CCF800204A68B8
:102B0000C30322F480324A600A6822F480320A60E9
:102B1000CA6822F48032CA608A6822F480328A60ED
:102B200008D482030CD4C20710D1800714D400202B
:102B3000704700BF0A6842F480320A608203F2D50F
:102B40004A6842F480324A60C207EED08A6842F492
:102B500080328A608007EAD5C86840F48030C86057
:102B60000020704747F20400C4F20000016841F001
:102B700001010160704700002DE9F04782B0044672
:102B8000407841F288070007C4F2020730D5606E32
:102B90004FEAB05103290BD8DFE801F002101C25E1
:102BA000201D002102F02CFC064670B91AE000BF7F
:102BB00001266078C0060BD51EE000BF04F120009E
:102BC000002102F0D5FC064660B16078C00613D43F
:102BD000B2464EE057F87C1C41F4803147F87C1C2B
:102BE00001E000BF606E396821F44001084338609D
:102BF00000266078C006EBD5A06E4FEA306003284F
:102C00000AD8B246DFE800F002102216201D00218B
:102C100002F0F6FB0DE000BF4FF0010A4FF0010893
:102C2000A07880070DD528E004F12000002102F0F3
:102C30009FFC8246BAF1000FD04612D0A0788007E0
:102C40001BD4C2462168C80768D088E057F87C0CBE
:102C5000B24640F4803047F87C0CBAF1000FD04601
:102C6000ECD13868A16E20F0407008434FF0000AA4
:102C70003860B046A0788007E3D557F8300C10F0E4
:102C800080590BD157F8300C40F0805047F8300C89
:102C900057F8300C00F080500190019847F2000581
:102CA000C4F20005286840F480702860FFF7C4F87B
:102CB000064600BF2868C00508D4FFF7BDF8801B92
:102CC0000228F7D94FF0030A22E000BFBAF1000F43
:102CD0001ED1B86810F4407012D0D4F88410884225
:102CE0000BD0B868B96820F4407041F48031B96005
:102CF000B96821F48031B960B860C00740F01C8128
:102D0000B868D4F8841020F440700843C246B86014
:102D1000B9F1000F1AD02168C80720D1880726D43E
:102D200048072CD4080732D4C80638D488063ED4C5
:102D3000880544D448054AD4480650D4080656D4D9
:102D4000C8055CD4880462D473E000BF57F8300C27
:102D500020F0805047F8300C2168C807DED0386872
:102D6000A26B20F00300104338608807D8D538687C
:102D7000E26B20F00C00104338604807D2D5386869
:102D8000226C20F03000104338600807CCD538683A
:102D9000626C20F0C00010433860C806C6D53868A1
:102DA000A26C20F44070104338608806C0D53868A3
:102DB000E26C20F44060104338608805BAD538686A
:102DC000E26D20F44020104338604805B4D53868DF
:102DD000226E20F44010104338604806AED53868A3
:102DE000226D20F44050104338600806A8D538689A
:102DF000626D20F4404010433860C805A2D53868A1
:102E0000A26D20F4403010433860880411D53A6830
:102E1000E06E22F040620243B0F1806F3A601DD054
:102E2000B0F1006F05D157F87C0C40F4801047F8E2
:102E30007C0C080326D53A68206F22F040620243DA
:102E4000B0F1806F3A6015D0B0F1006F1AD157F829
:102E50007C0C40F4801047F87C0C13E0201D01210D
:102E600002F0CEFA2168002818BF82460803E2D497
:102E700008E000BF201D012102F0C2FA21680028ED
:102E800018BF8246480311D53A68606F22F040624D
:102E90000243B0F1806F3A601CD0B0F1006F05D1F1
:102EA00057F87C0C40F4801047F87C0C480425D57A
:102EB0003968A06F21F040510143B0F1005F3960E3
:102EC00014D0B0F1805F19D1201D022102F098FAD0
:102ED00011E000BF201D012102F092FA21680028B4
:102EE00018BF82464804E3D408E000BF04F1200084
:102EF000022102F03DFB002818BF82462068010431
:102F000006D4C0030CD4504602B0BDE8F08700BF21
:102F10003968E26F21F0804111433960C003F2D576
:102F20003868D4F8801020F00040084338605046DC
:102F300002B0BDE8F08700BFFEF77EFF064641F213
:102F400088354FF0030A00BFB86880073FF5D8AE58
:102F5000FEF772FF801BA842F6D9D9E62DE9F043AF
:102F600081B0002855D042F20009C4F2020904469B
:102F7000D9F800000D4600F0070088420CD2D9F8BD
:102F8000000020F007002843C9F80000D9F800002D
:102F900000F00700A8423CD1206841F20808C107B0
:102FA000C4F2020828D1810707D5D8F80010A2681A
:102FB00021F0F0011143C8F80010D9F8001001F019
:102FC0000701A9420CD9D9F8001021F007012943C3
:102FD000C9F80010D9F8001001F00701A94218D172
:102FE00041071BD4000723D4D8F80000D8F80410F8
:102FF00010F00C002CD131E0606800285ED002286F
:1030000000F07E80032840F0818058F8081C890178
:1030100058D4012001B0BDE8F08300BFD8F80010FB
:10302000E26821F4E0611143C8F800100007DBD525
:10303000D8F80000216920F4605040EAC100C8F8C7
:103040000000D8F80000D8F8041010F00C0005D0EB
:103050000C2829D101F00301012925D158F8081CB9
:10306000090703D4D8F88C10090A02E058F8081CA4
:1030700009094BF2000201F00F01C0F6000252F8FC
:10308000211000280A4618BF00220C286FD1D8F85A
:10309000040000F00300022844D0032804BF41F2DA
:1030A0000021C0F27A0141E0042855D0082859D106
:1030B00041F20022C0F27A0259E000BF58F8081C21
:1030C0008907A6D5D8F8001021F003010843C8F8F5
:1030D0000000FEF7B1FE064641F28837D8F800003E
:1030E000616800F00C00B0EB810F15D0FEF7A4FE74
:1030F000801BB842F2D9032001B0BDE8F08300BFC5
:1031000058F8081C89037FF584AFDBE758F8081CE2
:1031100049057FF57EAFD5E7206881073FF545AFCC
:103120004BE700BF42F20041C0F2F401D8F80400BE
:10313000D8F80420C0F30210C2F306225143D8F895
:1031400004200130B1FBF0F0C2F34161022202EB36
:103150004101B0FBF1F20AE042F20042C0F2F40297
:1031600005E000BF002200210C283FF490AFD8F802
:1031700000004AF6E871C0F30310C0F60001085CD5
:1031800000F01F0022FA00F140F20000C2F200003D
:1031900040F208020068C2F20002116001B0BDE80E
:1031A000F043FFF779BA00000F22026041F20802F3
:1031B000C4F20202136803F003034360136803F0D0
:1031C000F0038360136803F4E063C36012684FF494
:1031D000E06303EAD202026142F20000C4F202009C
:1031E000006800F0070008607047000040F2080027
:1031F000C2F200000068704740F2080041F2080186
:10320000C2F20000C4F20201006809684AF6F872CE
:10321000C1F30221C0F60002515C01F01F01C84059
:103220007047000040F2080041F20801C2F20000BD
:10323000C4F20201006809684AF6F872C1F3C221BB
:10324000C0F60002515C01F01F01C8407047000049
:1032500041F20C01C4F2020151F8040C10F00C020E
:10326000086805D00C2A29D100F00300012825D1D7
:1032700051F80C0C000703D4D1F88800000A02E0D2
:1032800051F80C0C00094BF2000300F00F00C0F6DF
:10329000000353F82030002A184618BF00200C2ADB
:1032A00018BF7047086800F00300022810D00328F8
:1032B00004BF41F20023C0F27A030DE0042A1FD0BC
:1032C000082A23D141F20020C0F27A00704700BFE3
:1032D00042F20043C0F2F40308680A68C0F3021027
:1032E000C2F30622096801305A43B2FBF0F0C1F381
:1032F0004161022202EB4101B0FBF1F0704700BFD7
:1033000042F20040C0F2F400704700BF00200023EA
:10331000C5E700002DE9F04383B0002800F0BA8231
:1033200041F200060446C4F20206B068F168227851
:1033300000F00C09D00601F003081DD42078C00766
:1033400000F08380B9F1080F78D0B9F10C0F08BFF5
:10335000B8F1030F72D06068B0F5803F07D0B0F5C8
:10336000A02F40F00F82306840F480203060306839
:1033700040F48030306010E2B9F1000F1ED0B9F196
:103380000C0F08BFB8F1010F18D0A16930680029EF
:1033900000F0628140F001003060FEF74DFD05460F
:1033A0003068800700F18081FEF746FD401B02284F
:1033B0004FF00300F4D903B0BDE8F0833068800714
:1033C00003D5A069002800F06582256A30680007EF
:1033D00000F10C81D6F89400000900F0F00085425D
:1033E00000F20A81306840F008003060306820F058
:1033F000F000284330607068E16920F47F4040EAC3
:1034000001207060B06DC00000F16081B06D40F0CF
:103410008050B065B06D00F0805002900298FFF7C8
:1034200055FBB16D21F08051B165B0F5007F00F022
:103430005381802D40F2D2810320E4E13068800383
:1034400003D56068002800F02582207880072DD5FC
:10345000B9F1040F1CD0B9F10C0F08BFB8F1020F7D
:1034600016D0E1683068002900F0A68140F4807031
:103470003060FEF7E1FC0546306840050FD4FEF7EA
:10348000DBFC401B02284FF00300F5D993E700BF97
:103490003068400503D5E068002800F0FB817068C3
:1034A000216920F0F85040EA016070602078000740
:1034B0004AD4207840075DD4A06A002840D0B9F1F2
:1034C0000C0F40F0DB80012800F0E481F068E16A35
:1034D00000F003028A4240F0DD81226B6FF00F039F
:1034E00000F0700103EB0212914240F0D381616B56
:1034F00000F4FE42B2EB012F40F0CC81A16B00F44E
:103500000032073918BF01218A4240F0C381E26BC3
:103510000023CFF6E07303EA025200F4C001A2F5E3
:103520000012914240F0B681216C4FF07E4202EAD7
:10353000016100F0C06001F17E41884240F0AA8143
:10354000002003B0BDE8F0836169D6F8940000293B
:103550006CD040F00100C6F89400FEF76DFC054603
:10356000D6F894008007A4D4FEF766FC401B02281E
:10357000F6D9E5E0B06D10F0805808D1B06D40F09C
:103580008050B065B06D00F080500090009847F218
:103590000007C4F200073868C00513D4386840F447
:1035A00080703860FEF748FC054600BF3868C005EB
:1035B00008D4FEF741FC401B02284FF00300F5D968
:1035C000F9E600BFA068012808D0052840F09A80DD
:1035D000D6F8900040F00400C6F89000D6F89000AD
:1035E00040F00100C6F890009BE000BF306800F09A
:1035F000F00085427FF6F6AEB06DC00074D4B06DB9
:1036000040F08050B065B06D00F08050019001989E
:10361000FFF75CFAB16D21F08051B165B0F5007F24
:1036200067D0802D40F2E480032002E120F0010009
:10363000C6F89400FEF700FC054600BFD6F89400DB
:1036400080077FF536AFFEF7F7FB401B02284FF0EF
:103650000300F3D9AFE600BF20F001003060FEF7B1
:10366000EBFB0546306880077FF568AEFEF7E4FBAC
:10367000401B02284FF00300F4D99CE63168022871
:1036800021F0807131605FD1FEF7D6FB054600BFA7
:103690003068800140F12C81FEF7CEFB401B0228F0
:1036A0004FF00300F4D986E6306840F0080030603F
:1036B0003068D4E9072120F0F000084330607068DA
:1036C00020F47F4040EA0220706037E6FFF7FEF901
:1036D000B0F5007F7FF4ADAE812DC0F09380012066
:1036E000A02D88BF02208EE0FFF7F0F9B0F5007F33
:1036F00097D1812DC0F09C800120A02D88BF022091
:1037000097E000BFD6F89010002821F00101C6F81C
:103710009010D6F8901021F00401C6F8901000F037
:103720002981FEF789FB054641F28837D6F89000DB
:10373000800700F13181FEF77FFB401BB842F5D9CD
:10374000032003B0BDE8F083306810F0205F03D1A0
:10375000F06820F00300F060F0684FF6FF71CFF6DC
:10376000EE610840F060FEF767FB044630688001B8
:103770007FF5E6AEFEF760FB001B02284FF003006A
:10378000F4D918E63168002821F4803131603168BD
:1037900021F48021316000F02181FEF74DFB0546C8
:1037A000306880033FF551AEFEF746FB401B6428AE
:1037B0004FF00300F4D9FEE520F480703060FEF78E
:1037C0003BFB0546306840057FF570AEFEF734FBE5
:1037D000401B02284FF00300F4D9ECE5A5F170007E
:1037E000B0FA80F04009802D08BF02200BE000BF36
:1037F000A5F17000B0FA80F04009802D08BF0220CA
:1038000017E000BF002042F20001C4F202010A6882
:1038100022F0070202440A60096801F007018142B0
:1038200038D1B068F16810F00C0026D12BE000BF51
:10383000002042F20001C4F202010A6822F00702ED
:1038400002440A60096801F00701814222D1306810
:1038500040F0080030603068D4E9072120F0F00023
:1038600008433060706820F47F4040EA02207060B6
:10387000B068F16810F00C0005D00C282CD101F0D4
:103880000301012928D13168090707D4D6F894101B
:10389000090A05E0012003B0BDE8F0833168090999
:1038A0004BF2000201F00F01C0F6000252F82110A5
:1038B00000280A4618BF00220C2840F0AA80F068B1
:1038C00000F00300022871D0032804BF41F2002158
:1038D000C0F27A016EE000BF042800F08F80082853
:1038E00040F0928041F20022C0F27A0291E000BFE3
:1038F000F06848F28C01CFF69D1104F12C0700EA24
:10390000010C8ECFD4E90F546FF00F0040F2000E7F
:1039100000EB0210CFF6E07E41EA0C010EEA0555FD
:103920004FF07E420843A5F5001502EA046240EA22
:10393000032002F17E420EF5F014284304EA4737D3
:1039400010433843F060306840F080703060F068B9
:1039500040F08070F060FEF76FFA04463068800136
:103960003FF5EEADFEF768FA001B02284FF00300AA
:10397000F4D920E5FEF760FA054641F28837D6F81B
:103980009000800708D5FEF757FA401BB8424FF069
:103990000300F4D90FE500BFB8F1000F7FF48CAD40
:1039A000B06D20F08050B06586E500BF42F2004166
:1039B000C0F2F401F068F268C0F30210C2F306220C
:1039C0005143F2680130B1FBF0F0C2F341610222D1
:1039D00002EB4101B0FBF1F21BE000BFFEF72CFA55
:1039E0000546306880037FF530ADFEF725FA401BB1
:1039F00064284FF00300F4D9DDE400BF42F2004236
:103A0000C0F2F40205E000BF002200210C283FF4C0
:103A100056AFB0684AF6E871C0F30310C0F6000173
:103A2000085C00F01F0022FA00F140F20000C2F230
:103A3000000040F208020068C2F200021160FEF7C6
:103A40002BFE00287FF4B7AC78E4000070B5044684
:103A500090F8200001284FF0020008BF70BD01213E
:103A600084F8201084F821002068CA214162532183
:103A70004162816821F480618160816821F4804124
:103A80008160FEF7D9F90546002600BF2168C868A5
:103A9000400709D4FEF7D0F9401BB0F57A7FF5D97D
:103AA00021680322032001E001220020FF234B6252
:103AB00084F8212084F8206070BD000090F8201068
:103AC00001294FF0020112D080F821100168CA22AA
:103AD0004A6253224A628A6842F020028A60FF22C8
:103AE0004A62012180F82110002180F82010084648
:103AF00070470000F0B581B0044690F8200001281E
:103B00004FF002004DD00E46012184F8201084F8B9
:103B100021002168CA2048625320486288681546FF
:103B200020F480608860C86860F4906020F4806051
:103B3000C860C868400611D4FEF77EF9074600BF8A
:103B40002168C868400709D4FEF776F9C01BB0F5B4
:103B50007A7FF5D92168032203201BE04E61886833
:103B600020F007002843886040F20040C4F20100C2
:103B7000026842F480120260826842F4801282601D
:103B80008868012240F480408860886840F4806042
:103B900088600020FF234B62002184F8212084F8F4
:103BA000201001B0F0BD00007047000010B50446C1
:103BB00040F21440C4F201004FF48011016020680B
:103BC000C168490508D5C16861F4906121F480613C
:103BD000C1602046FFF7E8FF012084F8210010BDF6
:103BE000B0B5044690F8200001284FF0020008BF4D
:103BF000B0BD012284F8202084F821002068CA2268
:103C00004262532242628268B1F5807F16D122F46B
:103C100080718160816821F480518160FEF70CF928
:103C2000054600BF2168C868C0071FD1FEF704F928
:103C3000401BB0F57A7FF5D914E000BF22F4007183
:103C40008160816821F400518160FEF7F5F8054636
:103C50002168C868800709D4FEF7EEF8401BB0F56C
:103C60007A7FF5D921680322032001E00020012298
:103C7000FF234B62002184F8212084F82010B0BD7E
:103C800010B5006840684FEA1043C0F3042E00F0FE
:103C90003F0CC0F34234CB7081F801E081F802C0E0
:103CA0000C700AB1002010BDDCB2240904EB8404BE
:103CB00003F00F0303EB4403020ACB704FEA1E1319
:103CC00043EA830302F00F0202EB43024A704FEA19
:103CD0001C1242EA820200F00F0000EB42008870E2
:103CE000002010BD10B50068836A4B6003696FF354
:103CF000DF338B600068C0F30543C0F3062E00F08D
:103D00007F0CC0F380540B7081F801E081F802C091
:103D1000CC700AB1002010BD020C1B0943EA8303DA
:103D200002F00F0202EB4302040A0A704FEA1E126D
:103D300002EB820204F00F0303EB42024A704FEAE7
:103D40001C1202EB820200F00F0000EB42008870B0
:103D5000002010BDB0B5002856D0044690F82100D0
:103D600028B9002084F82000204600F055F80220F1
:103D700084F821002168CA20486253204862C8683C
:103D8000400613D44FF0FF30C860FEF755F82168A5
:103D9000CA6852060AD40546FEF74EF8401BB0F535
:103DA0007A7F33D82168C8684006F5D588684FF611
:103DB000BF72CFF68F7210408860D4E9010CD4E94D
:103DC00003531843A3698A681843104388600D6140
:103DD000086940EA0C400861204601F089FC00288F
:103DE00018BFB0BD20686169E269C36C114323F05C
:103DF0000303C364C36C1943C164FF214162012002
:103E000084F821000020B0BD0120B0BD032084F85B
:103E100021002168C968B0BD80B541F29000C4F2AC
:103E200002000168002241F40041016003200021EA
:103E3000FEF7F2FD0320BDE88040FEF7D9BD00008B
:103E40002DE9F04381B0044690F8200001284FF09E
:103E5000020000F0F280012384F8203084F8210071
:103E60002068002A836803F0400203D042B9002290
:103E7000CA7007E0C2B94FF0000C81F803C016E029
:103E8000CA7892054F780B788E783F0247EA034351
:103E90003344CF691A4391F820304E693A4342EADD
:103EA000036216435EE000BFCA784FEA825C0D7879
:103EB0004FF0CD0EA5F10A07FBB203FB0EF3DE0AAD
:103EC0004A7806EB86064FF0010991F80280A7EBCD
:103ED000460609EBD323092D88BF46EA0315EBB24A
:103EE000A2F10A05EEB206FB0EF6F70A07EB87070A
:103EF000A5EB470509EBD626092A88BF45EA061235
:103F0000D2B2120242EA0342A8F10A03DDB205FB73
:103F10000EF5EE0A06EB860609EBD525A3EB460364
:103F2000B8F1090F88BF43EA051891F820505FFAED
:103F300088F31A44A5F10A03DEB206FB0EF7FE0A67
:103F400006EB8606A3EB460309EBD727092D88BFAE
:103F500043EA0715CB694F6943EA0C033B431A4315
:103F600042EA0566D1F804808F694A6ACA21416233
:103F7000532141628168B2F5807F17D121F48071AD
:103F80008160C16861F4C07121F48071C160FDF786
:103F900053FF05462168C868C00721D1FDF74CFFD3
:103FA000401BB0F57A7FF5D916E000BF21F400710F
:103FB0008160C16861F4207121F40071C160FDF776
:103FC0003BFF05462168C868800711D4FDF734FF20
:103FD000401BB0F57A7FF5D921680322032025E044
:103FE000CE6101F144024FF480504FF4807306E03B
:103FF00001F148024FF400504FF400730E6247EA9B
:10400000080717608A681A438A608A6810438860C4
:1040100040F20040C4F20100026842F480220260D3
:10402000826842F48022826000200122FF234B62DA
:10403000002184F8212084F8201001B0BDE8F0832D
:104040002DE9F041044690F8200001284FF00200CD
:1040500008BFBDE8F081012384F8203084F82100F6
:1040600032B14878CA788E78000240EA024841E0CE
:1040700048784FF0CD0CC20642BF00F0EF000A3086
:104080004870CA784FF0010EA2F10A03DFB207FBB5
:104090000CF7FD0A05EB8505A3EB45038E780EEBC7
:1040A000D727092A88BF43EA0712A0F10A03DFB223
:1040B00007FB0CF7FD0A05EB8505A3EB45030EEBAB
:1040C000D725092888BF43EA0510C0B2D2B2000242
:1040D00040EA0248A6F10A00C2B202FB0CF2D30A7F
:1040E00003EB8303A0EB43000EEBD222092E88BF23
:1040F00040EA02160F782168CA20486253204862BD
:10410000C868400614D44FF0FF30C860FDF794FE35
:104110002168CA6852060BD4054600BFFDF78CFE25
:10412000401BB0F57A7F21D82168C8684006F5D5D4
:10413000F0B240EA08007A0320F0C0001043486063
:10414000204601F0D5FA2168FF224A6220B1002101
:1041500084F82010BDE8F081012084F821000020BF
:10416000002184F82010BDE8F08100BF032084F80E
:1041700021002168CA68FF224A62002184F82010C9
:10418000BDE8F0812DE9F04381B0044690F82000AD
:1041900001284FF0020000F0AB800D46012184F8A9
:1041A000201084F821002168CA2048625320486208
:1041B000C8681646400614D44FF0FF30C860FDF7BB
:1041C0003BFE2168CA6852060BD40746FDF734FE51
:1041D000C01BB0F57A7F00F281802168C868400674
:1041E000F4D5886800F0400036B158B94FF0000CA3
:1041F00085F803C009E000BF70B94FF0000C85F8E6
:1042000003C00CE0E8784FEA805C6B782878AA78E5
:104210001B0243EA004340E0E8784FEA805C2B78D9
:104220004FF0CD0EA3F10A085FFA88F000FB0EF004
:10423000C60A06EB86066F78A8EB46064FF0010823
:10424000AA7808EBD020092B88BF46EA00135FFA52
:1042500083F9A7F10A03DEB206FB0EF6F00A00EBC3
:104260008000A3EB400008EBD623092F88BF40EA6B
:104270000317F8B2000240EA0943A2F10A00C6B2ED
:1042800006FB0EF7FE0A06EB8606A0EB460008EBDF
:10429000D727092A88BF40EA0712D0B2184347F649
:1042A0007F7240EA0C00C0F27F021040086088680C
:1042B00020F480208860D5E903028B6810431843FE
:1042C0008860204601F014FA2168FF224A6260B932
:1042D000012084F82100002007E000BF032084F8BB
:1042E00021002168CA68FF224A62002184F8201058
:1042F00001B0BDE8F0830000002804BF0120704732
:1043000010B50446022084F85D002068016821F0A1
:1043100040010160204600F05BF80020206684F830
:104320005D0084F85C0010BD002804BF01207047C8
:10433000B0B500258562044690F85D0020B920469E
:1043400084F85C5000F08AF8022084F85D00206850
:10435000D4F80CE00268BEF5E06F4EF4006322F082
:10436000400298BF0125B3F5706F02601CBF0022A8
:10437000A262226B4FEA053C2AB90123BEF5E06F29
:1043800088BF02232363D4E90135D4E904212B43F8
:104390001A43A369114303F40072E5691143226AC9
:1043A0002943A56A114329430160042101EA13410D
:1043B000626A636B41EA0C011143194341EA0E0141
:1043C000416000200121206684F85D10B0BD00002E
:1043D00010B540F20C14C2F2000400682168884253
:1043E00006D0216F88420DD003F0FAFF002012E0C2
:1043F00041F25800C4F20200816821F480518160CA
:10440000002008E041F25800C4F20200016821F4E3
:10441000804101600120C0EBC00004EB0011B1F944
:104420006820B1F86A404FF47050B1F86C1000EA9F
:10443000821002F00F02012304F00F0403FA02F2CB
:1044400003FA04F401F00F01224303FA01F100F131
:1044500090401143BDE81040FDF734BB10B586B065
:1044600040F20C11C2F2000100680A68904207D0C5
:104470000A6F90423CD006B0BDE8104003F0B0BFD8
:104480003DA3D3E901CED3E90343B1F86820CDE9D8
:104490000443B1F86A404FF47050B1F86C1000EA70
:1044A000821002F00F02012304F00F0403FA02F25B
:1044B00003FA04F401F00F01224303FA01F111435E
:1044C00000F19040019101A9CDE902CEFDF7CAFBB0
:1044D00041F25800C4F20200816841F480518160C9
:1044E000806800F480500090009806B010BD00BFB6
:1044F0001CA303F1040E9EE81050B1F8D8201B69EC
:104500000294B1F8DA404FF47050B1F8DC1000EAD0
:104510008210059302F00F02012304F00F0403FA46
:1045200002F203FA04F401F00F01224303FA01F14D
:10453000114300F19040019101A9CDF80CC0CDF8D4
:1045400010E0FDF78FFB41F25800C4F20200016851
:1045500041F480410160006800F4804000900098C0
:1045600006B010BD000000000200000000000000C6
:104570000300000005000000000000000200000031
:104580000000000002000000050000004EF21001D3
:10459000CEF200010A68042822F0040208BF0432A7
:1045A0000A60704770470000411E0020B0EB116F99
:1045B0001CBF012070474EF21002CEF20002516083
:1045C0004EF62351CEF20001F0230B7007219060CC
:1045D00011607047FFF7E6BF7047000070470000AA
:1045E00070470000002804BF0120704710B5044642
:1045F00090F83D0028B9002084F83C00204600F0E7
:104600000DF8022084F83D002068211D01F0FAF821
:10461000012084F83D00002010BD0000704700001C
:1046200000680722C168C0F2010241F00101C160C7
:1046300081681140062902D0B1F5803F02D10020E7
:10464000704700BF016841F0010101600020704720
:104650007047000010B5016804460869800744BF30
:10466000C8685FEA80703FD40869400744BFC868E3
:104670005FEA407044D40869000744BFC8685FEA35
:1046800000704BD40869C00644BFC8685FEAC060C8
:1046900050D40869C0071CBFC8685FEAC07057D112
:1046A0000869000644BFC8685FEA006058D408691A
:1046B000C00544BFC8685FEA006059D40869400675
:1046C00044BFC8685FEA40605AD40869800646BFA4
:1046D000C8685FEA806010BD6FF0200220460A6162
:1046E000BDE81040FFF77CBF6FF0020008610120B9
:1046F0002077886980074BD02046FFF7A9FF4DE05F
:104700006FF00400086102202077886910F4407F70
:1047100048D02046FFF79CFF4AE000BF6FF008003A
:10472000086104202077C869800745D02046FFF73C
:104730008FFF47E06FF01000086108202077C869FC
:1047400010F4407F42D02046FFF782FF44E000BFD4
:104750006FF001000861204600F046F821689FE7ED
:104760006FF0800008612046FFF738FF21689EE760
:104770006FF4807008612046FFF72EFF21689DE7E7
:104780006FF040000861204600F030F821689CE797
:10479000204600F025F8204600F024F8216800208B
:1047A000207761E7204600F01BF8204600F01AF859
:1047B0002168002020775EE7204600F011F82046AF
:1047C00000F010F82168002020775BE7204600F019
:1047D00007F8204600F006F821680020207758E707
:1047E0007047000070470000FDF738BF70470000B9
:1047F00070470000B0B5A8B1044624206067206867
:104800000025016821F001010160056045608560B7
:10481000204600F003F92846E5676567A56784F838
:104820007050B0BD0120B0BD7047000070B5016888
:104830000446C8690B688D6800F02F02202A03F037
:10484000200207D132B1216E21B32046BDE870406D
:10485000084700BF5FEA007C1EBF05F0010E03F4AD
:10486000907616EB0E0617D1C2020BD515F4800216
:1048700008D04FF4801220460A62BDE87040FFF76E
:10488000B7BF00BF02060FD513F080020CD0616ED7
:104890000029DAD170BD00BFC50718BF13F48073BB
:1048A00016D183071CD424E04006F3D513F0400052
:1048B00008BF70BD086820F040000860202000217B
:1048C000606720466166BDE8704000F0ABBA00BF8B
:1048D00001230B62E36F43F00103E367830708D50D
:1048E000BEF1000F05D002230B62E36F43F0040317
:1048F000E367430708D5BEF1000F05D004230B6220
:10490000E36F43F00203E367BCF1000F0BD542EA0B
:104910000E03B3FA83F35B0905D108230B62E36F3F
:1049200043F00803E367E36F002BB3D010F02000DF
:1049300018BF002A38D1E06F8A6800F0080002F042
:104940004002801806D12046FFF76EFF0020E06786
:1049500070BD00BF086820F490700860886820F07F
:10496000010088602020A06700202066886840063B
:1049700014D5886820F040008860E06E70B145F67C
:10498000B121C0F600018163FDF75CF800283FF417
:1049900081AFE06E816BBDE8704008472046BDE8FE
:1049A0007040FFF741BF00BF226E002AC3D02046EF
:1049B00090472168BFE7000010B5A0B10446406FE2
:1049C00028B9002084F87000204600F077F82420F1
:1049D00060672068016821F001010160204601F054
:1049E0006FF8012802D1012010BD00BF606A10B12C
:1049F000204600F0A7FF2168486820F490404860F6
:104A0000886820F02A008860086840F0010220468B
:104A10000A60BDE8104001F009B8000010B540F28E
:104A2000EC14C2F200040068216888420CD0D4F86B
:104A30008810884212D0D4F81011884218D003F0A0
:104A4000CFFC00201DE000BF41F25800C4F202007C
:104A5000816821F480418160002012E041F2580019
:104A6000C4F20200016821F400310160012008E075
:104A700041F25800C4F20200016821F48021016073
:104A8000022000EB001004EBC001B1F98420B1F862
:104A900086104FF4705000EA821002F00F020123DA
:104AA00001F00F0103FA02F203FA01F100F1904064
:104AB0001143BDE81040FDF705B8000010B586B001
:104AC00040F2EC1CC2F2000C0068DCF800209042BE
:104AD0000CD0DCF88810884240D0DCF810118842F5
:104AE00078D006B0BDE8104003F07ABC57A3D3E9F4
:104AF000011ED3E90343BCF88420CDE90443BCF88C
:104B000086304FF4705000EA8210CDE9021E02F0A8
:104B10000F01012203F00F0302FA01F19A40114341
:104B200000F19040019101A9FDF79CF8252000219A
:104B30000122FDF771FF2520FDF75AFF41F25800D1
:104B4000C4F20200816841F480418160806800F411
:104B500080400090009806B010BD00BF4AF6A072D9
:104B6000C0F6000202F1040E9EE81840BCF80C11D9
:104B700012690293BCF80E314FF4705000EA8110B4
:104B8000059201F00F01012203F00F0302FA01F177
:104B90009A40114300F19040019101A90394CDF88E
:104BA00010E0FDF75FF8262000210122FDF734FF19
:104BB0002620FDF71DFF41F25800C4F202000168F3
:104BC00041F400310160006800F40030009000986A
:104BD00006B010BD4AF6A072C0F6000202F1040E43
:104BE0009EE81840BCF8941112690293BCF8963103
:104BF0004FF4705000EA8110059201F00F0101227C
:104C000003F00F0302FA01F19A40114300F19040C2
:104C1000019101A90394CDF810E0FDF723F82720B6
:104C200000210122FDF7F8FE2720FDF7E1FE41F209
:104C30005800C4F20200016841F48021016000685C
:104C400000F480200090009806B010BD0000000025
:104C50000200000000000000020000000700000049
:104C60002DE9F04381B08146044659F8740F20289D
:104C70000DD10D4600294FF0010000F0CF801646FF
:104C8000002A00F0CB8094F87000012804D10220A3
:104C900001B0BDE8F08300BF012084F8700000205F
:104CA000E067212098466067FDF7C6F8A4F85060D9
:104CB000A4F85260A1680646B1F5805F02D1206970
:104CC000002869D02F460025B4F85200002869D08A
:104CD00018F1010038D0B8F1000F07D1216828E0A1
:104CE000FDF7AAF8801B404500F284802168C8695E
:104CF0000006F5D517B117F8010B04E035F8020BE3
:104D000000276FF35F200885B4F852000138A4F83B
:104D10005200B4F852000028E9D138E017F8010B2E
:104D20000885B4F852000138A4F85200B4F85200D3
:104D300068B3C86900065BD5002FEFD135F8020BC8
:104D400000276FF35F20EBE7216802E0C8690006E7
:104D500009D4C869000606D4C86900065CBFC869E2
:104D60005FEA0060F2D51FB117F8010B05E000BF44
:104D700035F8020B00276FF35F200885B4F8520066
:104D80000138A4F85200B4F852000028E1D1C869F3
:104D900040062BD40AE000BF0027B4F852000028D8
:104DA0007FF496AF2168C86940061FD4B8F1000FA0
:104DB0001ED018F1010013D1C869400616D4C86985
:104DC000400613D4C869400610D4C86940064FF0A5
:104DD0000000F1D51CE000BF2068C069400605D482
:104DE000FDF72AF8801B4045F6D903E000200FE0CC
:104DF000FDF722F8206804F17809016821F4D071E8
:104E00000160816821F0010181602020606703203A
:104E10002021C9F80010002184F8701001B0BDE80D
:104E2000F0830000704700004BF2EB40C0F600003A
:104E300003F020FB4BF2C630C0F6000003F01AFB73
:104E400006A003F017FB4BF24800C0F6000003F089
:104E500011FBEFF3108072B600F09CFF48617264A2
:104E60004661756C745F48616E646C65720A0D0012
:104E700070B50446006815468369DA065CBF0020F9
:104E800070BD0E468169890610D4002E40D0711C79
:104E900036D18169890609D4816989065CBF816937
:104EA0005FEA816102D481698906F2D51021C1616E
:104EB0002021C1618169890744BF00218162816924
:104EC000C90703D1816941F00101816141684EF652
:104ED0000002CFF60062114041600420616C08437B
:104EE0006064202084F84100002084F8420084F8A7
:104EF0004000012070BD00BF206881698906D5D4BB
:104F0000FCF79AFF401BB042F6D92020E6E700BF2D
:104F1000FCF792FF2020E1E72DE9F041044600680C
:104F20001D461746426849F60003C7F600431A407B
:104F30006FF39F21EBB241EA03411144DDF81C807D
:104F4000069E41F0004141F4005141602046314647
:104F5000424600F0F7F818B10120BDE8F08100BF2B
:104F60002168012D09D0380A886220463146424620
:104F700000F0E8F80028EFD12168F8B2886288696B
:104F8000400623D436B3701C18D1886940061DD45E
:104F9000886940065CBF88695FEA406016D488690A
:104FA00040064FF00000F0D523E000BF2068806984
:104FB00040064FF0000048BFBDE8F081FCF73CFF21
:104FC000A0EB0800B042F1D906E000BF0020BDE828
:104FD000F08100BFFCF730FF606C40F0200060649F
:104FE000202084F84100002084F8420084F840002A
:104FF0000120BDE8F08100002DE9F0410446006881
:105000001D461746426849F60003C7F600431A409A
:105010006FF39F21EBB241EA03411144DDF81C809C
:10502000069E41F0014141F4005141602046314665
:10503000424600F087F818B10120BDE8F08100BFBA
:105040002168012D09D0380A88622046314642463F
:1050500000F078F80028EFD12168F8B288628869FA
:10506000000623D436B3701C18D1886900061DD4FD
:10507000886900065CBF88695FEA006016D48869A9
:1050800000064FF00000F0D523E000BF20688069E3
:1050900000064FF0000048BFBDE8F081FCF7CCFEF1
:1050A000A0EB0800B042F1D906E000BF0020BDE847
:1050B000F08100BFFCF7C0FE606C40F0200060642F
:1050C000202084F84100002084F8420084F8400049
:1050D0000120BDE8F081000070B51546044689B195
:1050E0000E4600BF20688069800619D420463146EC
:1050F0002A46FFF7BDFE88B9FCF79EFE401BB04272
:10510000F0D911E020688069800644BF002070BD9E
:10511000204600212A46FFF7ABFE18B1012070BDE2
:10512000002070BDFCF788FE606C40F020006064D9
:10513000202084F84100002084F8420084F84000D8
:10514000012070BD70B5044600688069800710D4E6
:1051500015460E4611B3701C17D100BF20464FF004
:10516000FF312A46FFF784FEF0B920688069800786
:10517000F4D5002070BD00BFFCF75EFE401BB042BE
:1051800016D8206880698007F3D4204631462A4625
:10519000FFF76EFE0028EFD006E000BF204600219A
:1051A0002A46FFF765FE08B1012070BDFCF744FEFA
:1051B000606C40F020006064202084F841000020F2
:1051C00084F8420084F84000012070BDB0B540F280
:1051D0007045C2F2000505F108042046FDF7B4FA57
:1051E0002046FDF7A9FB6968002908BFB0BD286803
:1051F000BDE8B040084700002DE9F04F83B00446F9
:10520000EFF3108072B6216849F2004541F2880937
:10521000C4F2000547F60047C4F20209A942C4F2ED
:1052200000071FD0B94239D1D9F800208E68D1F8D3
:105230000CA04869D1F818B0D1F8208059F8503C3A
:1052400002F4402C43F0004349F8503C59F8503CDC
:1052500023F0004249F8502C50EA0B0200F08780FE
:1052600029E000BFD9F800208E68D1F80CA0486969
:10527000D1F818B0D1F8208059F84C3C02F4401C09
:1052800043F0200349F84C3C59F84C3C23F02002F1
:1052900049F84C2C50EA0B0269D00CE08E68D1F82A
:1052A0000CA04869D1F818B0D1F820804FF0000C5C
:1052B00050EA0B025BD0B94204D0A94209D16FF485
:1052C000401201E06FF44022D9F800301A40C9F8CA
:1052D0000020CDF808C0C8B10A6942F001020A6195
:1052E0004861FCF7A9FD0546FCF7A6FD21680A68A0
:1052F000120703D4401BB0F57A7FF5D90820486027
:1053000049F20045DDF808C0C4F20005BBF1000F0A
:105310001CD0CDF804800869D04640F00100AA46B0
:105320000861C1F818B0FCF787FD0546FCF784FD5D
:1053300021680A68D20603D4401BB0F57A7FF5D9FC
:10534000102048605546C246DDE9018CB94205D0BF
:10535000A9420CD16FF4401002E000BF6FF440206E
:10536000D9F80020104040EA0C00C9F80000086994
:1053700020F0010008618E60C1F80CA0C1F8208007
:1053800062B603B000F000B830BCBDE8C08F0000CA
:105390004BF2EB4047F21404C0F60000C4F20004E4
:1053A00003F068F84BF2C630C0F6000003F062F874
:1053B0000DA003F05FF84BF24800C0F6000003F0C8
:1053C00059F82068000509D52068000544BF206809
:1053D0005FEA005002D520680005F2D4EFF3108098
:1053E00072B600F0D7FC00BF5056445F50564D5F78
:1053F00049525148616E646C65720A0D00000000EC
:10540000F0B581B041F20007C4F20207FA680D4618
:105410009107044614D0F868216800F00300884220
:105420004FF0010040F0A180002900F09E80F86854
:105430006168C0F302100130884232D134E000BF0D
:10544000206803280CD0022816D0012829D13968F9
:10545000012211F0020182EA510116D120E000BFC1
:105460003968890310D43968012211F4802182EA55
:1054700091410AD114E000BF3968012211F4806122
:1054800082EA912101D10BE00021FA6863686FF094
:105490000F0622F0730206EB03131A431043F86061
:1054A00011B1012001B0F0BD386820F08060386093
:1054B000FCF7C2FC064600BF3868000106D5FCF7C1
:1054C000BBFC801B0228F7D946E000BF012D0FD09E
:1054D00005BB386948F2FF01CFF6FD710840D4E9F9
:1054E00002120023CFF6FE7303EA423220E000BF2F
:1054F00048F2FF013869CFF6FF112269002301F15C
:10550000B461CFF6E0730840A16803EA0252A2F545
:1055100000120DE0386948F2FF016269CFF6FF1111
:105520004FF07E430840A16803EA026202F17E4226
:1055300040EA012010433861386840F080603860EC
:10554000FCF77AFC054600BF3868000108D4FCF778
:1055500073FC401B0228F7D9032001B0F0BD00BF47
:10556000A069396908433861002001B0F0BD00002E
:10557000F0B581B041F20007C4F20207FA680D46A7
:105580009107044614D0F868216800F003008842AF
:105590004FF0010040F08D80002900F08A80F8680B
:1055A0006168C0F302100130884219D136E000BFB3
:1055B0002068032818D002280AD0012810D13968A1
:1055C000012211F0020182EA510108D019E000BF66
:1055D0003968012211F4806182EA912111D1E9B187
:1055E000012001B0F0BD00BF3968890308D43968D3
:1055F000012211F4802182EA9141F0D001E000BF44
:105600000021FA6863686FF00F0622F0730206EB60
:1056100003131A431043F8600029E1D1386820F0E1
:1056200080503860FCF708FC064600BF38688000F0
:1056300006D5FCF701FC801B0228F7D930E000BF3B
:105640007969A0684FEA002065B148F2FF02CFF601
:10565000FF12114022694FF07E4303EA026202F119
:105660007E420AE048F2FF02CFF6FD721140E26886
:105670000023CFF6FE7303EA4232084310437861F9
:10568000386840F080503860FCF7D6FB054600BF14
:105690003868800008D4FCF7CFFB401B0228F7D9FC
:1056A000032001B0F0BD00BF6069796908437861EB
:1056B000002001B0F0BD000040F21440C4F201002F
:1056C0004FF48021016040F20840C2F20000806A7D
:1056D0008168C90446BFC1685FEAC1517047C168AB
:1056E00061F4C07121F48071C16004F027BF000033
:1056F00070B542F60806C4F200067168044621F04F
:10570000800171603168890616D42068C16821F073
:10571000A001C160FCF790FB054600BF2068C0688F
:10572000800627D4FCF788FB401BB0F57A7FF5D9BB
:10573000032084F8210070BD306820F02000306024
:105740002068C16821F0A001C160FCF775FB054627
:105750002068C06880060FD4FCF76EFB401BB0F5D4
:105760007A7FF5D9032084F82100316841F02001C7
:10577000316070BD002070BD0020316841F0200113
:10578000316070BD40F20840C2F200002830FEF7E0
:105790000DBA000080B5FCF761FFBDE88040FEF760
:1057A00019BF00004EF68850CEF2000001684FF09D
:1057B000000C41F47001016041F20001C4F20201E9
:1057C0000A6842F001020A60C1F808C00B684FF68F
:1057D000FF72CEF6F6221A400A604FF48052CA6079
:1057E0000A6822F480220A60C1F818C04FF00061F4
:1057F00040F8801C7047000040F2B040C2F2000048
:10580000FEF728BF80B540F6FF330268C4F20003FC
:1058100098422DDCB0F1804F3CD040F20043C4F2FE
:105820000003984236D040F60003C4F200039842C9
:1058300030D042F6FF33C4F20103984234DD43F620
:10584000FF73C4F2010398423EDD44F20003C4F248
:105850000103984252D044F60003C4F20103984277
:105860004CD044F20043C4F20103984246D049E0D0
:1058700040F60043C4F2000398420BD043F20043C9
:10588000C4F20103984205D042F60043C4F201037A
:105890009842CED14B6822F070021A4342F6FF3391
:1058A000C4F201039842CADC40F2FF73C4F2000361
:1058B000984217DCB0F1804F20D040F20043C4F290
:1058C000000398421AD01DE042F60043C4F20103DF
:1058D000984213D043F20043C4F2010398420DD022
:1058E00010E000BF40F60003C4F20003984205D068
:1058F00040F60043C4F20003984203D1CB6822F47F
:1059000040721A434B6922F0800E8A6843EA0E0304
:10591000D1F800C00360C262A0F18042A2F59632C5
:105920004FEAB222072AC0F828C007D8012303FA99
:1059300002F212F0E50F1CBF096901630121416108
:1059400080BD000080B5416ACA070DD18A0716D410
:105950004A071FD40A0728D4CA0631D48A063AD483
:105960004A0658D542E000BF0268D0F828C0536804
:1059700023F4003343EA0C0353608A07E8D5026836
:10598000D0F82CC0536823F4803343EA0C035360EF
:105990004A07DFD50268D0F830C0536823F480236B
:1059A00043EA0C0353600A07D6D50268D0F834C026
:1059B000536823F4004343EA0C035360CA06CDD571
:1059C0000268D0F838C0936823F4805343EA0C038C
:1059D00093608A06C4D50268D0F83CC0936823F46B
:1059E000005343EA0C0393604A0614D50268D0F8CA
:1059F00040C05368BCF5801F23F4801343EA0C03B6
:105A0000536008D1D2F804C0D0F844E02CF4C003AD
:105A100043EA0E035360090658BF80BD0168806CDD
:105A20004A6822F400221043486080BD70B50446E5
:105A30000020E067FCF700FA216805460A681207B3
:105A40000ED5C86980020BD4002600BFFCF7F4F91C
:105A5000401B2168B6EB506F18D1C8698002F5D59C
:105A60000868400702D4002619E000BFC869002674
:105A7000400214D4FCF7E0F9401B2168B6EB506FEC
:105A800004D1C8694002F5D5002608E0086803265D
:105A900020F4D0700860886820F001008860202021
:105AA0006067A0670021304684F8701070BD000068
:105AB000806A0021A0F85A10A0F85210FEF7B4BE78
:105AC000B0B5044604F108052ECD0068194341EA3B
:105AD0000503D4F81CC0056846F6F311CEF6FF7135
