:020000040800F2
:10000000180800209D010008A5010008A7010008AC
:10001000A9010008AB010008AD01000800000000C4
:10002000000000000000000000000000AF01000818
:10003000B101000800000000B3010008B50100088C
:10004000B7010008B7010008B7010008B7010008B0
:10005000B7010008B701000869070008FD0800089B
:100060004109000885090008C9090008B70100080E
:10007000B7010008B7010008B7010008B701000880
:10008000B7010008B7010008B7010008B701000870
:10009000B7010008B7010008B70100080D0A000801
:1000A000B7010008B7010008B7010008B701000850
:1000B000B7010008B7010008B7010008B701000840
:1000C000B7010008B7010008B7010008B701000830
:1000D000B7010008B701000811120008B7010008B5
:1000E000AD070008B7010008B7010008B701000814
:1000F000B7010008B7010008B7010008B701000800
:10010000B7010008B7010008B7010008B7010008EF
:10011000B7010008B7010008B7010008B7010008DF
:10012000B7010008B7010008B7010008B7010008CF
:10013000B7010008B7010008B7010008B7010008BF
:10014000B7010008E5100008B7010008B701000872
:10015000B7010008B7010008B7010008B70100089F
:10016000B7010008B7010008B7010008B70100088F
:10017000B7010008B7010008B7010008000000003F
:10018000B7010008B7010008DFF80CD000F06AFAE8
:1001900000480047C52F000818080020064880477F
:1001A00006480047FEE7FEE7FEE7FEE7FEE7FEE75C
:1001B000FEE7FEE7FEE7FEE7FD1100088901000803
:1001C0002DE9F05F0546002092469B46884606468C
:1001D000814640241BE0284641464746224600F01F
:1001E0006EF853465A46C01A914110D3114618462C
:1001F000224600F055F82D1A67EB01084F462246BB
:100200000120002100F04CF817EB00094E41201EA0
:10021000A4F10104DFDC484631462A46434600F09B
:1002200000B830BCBDE8C09FD2B201E000F8012B9D
:10023000491EFBD270470022F6E710B513460A4666
:1002400004461946FFF7F0FF204610BD421C10F887
:10025000011B0029FBD1801A704730B504460020ED
:10026000034600E05B1C934203D2E05CCD5C401B84
:10027000F8D030BD30B50B460146002020220124C5
:1002800009E021FA02F59D4205D303FA02F5491B64
:1002900004FA02F52844151EA2F10102F1DC30BD7A
:1002A000202A04DB203A00FA02F100207047914036
:1002B000C2F1200320FA03F3194390407047202A2B
:1002C00004DB203A21FA02F00021704721FA02F300
:1002D000D040C2F1200291400843194670472DE9F1
:1002E000FE4F804681EA0300C00F0C46009021F0CB
:1002F000004123F00045B8EB0200A94105D2404679
:10030000214690461C460B46024623F0004010430F
:1003100047D0270DC7F30A00C3F30A510290401AD1
:10032000019040286BDAC3F3130040F4801B00985F
:10033000924620B10023D2EB030A63EB0B0B01982A
:100340005946C0F140025046FFF7AAFF06460D4647
:1003500050465946019A00F097F910EB08006141A8
:10036000002487EA115284EAE7731A4340D0009AC6
:1003700062B3019A012A4FEA075215DC001B61EBB8
:1003800002014FF0004202EA0752CDE90042001C90
:1003900041F5801132462B4600F097F903B000F08A
:1003A00045B840462146F9E7001B61EB0201001CFD
:1003B00041F5801300185B412018A2F5001747EBA8
:1003C000030140EAD570B6196D4111E06D084FEA9E
:1003D000360645EAC0754FEA0752001B61EB020181
:1003E000001C41F5801149084FEA300000195141C5
:1003F00032462B4603B000F01CB800F057B9009805
:10040000012240000023D0EB020263EBE07300986E
:1004100021464FEAE074B8EB000061EB0401E9E724
:1004200083F000435BE781F0004158E730BCBDE852
:10043000C08F30BCBDE8C04FFFF7DFBF2DE9FE4FD6
:1004400081EA030404F0004421F0004100944FF0DD
:10045000000B23F0004350EA01045ED052EA03048B
:100460005BD0C3F30A54C1F30A552C44A4F2F3340D
:100470000194A0FB0254C1F3130141F48011C3F3B2
:10048000130343F4801301FB024400FB034E840A70
:10049000970A44EA815447EA8357A4FB0768029508
:1004A0008D0A05FB07854FEA932C04FB0C542705A6
:1004B000029D4FEA065847EA1637B5EB08056EEB82
:1004C000070C870E920E47EA811742EA8312A7FBB8
:1004D0000201B6EB0B0164EB00042B0D43EA0C3375
:1004E0005E1844EB1C50DA465146E7FB0201C5F3A7
:1004F00013044FEA0B3343EA14534FEA0432019CCE
:1005000043EA0603A4F10C040294009CCDE900B474
:1005100000F0DBF803B000F003B800200146F9E773
:1005200030BCBDE8C08F2DE9F04D81EA030404F032
:10053000004B21F0004514464FF0000A23F0004123
:1005400050EA050220D054EA01021DD0C5F30A5733
:100550000246C5F31303C1F31300C1F30A5640F476
:10056000801543F48013A7EB0608101BD64608F24B
:10057000FD3873EB050002D308F1010801E0921881
:100580005B41B8F1000F03DA00200146BDE8F08DB1
:1005900000204FF48011064684460EE0171B73EBD3
:1005A000050705D3121B63EB050306434CEA010C58
:1005B00049084FEA300092185B4150EA0107EDD13B
:1005C00052EA030012D082EA040083EA05010843DC
:1005D00005D0101BAB4106D20122002306E0002209
:1005E0004FF0004302E06FF0010253101AEB0600D7
:1005F0004CEB085110EB0A0041EB0B01BDE8F04D4C
:1006000000F054B8C1F30A52C1F3130140F2FF33B2
:1006100041F480119A4202DA00200146704740F20C
:1006200033439A42A2F2334202DC5242FFF747BE02
:10063000FFF736BE30B5041E71F1000404DB4FF045
:100640000044404264EB0101141E73F1000405DB19
:100650001C464FF00043524263EB0403994208BF2B
:10066000904230BD064C074D06E0E06840F00103C3
:1006700094E8070098471034AC42F6D3FFF788FDA2
:10068000405A0008605A0008202A06DBCB17203A9F
:1006900041FA02F043EAE07306E041FA02F3D04087
:1006A000C2F12002914008431946704710B5141E4C
:1006B00073F1000408DA401C41F1000192185B411B
:1006C0001A4301D120F0010010BD2DE9F04D9246F2
:1006D0009B4611B1B1FA81F202E0B0FA80F2203209
:1006E0009046FFF7DDFD04460F4640EA0A0041EA66
:1006F0000B0153465A46084313D0114653EA0100F2
:1007000019D0C8F140025046FFF7D9FD05460E4604
:10071000504659464246FFF7C3FD084305D0012025
:1007200004E020463946BDE8F08D0020054346EA46
:10073000E0762C4337430A986305E40AA0EB0800EF
:100740000022FD0A44EA47540A3002D5002001463F
:10075000E9E7010510196941DDE90845001969411A
:10076000BDE8F04DA2E7000040F21440C4F20100E1
:100770000168C90708BF70470121016040F2880184
:100780000020C2F2000103E03030B0F5407F0BD012
:100790000A189368012BF7D1137C002BF4D09369CE
:1007A000002BF1D0D069184770470000B0B540F277
:1007B0001445C4F20105286840F288044005C2F2DD
:1007C000000416D54FF480602860002004E000BFCC
:1007D0003030B0F5407F0CD021188A68B2F5806FB8
:1007E000F6D10A7C002AF3D08A69002AF0D0C869C1
:1007F00090472868000516D54FF400602860002057
:1008000004E000BF3030B0F5407F0CD021188A687A
:10081000B2F5006FF6D10A7C002AF3D08A69002A6B
:10082000F0D0C86990472868C00416D54FF48050AE
:100830002860002004E000BF3030B0F5407F0CD0CD
:1008400021188A68B2F5805FF6D10A7C002AF3D0BD
:100850008A69002AF0D0C86990472868800416D5B4
:100860004FF400502860002004E000BF3030B0F5A5
:10087000407F0CD021188A68B2F5005FF6D10A7C5F
:10088000002AF3D08A69002AF0D0C8699047286806
:10089000400416D54FF480402860002004E000BFDB
:1008A0003030B0F5407F0CD021188A68B2F5804F07
:1008B000F6D10A7C002AF3D08A69002AF0D0C869F0
:1008C00090472868000458BFB0BD4FF4004028602E
:1008D000002003E03030B0F5407F0ED021188A6848
:1008E000B2F5004FF6D10A7C002AF3D08A69002ABB
:1008F000F0D0C869BDE8B0401047B0BD40F2144028
:10090000C4F201000168890758BF704702210160E5
:1009100040F288010020C2F2000103E03030B0F55F
:10092000407F0BD00A189368022BF7D1137C002B61
:10093000F4D09369002BF1D0D069184770470000BC
:1009400040F21440C4F201000168490758BF7047E3
:100950000421016040F288010020C2F2000103E09E
:100960003030B0F5407F0BD00A189368042BF7D1D4
:10097000137C002BF4D09369002BF1D0D069184779
:100980007047000040F21440C4F2010001680907FA
:1009900058BF70470821016040F288010020C2F270
:1009A000000103E03030B0F5407F0BD00A189368A7
:1009B000082BF7D1137C002BF4D09369002BF1D0D6
:1009C000D06918477047000040F21440C4F201009B
:1009D0000168C90658BF70471021016040F28801C4
:1009E0000020C2F2000103E03030B0F5407F0BD0B0
:1009F0000A189368102BF7D1137C002BF4D093695D
:100A0000002BF1D0D069184770470000B0B540F214
:100A10001445C4F20105286840F288048006C2F239
:100A2000000413D520202860002003E03030B0F50A
:100A3000407F0BD021188A68202AF7D10A7C002A2F
:100A4000F4D08A69002AF1D0C86990472868400626
:100A500014D540202860002004E000BF3030B0F5FD
:100A6000407F0BD021188A68402AF7D10A7C002ADF
:100A7000F4D08A69002AF1D0C86990472868000636
:100A800014D580202860002004E000BF3030B0F58D
:100A9000407F0BD021188A68802AF7D10A7C002A6F
:100AA000F4D08A69002AF1D0C86990472868C00547
:100AB00015D54FF480702860002003E03030B0F589
:100AC000407F0CD021188A68B2F5807FF6D10A7C6D
:100AD000002AF3D08A69002AF0D0C86990472868B4
:100AE000800558BFB0BD4FF400702860002003E0BF
:100AF0003030B0F5407F0ED021188A68B2F5007F03
:100B0000F6D10A7C002AF3D08A69002AF0D0C8699D
:100B1000BDE8B0401047B0BD80B5017A036840F22F
:100B2000004EC4F2010E89B14BB3417A022929D09B
:100B300001292BD0B9BBDEF804109943CEF804107C
:100B4000DEF800101943CEF8001029E0DEF800109E
:100B50004FF0000C9943CEF80010DEF804109943D2
:100B6000CEF804104068DEF820108143CEF8201043
:100B7000DEF8241021EA0000CEF8240063E04FF0F4
:100B8000000C35E0DEF80010194302E0DEF800103A
:100B90009943CEF80010DEF804101943CEF8041083
:100BA0004FF0000C01E04FF0010C817A03290ED8C0
:100BB000DFE801F01E021014DEF80C109943CEF8A5
:100BC0000C10DEF808101943CEF8081010E00CF1F4
:100BD000020C0DE0DEF80810994302E0DEF8081080
:100BE0001943CEF80810DEF80C101943CEF80C109B
:100BF000436843B3417A02290DD001290FD0C9B906
:100C0000DEF824109943CEF82410DEF820101943A2
:100C1000CEF8201010E0DEF82010194302E0DEF8D4
:100C200020109943CEF82010DEF824101943CEF896
:100C3000241001E00CF1040C807A032805D8DFE8C9
:100C400000F002061216604680BD012080BDDEF86D
:100C50002C009843CEF82C00DEF828001843CEF87C
:100C60002800604680BDDEF82800984302E0DEF8E8
:100C700028001843CEF82800DEF82C001843CEF8E0
:100C80002C00604680BD00002DE9F04F0C6894FAFE
:100C9000A4F2B2FA82F234FA02F360D04FF0010803
:100CA0004FF0030C4FF00F0E19E095FAA5F5B5FAC9
:100CB00085F54B69466AAD000EFA05F7BE43AB40B9
:100CC000334343624B6805686FEA09063540A34029
:100CD0002B4303600C68013234FA02F33FD008FA68
:100CE00002F314EA0305F5D0D1F804B0ABF1010327
:100CF000012B16D895FAA5F6B6FA86F6D0F8089024
:100D000076000CFA06F329EA0309D1E9023AB34066
:100D100043EA090383604368A3430AFB04F42343C3
:100D2000436095FAA5F3B3FA83F30E69C7685C00D4
:100D30000CFA04F927EA0907A6403E43BBF1020F6B
:100D4000C660BFD12D0AB0D14D69066A9B000EFA6C
:100D500003F7BE4305FA03F333430362B2E700200F
:100D600000F000B830BCBDE8C08F000044F6D3519D
:100D7000C1F26201A0FB01014FF0FF3000EB9110C6
:100D80004EF21001CEF2000148600020886005207C
:100D900008607047B0B541F208050446C028C4F2A7
:100DA00002051CD1D5F88000C0F38110DFE800F007
:100DB000022A192300F0AEF9296845F21C022B68BB
:100DC000C1F30311C0F60002515CC3F3022245F2E5
:100DD0002C03C0F600039A5CC840D04014E0002009
:100DE00012E055F8080C42F200414005C0F2F4014F
:100DF00001EAE07008E0D5F888004FF4004101EA0C
:100E0000803001E000F086F9B4F5407F18BFB0BD36
:100E1000D5F88010C1F30121DFE801F00228172185
:100E200000F078F9296845F21C022B68C1F3031120
:100E3000C0F60002515CC3F3022245F22C03C0F657
:100E400000039A5CC840D040B0BD55F8081C490565
:100E500042F20041C0F2F40148BF0846B0BDD5F8E7
:100E60008810890748BF4FF40040B0BDBDE8B040CE
:100E700000F050B910B530281FD00C2829D0032815
:100E80001CBF002010BD41F20804C4F20204D4F8D3
:100E9000800000F00300DFE800F0024E3D4700F064
:100EA00039F9216845F21C02C1F30311C0F60002B2
:100EB0002368515CC3F3C22224E041F20804C4F267
:100EC0000204D4F88000C0F30110DFE800F00E3413
:100ED000232D41F20804C4F20204D4F88000C0F3C8
:100EE0008100DFE800F00228172100F013F92168E3
:100EF00045F21C02C1F30311C0F600022368515CE5
:100F0000C3F3022245F22C03C0F600039A5CC840EA
:100F1000D04010BD54F8080C42F200414005C0F228
:100F2000F40101EAE07010BDD4F888004FF40041EC
:100F300001EA803010BDBDE8104000F0EBB80000C1
:100F40002DE9F0470268520644BF0120BDE8F08752
:100F500002684FF6BF73D1E9008E22EA030CD1E993
:100F6000024A4CEA0805D1E9046745EA0E05D1E9D1
:100F7000063245EA0A052E433343D1F820901A433E
:100F80003A4342EA09020260426840F604739A4317
:100F900042EA174200232243B3EBD42F426003D12D
:100FA000426842F480524260B9F5005F1CBF0020E5
:100FB000BDE8F087898C01610020BDE8F087000062
:100FC00040F20001C2F2000108607047B0B504466B
:100FD0000068C00766D10D46206846F6F311CEF6CC
:100FE000FF7100EA010ED5E9011CD5E9033241EA9F
:100FF0000E01A8691943114308432060606820F47A
:10100000405040EA0C0060606869A16821F44071BA
:101010000843A06044F6FF30C4F2000084424FF061
:10102000000013DD44F60041C4F200018C421BD0E5
:1010300045F20001C4F200018C4217D043F60001D2
:10104000C4F201018C4215D1032016E044F20041A4
:10105000C4F200018C420FD044F60001C4F200013A
:101060008C4207D1302008E0C02001E04FF44070EE
:10107000FFF790FE20B915E00C20FFF7FBFE88B1CA
:10108000296879B1AA69B2F5004F0DD14A0802EB7F
:101090004000B0FBF1F04FF6F0710140C0F34200A8
:1010A000084406E00120B0BD00EB5100B0FBF1F0B8
:1010B00080B2E0600020B0BD81B04EF21001CEF2EF
:1010C00000010A6801300092009A28BF4FF0FF30FB
:1010D00030B100BF0A68D20300EBE2700028F9D1FA
:1010E00001B0704747F60040C4F20000016889076C
:1010F0000ED5416841F00201416040F2F831C2F280
:1011000000014A68824218BF7047C86800B10047B2
:101110007047000041F20001C4F202018A68C2F384
:10112000810242F20040C0F2F400DFE802F0026502
:101130000E1308680A68000702F008001ED418BBE6
:10114000D1F89400C0F3032030E041F20020C0F257
:101150007A007047CA6802F00302032A17D0022AF5
:1011600038D00868012A0A68000702F0080013D482
:1011700018BBD1F89400C0F3032025E090B9D1F852
:10118000940000F4706010E0086800200EE041F266
:101190000020C0F27A001DE090B9D1F8940000F46C
:1011A000706010E0086800F0F000000945F23401BA
:1011B000C0F6000151F8200070470868002003E0E5
:1011C000086800F0F000000945F23402C0F60002A1
:1011D00052F82000CA68CB68C2F302120132B0FB99
:1011E000F2F0C968C3F306225043C1F34161022201
:1011F00002EB4101B0FBF1F0704700004EF6885061
:10120000CEF20000016841F47001016070470000F7
:1012100044F20040C4F20000C169890644BF01687D
:101220005FEA816100D4704740F20842C2F20002D6
:10123000818C5368834218BF70479268002AF2D0AD
:10124000C8B2104780B582B001A901F02BFE032877
:1012500027D145F22C60C0F6000001F045F945F2B7
:10126000ED50C0F6000001F03FF945F2F55C45F2A3
:101270003A5045F2096145F24462C0F6000CC0F6EE
:101280000000C0F60001C0F600024FF4B573CDF8BF
:1012900000C001F029F945F22760C0F6000001F016
:1012A00023F901A800F0ACFA02B080BD2DE9F043AB
:1012B00081B0032003F0D2F940F23804C2F20004F6
:1012C00060630025A046052028F8385FE56303F039
:1012D000C5F920624FF48070264626F8240F43F6A5
:1012E0008D20C0F60000C4E90A05072003F0B6F916
:1012F000A06040F201292746102027F80C9F03F038
:10130000ADF943F200016061C4F20101606B254652
:10131000216004F14402414625F8189F02F046FC82
:10132000206A04F13002314602F040FCA06804F16A
:101330001002394602F09CFD606904F11C02294646
:1013400002F096FD206B02F0A9FB211D204602F061
:101350002FFF204601B0BDE8F083000040F2D430FA
:10136000C2F2000000688079162808BF704740F27A
:101370009030C2F200008068002102F0F1BD000050
:1013800040F2D430C2F2000000684079162808BF4D
:10139000704740F2A830C2F200008068002102F0DD
:1013A000DFBD000040F2D430C2F200000068807956
:1013B000162808BF704740F29030C2F200008068E3
:1013C000012102F0CDBD000040F2D430C2F2000095
:1013D00000684079162808BF704740F2A830C2F272
:1013E00000008068012102F0BBBD0000F0B581B0B3
:1013F00040F28C32C2F200021378002B00F0B4816C
:101400000C4600211170694601F0FEFC45F234657E
:10141000C0F60005284601F067F845F2E656C0F62A
:101420000006304601F060F80099D0A001F05CF8A9
:1014300045F22767C0F60007384601F055F80098D6
:1014400020400090284601F04FF8304601F04CF85B
:101450000099CDA001F048F8384601F045F89DF814
:101460000000400716D545F23460C0F6000001F0D8
:101470003BF845F2E650C0F6000001F035F8CDA08B
:1014800001F032F845F22760C0F6000001F02CF8B8
:1014900002F048F89DF80000C00616D545F2346009
:1014A000C0F6000001F020F845F2E650C0F600005A
:1014B00001F01AF8C2A001F017F845F22760C0F653
:1014C000000001F011F801F01BFF9DF8000040063C
:1014D00016D545F22C60C0F6000001F005F845F283
:1014E000ED50C0F6000000F0FFFFBAA000F0FCFFD6
:1014F00045F22760C0F6000000F0F6FF01F0C8FEDC
:101500009DF80000800616D545F23460C0F6000054
:1015100000F0EAFF45F2E650C0F6000000F0E4FFFC
:10152000B0A000F0E1FF45F22760C0F6000000F037
:10153000DBFF01F0DBFF0098010753D501061CD447
:10154000C00135D445F23460C0F6000000F0CCFF95
:1015500045F2E650C0F6000000F0C6FF45F2BD407F
:10156000C0F6000000F0C0FF45F22760C0F60000A2
:1015700000F0BAFF01F0E6FE34E045F22C60C0F660
:10158000000000F0B1FF45F2ED50C0F6000000F0A1
:10159000ABFF45F21D50C0F6000000F0A5FF45F27C
:1015A0002760C0F6000000F09FFF01F0C5FE19E0C3
:1015B00045F22C60C0F6000000F096FF45F2ED50B9
:1015C000C0F6000000F090FF45F22850C0F6000081
:1015D00000F08AFF45F22760C0F6000000F084FFAB
:1015E00001F034FE9DF80100C0073FD045F234649D
:1015F000C0F60004204600F077FF45F2E655C0F63D
:101600000005284600F070FF45F29240C0F6000049
:1016100000F06AFF45F22760C0F6000000F064FFAA
:10162000009E204600F060FF284600F05DFFB005F8
:101630000ED445F27440C0F6000000F055FF45F2AC
:101640002760C0F6000000F04FFF01F0E3FD0DE061
:1016500045F25940C0F6000000F046FF45F2276011
:10166000C0F6000000F040FF01F0B8FD9DF8010059
:10167000400719D545F23C60C0F6000000F034FF89
:1016800045F2DF50C0F6000000F02EFF45F2B950E1
:10169000C0F6000000F028FF45F22760C0F6000009
:1016A00000F022FF01F01CFF9DF80300000719D590
:1016B00045F23460C0F6000000F016FF45F2E65037
:1016C000C0F6000000F010FF45F20A50C0F600001E
:1016D00000F00AFF45F22760C0F6000000F004FFAA
:1016E00001F0F2FD9DF80200C00619D545F2346004
:1016F000C0F6000000F0F8FE45F2E650C0F600002B
:1017000000F0F2FE45F2AC40C0F6000000F0ECFE46
:1017100045F22760C0F6000000F0E6FE01F092FFFF
:101720009DF80200000719D545F23460C0F60000AC
:1017300000F0DAFE45F2E650C0F6000000F0D4FEFC
:1017400045F29C40C0F6000000F0CEFE45F2276056
:10175000C0F6000000F0C8FE01F07EFD45F2DD504D
:10176000C0F6000000F0C0FE01B0F0BD496E746527
:10177000727275707420666C616773203D203078DA
:10178000253038580A000000496E74657272757011
:101790007420666C616773202861667465722066C8
:1017A000696C746572696E6729203D203078253038
:1017B00038580A00547820646F6E650A00000000F3
:1017C000507265616D626C652064657465637465F3
:1017D000640A0000486561646572206572726F7208
:1017E0000A00000053796E63776F7264206F722075
:1017F0006865616465722076616C69640A00000046
:10180000F0B581B045F23465C0F6000504462846BF
:1018100000F06AFE45F2E657C0F60007384600F0D1
:1018200063FE4FA000F060FE45F22766C0F600069A
:10183000304600F059FE284600F056FE384600F0CB
:1018400053FE61884CA000F04FFE304600F04CFE85
:10185000284600F049FE384600F046FE21784CA0AC
:1018600000F042FE304600F03FFE284600F03CFE0D
:10187000384600F039FE617845F21D30C0F60000B0
:1018800000F032FE304600F02FFE607801281ED1B5
:101890006088B0F5427F1AD045F23C60C0F6000087
:1018A00000F022FE45F2DF50C0F6000000F01CFE02
:1018B000618845F2FD30C0F600004FF4427200F03E
:1018C00013FE45F22760C0F6000000F00DFE6078C0
:1018D00002281AD16088B0F5817F16D045F23C60AD
:1018E000C0F6000000F000FE45F2DF50C0F6000038
:1018F00000F0FAFD2CA04FF4817100F0F5FD45F2E7
:101900002760C0F6000000F0EFFD607803281DD1CD
:101910006088B0F5817F19D045F23C60C0F60000C8
:1019200000F0E2FD45F2DF50C0F6000000F0DCFD03
:1019300045F2C130C0F600004FF4817100F0D4FDD3
:1019400045F22760C0F6000000F0CEFD45F2DD5004
:10195000C0F6000001B0BDE8F04000F0C5BD00BF1A
:101960004C523131787820696E666F726D6174699E
:101970006F6E3A0A0000000020202D204669726D2B
:1019800077617265203D203078253034580A000098
:1019900020202D204861726477617265203D2030DF
:1019A00078253032580A00004C52313132302064F0
:1019B0006F65736E277420757365206C6174657331
:1019C00074206669726D77617265207665727369DD
:1019D0006F6E2077686963682069732030782530DE
:1019E00032580A002DE9F04182B040F21007C2F2ED
:1019F00000074CF680663A68C1F634560446304615
:101A000016219047002800F0C081054601F08EFEA7
:101A10002046022101F076F845F2F5580328C0F679
:101A2000000823D145F22C60C0F6000000F05CFDF8
:101A300045F2ED50C0F6000000F056FD45F23A5078
:101A400045F2096145F28462C0F60000C0F600016B
:101A5000C0F6000240F29D13CDF8008000F044FD76
:101A600045F22760C0F6000000F03EFD20463146FA
:101A700001F05CF8032823D145F22C60C0F6000089
:101A800000F032FD45F2ED50C0F6000000F02CFDF4
:101A900045F23A5045F2096145F28462C0F6000011
:101AA000C0F60001C0F600024FF4CF73CDF80080FD
:101AB00000F01AFD45F22760C0F6000000F014FDAA
:101AC0007968304688470146204601F04DF80328E2
:101AD00023D145F22C60C0F6000000F005FD45F270
:101AE000ED50C0F6000000F0FFFC45F23A5045F220
:101AF000096145F28462C0F60000C0F60001C0F63C
:101B000000024FF4D073CDF8008000F0EDFC45F2F8
:101B10002760C0F6000000F0E7FC691C204600F0DA
:101B2000DDFF032823D145F22C60C0F6000000F051
:101B3000DBFC45F2ED50C0F6000000F0D5FC45F2AC
:101B40003A5045F2096145F28462C0F60000C0F6E1
:101B50000001C0F6000240F2A113CDF8008000F0B1
:101B6000C3FC45F22760C0F6000000F0BDFC95F90B
:101B700000102046022201F0AFF8032823D145F2DD
:101B80002C60C0F6000000F0AFFC45F2ED50C0F64E
:101B9000000000F0A9FC45F23A5045F2096145F217
:101BA0008462C0F60000C0F60001C0F600024FF4E7
:101BB000D173CDF8008000F097FC45F22760C0F6A5
:101BC000000000F091FC2046012101F04FF80328AD
:101BD00023D145F22C60C0F6000000F085FC45F2F0
:101BE000ED50C0F6000000F07FFC45F23A5045F29F
:101BF000096145F28462C0F60000C0F60001C0F63B
:101C0000000240F2A313CDF8008000F06DFC45F215
:101C10002760C0F6000000F067FC20460021002588
:101C200000F020FD032823D145F22C60C0F600000F
:101C300000F05AFC45F2ED50C0F6000000F054FCF4
:101C400045F23A5045F2096145F28462C0F600005F
:101C5000C0F60001C0F600024FF4D273CDF8008048
:101C600000F042FC45F22760C0F6000000F03CFCAA
:101C700001F0F4FD40F20401C2F200012046CD70F3
:101C800000F0EAFE032823D145F22C60C0F60000E4
:101C900000F02AFC45F2ED50C0F6000000F024FCF4
:101CA00045F23A5045F2096145F28462C0F60000FF
:101CB000C0F60001C0F6000240F2AB13CDF8008080
:101CC00000F012FC45F22760C0F6000000F00CFCAA
:101CD00045F21411C0F60001204600F0D1FE0328A1
:101CE00023D145F22C60C0F6000000F0FDFB45F268
:101CF000ED50C0F6000000F0F7FB45F23A5045F217
:101D0000096145F28462C0F60000C0F60001C0F629
:101D100000024FF4D673CDF8008000F0E5FB45F2E9
:101D20002760C0F6000000F0DFFB2046122100F023
:101D3000C1FE03281CBF02B0BDE8F08145F22C6053
:101D4000C0F6000000F0D0FB45F2ED50C0F60000F8
:101D500000F0CAFB45F23A5045F2096145F284624F
:101D6000C0F60000C0F60001C0F6000240F2AD135C
:101D7000CDF8008000F0B8FB45F22760C0F6000007
:101D800002B0BDE8F04100F0AFBB45F22C60C0F6F8
:101D9000000000F0A9FB45F2ED50C0F6000000F095
:101DA000A3FB45F2C640C0F6000000F09DFB45F2E3
:101DB0002760C0F6000000F097FB00BFFEE70000C0
:101DC0002DE9F04383B00E4602A91D461746804612
:101DD00000F028FD9DF80830BB422B7014D945F265
:101DE0002C60C0F6000000F07FFB45F2ED50C0F61D
:101DF000000000F079FB297845F2DA20C0F60000F7
:101E00003A4600F071FB6DE09DF8092040463146EE
:101E100000F078FF2A7838A03CA100F065FB287814
:101E2000B8B145F2DD590027C0F600093BA407E030
:101E3000F15D204600F058FB28780137874208D230
:101E4000002FF5D017F00F00F2D1484600F04CFB00
:101E5000EEE745F2DD50C0F6000000F045FB45F22C
:101E60003465C0F60005284600F03EFB45F2E65614
:101E7000C0F60006304600F037FB2AA000F034FB25
:101E800045F22767C0F60007384600F02DFB01A990
:101E9000404600F00FFC284600F026FB304600F0DC
:101EA00023FB9DF9041023A000F01EFB384600F030
:101EB0001BFB284600F018FB304600F015FB9DF98F
:101EC000061023A000F010FB384600F00DFB28465A
:101ED00000F00AFB304600F007FB9DF9051025A035
:101EE00000F002FB45F22760C0F6000000F0FCFAAB
:101EF00003B0BDE8F08300BF2573202D2028256C9A
:101F000075206279746573293A0A00005061636B29
:101F1000657420636F6E74656E7400002025303226
:101F2000580000005061636B6574207374617475B0
:101F3000733A0A0020202D205253534920706163C8
:101F40006B6574203D2025692064426D0A00000005
:101F500020202D205369676E616C20525353492015
:101F60007061636B6574203D2025692064426D0AB1
:101F70000000000020202D20534E52207061636B22
:101F80006574203D2025692064420A00B0B582B006
:101F9000044600F0A7FF032826D145F22C60C0F6C6
:101FA000000000F0A1FA45F2ED50C0F6000000F08C
:101FB0009BFA45F2F55545F23A5045F2096145F272
:101FC0006562C0F60005C0F60000C0F60001C0F66C
:101FD000000240F24513009500F086FA45F22760B2
:101FE000C0F6000000F080FA40F21005C2F20005D1
:101FF000E86880470146204600F0B4FF032827D157
:1020000045F22C60C0F6000000F06EFA45F2ED508B
:10201000C0F6000000F068FA45F2F55C45F23A506F
:1020200045F2096145F26562C0F6000CC0F6000099
:10203000C0F60001C0F6000240F24913CDF800C01E
:1020400000F052FA45F22760C0F6000000F04CFAAA
:10205000A86880470146204600F046FF032827D1A4
:1020600045F22C60C0F6000000F03EFA45F2ED505B
:10207000C0F6000000F038FA45F2F55C45F23A503F
:1020800045F2096145F26562C0F6000CC0F6000039
:10209000C0F60001C0F600024FF4A673CDF800C0F0
:1020A00000F022FA45F22760C0F6000000F01CFAAA
:1020B00028698047017871B341784268204600F072
:1020C00065FF032827D145F22C60C0F6000000F020
:1020D0000BFA45F2ED50C0F6000000F005FA45F2AB
:1020E000F55C45F23A5045F2096145F26562C0F689
:1020F000000CC0F60000C0F60001C0F6000240F27D
:102100005113CDF800C000F0EFF945F22760C0F69A
:10211000000000F0E9F968698047017842782046BC
:1021200000F02AFE032826D145F22C60C0F60000FC
:1021300000F0DAF945F2ED50C0F6000000F0D4F9F5
:1021400045F2F55545F23A5045F2096145F26562AE
:10215000C0F60005C0F60000C0F60001C0F600029F
:1021600040F25513009500F0BFF945F22760C0F624
:10217000000000F0B9F9204600F016FE032826D131
:1021800045F22C60C0F6000000F0AEF945F2ED50CB
:10219000C0F6000000F0A8F945F2F55545F23A50B6
:1021A00045F2096145F26562C0F60005C0F600001F
:1021B000C0F60001C0F6000240F25713009500F08F
:1021C00093F945F22760C0F6000000F08DF9204633
:1021D0003F2100F0BDFD032826D145F22C60C0F65A
:1021E000000000F081F945F2ED50C0F6000000F06B
:1021F0007BF945F2F55545F23A5045F2096145F251
:102200006562C0F60005C0F60000C0F60001C0F629
:1022100000024FF4AC73009500F066F945F22760B8
:10222000C0F6000000F060F90DF10601204600F054
:102230001DFE032826D145F22C60C0F6000000F0F8
:1022400053F945F2ED50C0F6000000F04DF945F2AB
:10225000F55545F23A5045F2096145F26562C0F61E
:102260000005C0F60000C0F60001C0F6000240F212
:102270005B13009500F038F945F22760C0F60000C6
:1022800000F032F9204600F08FFD032826D145F2F8
:102290002C60C0F6000000F027F945F2ED50C0F6C2
:1022A000000000F021F945F2F55545F23A5045F2AB
:1022B000096145F26562C0F60005C0F60000C0F68F
:1022C0000001C0F600024FF4AE73009500F00CF967
:1022D00045F22760C0F6000000F006F94CF6FC71EC
:1022E000C0F6FF31204600F071FD032826D145F2EB
:1022F0002C60C0F6000000F0F7F845F2ED50C0F693
:10230000000000F0F1F845F2F55545F23A5045F27B
:10231000096145F26562C0F60005C0F60000C0F62E
:102320000001C0F6000240F25D13009500F0DCF8F9
:1023300045F22760C0F6000000F0D6F802B0B0BD4C
:1023400070B500F097F845F23464C0F600042046FA
:1023500000F0CAF845F2E655C0F60005284600F040
:10236000C3F800F0D1F801460DA000F0BDF845F229
:102370002766C0F60006304600F0B6F8204600F0AA
:10238000B3F8284600F0B0F845F2DD50C0F6000082
:1023900000F0AAF83046BDE8704000F0A5B800BFD4
:1023A0004C523131585820647269766572207665D6
:1023B0007273696F6E3A2025730A000010B540F2FF
:1023C0001000C2F20000806980470146407940F267
:1023D000D434C2F20004162821600ED002F03EF977
:1023E00040F2A831C2F200014FF40073086001F11D
:1023F000080221F8043F01F03BFD2068807916288F
:102400000ED002F02BF940F29031C2F200014FF4ED
:102410000073086001F1080221F8043F01F028FD73
:102420002068C07916280ED002F018F940F29C31CD
:10243000C2F200014FF40073086001F1080221F8B4
:10244000043F01F015FD20680079162808BF10BD73
:1024500002F004F940F2B431C2F200014FF400730B
:10246000086001F1080221F8043FBDE8104001F0C6
:10247000FFBC000080B507A000F036F807A000F010
:1024800033F808A00CA100F02FF810A0BDE88040A0
:1024900000F02AB81B5B303B33326D00494E464F8B
:1024A0003A20000053444B2076657273696F6E3A90
:1024B0002025730A00000000322E302E312D342DDD
:1024C0006763393634393636000000001B5B306DE7
:1024D0000000000045F2141040F20401C0F60000B4
:1024E000C2F2000100F012B983B080B581B00DF1E5
:1024F0000C0C8CE80E0003A9009102F0CDF801B09D
:10250000BDE8804003B0704700A0704776322E329D
:102510002E300000F0B581B015460E4604460DF190
:10252000030700BF606C394601F008FB9DF803000B
:102530000128F7D02069002101F012FD6068002118
:1025400032462B4601F0F2FE2069012101F008FD20
:10255000002001B0F0BD00002DE9F04381B0DDF8AE
:102560002080994617460E46044600200DF10205CC
:102570008DF801008DF80000606C294601F0DEFA4C
:102580009DF802000128F7D02069002101F0E8FC45
:102590006068314600223B4601F0C8FE20690121F7
:1025A00001F0DEFC0DF10305606C294601F0C6FA6E
:1025B0009DF803000128F7D02069002101F0D0FC2C
:1025C00060680DF101016A46012301F0AFFE606809
:1025D00000214A46434601F0A9FE2069012101F08D
:1025E000BFFC002001B0BDE8F083000010B5044638
:1025F000C069002101F0B4FC0120FEF75DFDE06937
:10260000012101F0ADFC002010BD00002DE9F043D8
:1026100081B0DDF82080994617460E4604460DF13C
:10262000030500BF606C294601F088FA9DF803009D
:102630000128F7D02069002101F092FC6068314642
:1026400000223B4601F072FE606849460022434684
:1026500001F06CFE2069012101F082FC002001B034
:10266000BDE8F08380B582B042F20272ADF8052079
:102670008DF807104FF0000C0DF105010322002327
:10268000CDF800C0FFF7C2FF02B080BD0138C1B273
:10269000022982BF45F63520C0F60000704740B2DF
:1026A00001A151F820007047785900089759000897
:1026B0001C5A0008B0B584B00C4640F20241ADF897
:1026C0000E1000254FF0030C0DF10E010DF10A0361
:1026D00002228DF80C50ADF80A50CDF800C0FFF77B
:1026E0003BFF08B104B0B0BD9DF80A109DF80C2066
:1026F000A5EB510121709DF90B1002318908617021
:10270000A5EB5201A17004B0B0BD000010B50C469D
:1027100000F016F861780139CAB20E2A07D844F6DB
:10272000E07249B2C0F6000252F8211000E0002128
:102730004FF47A7200FB02100138B0FBF1F010BDCB
:10274000F0B5C47803790A7891F802E0C978012BD2
:102750002346A2F1020C857808BF023300296146A6
:1027600008BF1146BEF1050F16D3BEF1070F76461E
:1027700008BF0136012D20D164467343072A38BFB4
:102780001446DB00C4EBC4050E1BB3EB850FD4BFAE
:10279000214603EB46132AE00024072A38BF6FF0D6
:1027A0000704A4EB82041C26012D08BF082634442C
:1027B00004EBC30323EAE37319E06FF01B05072A58
:1027C00038BF6FF0130505EB820525F004052F4691
:1027D000B5EBC40FA8BFE700B5EBC30FA8BF2F46EA
:1027E000C7EBC30323EAE373734303EB41138C008A
:1027F00003EB8101013991FBF4F10EF104034B432A
:10280000BEF1040F98BF03F1080100880423072AD2
:1028100038BF0623184408448000013000FA0CF049
:102820000138F0BDB0B582B00D4640F20231ADF8CE
:1028300006100021ADF8041002240DF1060101ABD1
:1028400002220094FFF788FE08B102B0B0BDBDF8C7
:102850000410298002B0B0BD0138C1B20E2982BF78
:1028600045F63520C0F60000704740B201A151F88E
:102870002000704706580008A7570008EE570008C8
:102880001E58000877570008FE560008355A000801
:10289000475700085F570008BF570008355A00081F
:1028A000355A0008CC560008E556000817570008AE
:1028B000072882BF45F63520C0F60000704740B2B9
:1028C00001A151F820007047045A00086958000817
:1028D000B4580008E35800082E5900084D58000865
:1028E000985800081259000845F6352205A1C0F68F
:1028F0000002012808BF0A4609A1002818BF114696
:10290000084670474C52313158585F524144494F44
:102910005F4C4F52415F4352435F4F4E00000000F7
:102920004C52313158585F524144494F5F4C4F52DD
:10293000415F4352435F4F464600000045F6352253
:1029400005A1C0F60002012808BF0A460AA1002816
:1029500018BF1146084670474C52313158585F52E3
:102960004144494F5F4C4F52415F49515F494E5678
:1029700045525445440000004C52313158585F5282
:102980004144494F5F4C4F52415F49515F5354415D
:102990004E4441524400000045F6352205A1C0F6E0
:1029A0000002012808BF0A460AA1002818BF1146E4
:1029B000084670474C52313158585F524144494F94
:1029C0005F4C4F52415F504B545F494D504C49430F
:1029D000495400004C52313158585F524144494FDC
:1029E0005F4C4F52415F504B545F4558504C4943E8
:1029F000495400000538C1B2072982BF45F6352089
:102A0000C0F60000704740B201A151F820007047A5
:102A10003758000882580008CD580008FC580008B4
:102A2000475900083057000890570008D75700084A
:102A3000032882BF45F63520C0F60000704740B23B
:102A400001A151F820007047B8590008CE5900087C
:102A50005D590008E959000880B584B0096840F65E
:102A60000272ADF80A2003914FF0000C0DF10A013B
:102A700006220023CDF800C0FFF7C8FD04B080BDDA
:102A800080B584B00B8841F20202ADF808201ABA72
:102A9000D1F80210120CADF80A2003914FF0000C8F
:102AA00002A908220023CDF800C0FFF7AFFD04B053
:102AB00080BD000080B582B042F60232ADF805203C
:102AC0008DF807104FF0000C0DF1050103220023D3
:102AD000CDF800C0FFF79AFD02B080BD80B584B08C
:102AE000096841F20252ADF80A2003914FF0000C40
:102AF0000DF10A0106220023CDF800C0FFF786FD84
:102B000004B080BD80B582B040F60262ADF8052009
:102B10008DF807104FF0000C0DF105010322002382
:102B2000CDF800C0FFF772FD02B080BD80B584B063
:102B300040F60232ADF80A200A0E8DF80C200A0C7D
:102B40008DF80D200A0A8DF80E208DF80F104FF029
:102B5000000C0DF10A0106220023CDF800C0FFF79A
:102B600055FD04B080BD000080B586B042F602126B
:102B7000ADF80B200A784B7891F802C002F00F02F2
:102B800091F803E042EA03128DF80D200CF00F02D9
:102B900042EA0E128DF80E200A794B7902F00F02EC
:102BA00042EA03128DF80F208A79CB7902F00F02E6
:102BB00042EA03128DF810200A7A4B7A02F00F02D3
:102BC00042EA03128DF811208A7ACB7A02F00F02C2
:102BD00042EA03128DF812200A7B4B7B91F80EC05B
:102BE00002F00F0291F80FE042EA03120B7C498ACF
:102BF0008DF813200CF00F0242EA0E1209BA8DF87C
:102C0000142003F00F02090C8DF81520ADF81610F2
:102C10004FF0000C0DF10B010D220023CDF800C088
:102C2000FFF7F4FC06B080BD80B584B044F6D35203
:102C3000C903C1F26202A1FB021240F6021391091C
:102C4000ADF80B30930D920B8DF80D308DF80E20F2
:102C50008DF80F104FF0000C0DF10B010522002331
:102C6000CDF800C0FFF7D2FC04B080BD80B582B0C3
:102C700041F20232ADF805208DF807104FF0000C3C
:102C80000DF1050103220023CDF800C0FFF7BEFCC3
:102C900002B080BD80B584B044F6D352C903C1F2FE
:102CA0006202A1FB021240F602239109ADF80B303B
:102CB000930D920B8DF80D308DF80E208DF80F10BE
:102CC0004FF0000C0DF10B0105220023CDF800C0E0
:102CD000FFF79CFC04B080BD80B582B041F20213C6
:102CE000ADF804308DF806108DF807204FF0000C79
:102CF00001A904220023CDF800C0FFF787FC02B031
:102D000080BD000080B582B09C460B4640F6012194
:102D1000ADF804108DF8062001A904228DF807C033
:102D2000CDF800C0FFF718FC02B080BD80B582B0BE
:102D30000B4640F601119446ADF806100DF1060160
:102D40000222CDF800C0FFF761FC02B080BD000098
:102D500080B582B040F60172ADF805208DF80710FD
:102D60004FF0000C0DF1050103220023CDF800C047
:102D7000FFF74CFC02B080BD80B582B041F2016328
:102D8000ADF80530002A18BF41F004018DF8071096
:102D90004FF0000C0DF1050103220023CDF800C017
:102DA000FFF734FC02B080BD80B582B040F601610F
:102DB000ADF806104FF0000C0DF1060102220023C1
:102DC000CDF800C0FFF722FC02B080BD80B584B012
:102DD00041F20142ADF80A200A0E8DF80C200A0CCF
:102DE0008DF80D200A0A8DF80E208DF80F104FF087
:102DF000000C0DF10A0106220023CDF800C0FFF7F8
:102E000005FC04B080BD000070B584B00C4601A97B
:102E100006220546FFF77EFB10B1002620B11EE01A
:102E2000DDF806100EBAD0B9CEB141F20140ADF8CE
:102E30000A00300E8DF80C00300C8DF80D00300AB1
:102E40008DF80E004FF0000C0DF10A012846062205
:102E500000238DF80F60CDF800C0FFF7D7FB14B149
:102E6000002808BF266004B070BD0000B0B584B073
:102E70000D4640F60151ADF80E10002102910224DA
:102E80000DF10E0102AB02220094FFF765FB08B1C1
:102E900004B0B0BDBDF8081009BA090C298004B00F
:102EA000B0BD000010B584B00C4640F20111ADF881
:102EB0000E10002102914FF0040C0DF10E0102AB37
:102EC0000222CDF800C0FFF747FB08B104B010BDE7
:102ED000BDF80810BDF80A20218011BA090C6180E4
:102EE00004B010BDFFF782BB80B584B041F201226F
:102EF000ADF806200A684968029203914FF0000C71
:102F00000DF106010A220023CDF800C0FFF77EFB79
:102F100004B080BD80B584B041F20133ADF8063015
:102F20000B0E8DF808300B0C8DF809300B0A8DF85C
:102F30000B10110E8DF80C10110C8DF80D10110ADC
:102F40008DF80A308DF80E108DF80F204FF0000C20
:102F50000DF106010A220023CDF800C0FFF756FB51
:102F600004B080BD80B582B041F20102ADF8052009
:102F70008DF807104FF0000C0DF10501032200231E
:102F8000CDF800C0FFF742FB02B080BD80B584B031
:102F90008DF80C10110C41F201738DF80D10110A0F
:102FA000ADF80A308DF80E108DF80F204FF0000CA0
:102FB0000DF10A0106220023CDF800C0FFF726FB21
:102FC00004B080BD82B040F2DC44C0F2001401F0D5
:102FD0005DF8FFF7F3F901F049FB45F23460C0F604
:102FE0000000FFF781FA45F2E650C0F60000FFF757
:102FF0007BFA40F20800C2F2000001686FA0FFF700
:1030000073FA45F22760C0F60000FFF76DFAFFF78C
:1030100097F9FEF74BF940F28006C2F200063060E5
:10302000FEF7B4FF3068FEF70DF93068FEF7DAFC02
:10303000306821460022FFF76DFF45F2F55703285F
:10304000C0F6000721D145F22C60C0F60000FFF762
:103050004BFA45F2ED50C0F60000FFF745FA45F295
:103060003A5045F2A26145F2BB62C0F60000C0F6DC
:103070000001C0F6000265230097FFF735FA45F21C
:103080002760C0F60000FFF72FFA30684CF6FC719D
:10309000C0F6FF31FFF79AFE032821D145F22C60DC
:1030A000C0F60000FFF720FA45F2ED50C0F6000030
:1030B000FFF71AFA45F23A5045F2A26145F2BB62B7
:1030C000C0F60000C0F60001C0F6000266230097BB
:1030D000FFF70AFA45F22760C0F60000FFF704FA8E
:1030E00040F230050120C2F2000500BF2854013033
:1030F0000728FBD1FFF7EEF940F20C01C2F2000104
:103100000A681044086000213068297029460722A7
:10311000FFF70CFE032821D145F22C60C0F6000019
:10312000FFF7E2F945F2ED50C0F60000FFF7DCF9D9
:1031300045F23A5045F2A26145F2BB62C0F600008A
:10314000C0F60001C0F6000273230097FFF7CCF928
:1031500045F22760C0F60000FFF7C6F9FEF734F924
:1031600030680021FFF796FD032821D145F22C603D
:10317000C0F60000FFF7B8F945F2ED50C0F60000C8
:10318000FFF7B2F945F23A5045F2A26145F2BB624F
:10319000C0F60000C0F60001C0F6000275230097DB
:1031A000FFF7A2F945F22760C0F60000FFF79CF98F
:1031B00030682146FEF71AF9FAE700BF3D3D3D3D74
:1031C0003D204C6F7261206578616D706C65202DBB
:1031D000202573203D3D3D3D3D0A0A0080B545F266
:1031E0003460C0F60000FFF77FF945F2E650C0F604
:1031F0000000FFF779F945F24140C0F60000FFF703
:1032000073F945F22760C0F60000BDE88040FFF783
:103210006BB9000080B545F23460C0F60000FFF7DE
:1032200063F945F2E650C0F60000FFF75DF945F29C
:103230004140C0F60000FFF757F945F22760C0F69D
:103240000000BDE88040FFF74FB9000040F2C030F9
:10325000C2F2000000F012BA80B545F23460C0F648
:103260000000FFF741F945F2E650C0F60000FFF715
:103270003BF945F24140C0F60000FFF735F945F251
:103280002760C0F60000BDE88040FFF72DB90000C0
:1032900080B545F23460C0F60000FFF725F945F22D
:1032A000E650C0F60000FFF71FF945F24140C0F6B6
:1032B0000000FFF719F945F22760C0F60000BDE8ED
:1032C0008040FFF711B9000080B545F23460C0F6C8
:1032D0000000FFF709F945F2E650C0F60000FFF7DD
:1032E00003F945F24140C0F60000FFF7FDF845F252
:1032F0002760C0F60000BDE88040FFF7F5B8000089
:1033000080B545F23460C0F60000FFF7EDF845F2F5
:10331000E650C0F60000FFF7E7F845F24140C0F67E
:103320000000FFF7E1F845F22760C0F60000BDE8B5
:103330008040FFF7D9B8000040F2C430C2F200006C
:1033400000F09CB92DE9F04182B0FEF707F840F299
:103350008005C2F2000540F230042868C2F2000481
:103360000DF1070321460722FEF72AFD40F2CA317C
:10337000601CC2F200010622FCF76FFF002850D14A
:1033800040F28400C2F20000017840F2D13840F2ED
:10339000C8360129C2F20008C2F2000625D140F267
:1033A000C232C2F20002207898F800101388471A3F
:1033B000581C10803088F9B250FA87F0022930800A
:1033C00015D331A0FFF790F831A0FFF78DF84FF03B
:1033D000FF3050FA87F130A0FFF786F845F22760FA
:1033E000C0F60000FFF780F801E0012101702078AD
:1033F00088F8000045F23460C0F60000FFF774F86A
:1034000045F2E650C0F60000FFF76EF821783288EA
:1034100027A0FFF769F845F22760C0F60000FFF724
:1034200063F8FDF7BFFF40F20C01C2F2000128680B
:103430000968FFF7F9FB032822D145F22C60C0F69A
:103440000000FFF751F845F2ED50C0F60000FFF71D
:103450004BF845F2F55745F23A5045F2A261C0F6F5
:103460000007C0F60000C0F600011AA2C4230097AE
:10347000FFF73AF845F22760C0F60000FFF734F88E
:1034800002B0BDE8F08100BF1B5B303B33336D0001
:103490005741524E3A2000002564207061636B65ED
:1034A00074287329206D69737365640A0000000035
:1034B000436F756E7465722076616C75653A202570
:1034C000642C2050455220696E6465783A2025644A
:1034D0000A0000006F6E5F72785F646F6E650000B7
:1034E00040F2C630C2F2000000F0C8B880B545F224
:1034F0003460C0F60000FEF7F7FF45F2E650C0F674
:103500000000FEF7F1FF45F24140C0F60000FEF773
:10351000EBFF45F22760C0F60000BDE88040FEF7F3
:10352000E3BF0000B0B582B0FDF72AFF4FF47A7018
:10353000FDF7C2FD40F23004C2F2000420780130F1
:10354000207045F23460C0F60000FEF7CDFF45F272
:10355000E650C0F60000FEF7C7FF217834A0FEF762
:10356000C3FF45F22760C0F60000FEF7BDFF40F242
:103570008005C2F20005286821460722FFF7D6FB26
:1035800045F2F5540328C0F6000421D145F22C6021
:10359000C0F60000FEF7A8FF45F2ED50C0F60000AF
:1035A000FEF7A2FF45F23A5045F2A26145F2B06241
:1035B000C0F60000C0F60001C0F600029C23009493
:1035C000FEF792FF45F22760C0F60000FEF78CFF81
:1035D000FDF7FAFE28680021FFF75CFB03281CBFFB
:1035E00002B0B0BD45F22C60C0F60000FEF77CFFD3
:1035F00045F2ED50C0F60000FEF776FF45F23A5076
:1036000045F2A26145F2B062C0F60000C0F60001CA
:10361000C0F600029F230094FEF766FF45F2276084
:10362000C0F6000002B0BDE8B040FEF75DBF00BFCD
:10363000436F756E7465722076616C75653A2025EE
:10364000640A000080B545F23460C0F60000FEF761
:103650004BFF45F2E650C0F60000FEF745FF45F28D
:103660004140C0F60000FEF73FFF45F22760C0F67C
:103670000000BDE88040FEF737BF000010B582B003
:103680000446FDF76BFE40F28400C2F200000078B1
:10369000012802D1208801302080FDF783FE40F20E
:1036A000800040F20C01C2F20000C2F2000100688A
:1036B0000968FFF7B9FA03281CBF02B010BD45F234
:1036C0002C60C0F60000FEF70FFF45F2ED50C0F68B
:1036D0000000FEF709FF45F2F55445F23A5045F275
:1036E000A261C0F60004C0F60000C0F6000107A207
:1036F000EF230094FEF7F8FE45F22760C0F60000C5
:1037000002B0BDE81040FEF7EFBE00BF7065725F0B
:10371000726563657074696F6E5F6661696C7572FE
:10372000655F68616E646C696E67000070B545F234
:103730003464C0F600042046FEF7D6FE45F2E65596
:10374000C0F600052846FEF7CFFE32A0FEF7CCFEFD
:1037500045F22766C0F600063046FEF7C5FE204655
:10376000FEF7C2FE2846FEF7BFFE0220FFF760F913
:10377000014645F28850C0F60000FEF7B5FE30461F
:10378000FEF7B2FE2046FEF7AFFE2846FEF7ACFE7F
:1037900045F2C5504CF68061C0F60000C1F63451C8
:1037A000FEF7A2FE3046FEF79FFE2046FEF79CFE87
:1037B0002846FEF799FE45F2EF40C0F600001621BC
:1037C000FEF792FE3046FEF78FFE2046FEF78CFE97
:1037D0002846FEF789FE0120FEF758FF014612A099
:1037E000FEF782FE3046FEF77FFE2046FEF77CFEA7
:1037F0002846FEF779FE12A0FEF776FE3046FEF769
:1038000073FE45F2DD50C0F60000BDE87040FEF7E3
:103810006BBE00BF436F6D6D6F6E20706172616D26
:1038200065746572733A0A0020202046616C6C62F0
:1038300061636B206D6F6465203D2025730A000075
:10384000202020527820626F6F737420646561635A
:10385000746976617465640A00000000F0B581B097
:1038600045F23464C0F600042046FEF73DFE45F202
:10387000E656C0F600063046FEF736FE45F28B30BF
:10388000C0F60000FEF730FE45F22765C0F60005E1
:103890002846FEF729FE2046FEF726FE3046FEF7B4
:1038A00023FE0720FFF7A6F8014645F29F50C0F619
:1038B0000000FEF719FE2846FEF716FE2046FEF72A
:1038C00013FE3046FEF710FE0420FEF7C5FF01464A
:1038D00045F25450C0F60000FEF706FE2846FEF7FB
:1038E00003FE2046FEF700FE3046FEF7FDFD0120F8
:1038F000FEF7DEFF014645F26E50C0F60000FEF70F
:10390000F3FD2846FEF7F0FD45F2DD57C0F600074F
:103910003846FEF7E9FD2046FEF7E6FD3046FEF7A5
:10392000E3FD45F2A830C0F60000FEF7DDFD2846B5
:10393000FEF7DAFD2046FEF7D7FD3046FEF7D4FD50
:1039400045F26830C0F600000821FEF7CDFD28469C
:10395000FEF7CAFD2046FEF7C7FD3046FEF7C4FD60
:103960000020FFF719F8014624A0FEF7BDFD284608
:10397000FEF7BAFD2046FEF7B7FD3046FEF7B4FD70
:1039800025A00721FEF7B0FD2846FEF7ADFD204635
:10399000FEF7AAFD3046FEF7A7FD0120FEF7A4FFC3
:1039A000014626A0FEF7A0FD2846FEF79DFD204615
:1039B000FEF79AFD3046FEF797FD0120FEF7BEFFA9
:1039C000014625A0FEF790FD2846FEF78DFD3846FE
:1039D000FEF78AFD2046FEF787FD3046FEF784FDA0
:1039E00024A01221FEF780FD2846FEF77DFD384613
:1039F00001B0BDE8F040FEF777BD00BF20202048B1
:103A00006561646572206D6F646520202020203D13
:103A10002025730A000000002020205061796C6F7F
:103A20006164206C656E67746820203D20256420E9
:103A3000627974652873290A000000002020204361
:103A40005243206D6F646520202020202020203DDF
:103A50002025730A0000000020202049512020204A
:103A600020202020202020202020203D2025730AF7
:103A7000000000004C6F52612073796E63776F72A3
:103A800064203D203078253032580A0040F28C30D6
:103A9000C2F20000012101707047000040F288016D
:103AA0000023C2F2000100BF1A460F2B04D8531C9A
:103AB000814201F13001F7D110B50F2A03D8017B03
:103AC00009B1017C09B1022010BDD0E908E140F242
:103AD000080CCBB2C4F2010C5CF823200C0C22EAD7
:103AE000114194FAA4F2B2FA82F20EFA02F21143F0
:103AF0004CF82310C26A11064EF20011CEF20001FA
:103B000008D453B202F01F02012404FA02F25B0946
:103B100041F82320C26A4EF6145402F00F03CEF28D
:103B2000000441FA82F12344120658BF01F54073A4
:103B30000021012219700274084610BD40F288026B
:103B40004FF0000CC2F200026346BCF10F0F05D823
:103B500003F1010C824202F13002F5D1B0B50F2B16
:103B600084BF0220B0BDD0E901E595FAA5F0B0FA16
:103B700080F0DEF800304200032000FA02F4234017
:103B800033FA02FC06D0BCF1010F18BFB0BD0EF134
:103B9000140001E00EF1100000682840401BB0FA4C
:103BA00080F0400908700020B0BD00002DE9F0430E
:103BB00089B00D4640F28801C2F2000191460A1D0B
:103BC000002701230AE000BF0F2F07F101074FF084
:103BD000000338BF01233032102F0BD012F8046CD1
:103BE000002EF1D016680468A642EDD156684468EC
:103BF000A642E9D1DA0701D0012634E1002200BF54
:103C00008B5C2BB13032B2F5407FF9D1002700E058
:103C10008F18002F4FF0010600F0258100223A7026
:103C20003A73D0E90010CDE90526C7E90110CDE9C6
:103C300003020846CDE9072200F0B4F90646002841
:103C400040F01181786803A9FDF71EF808B101263C
:103C500009E16878002800F00281B9680226FF298E
:103C600000F34F804B1E3F2B00F27F804FF4702CEF
:103C70004FF0060EDFE813F0BB004000CD008200DD
:103C8000CD00CD00CD008700CD00CD00CD00CD0012
:103C9000CD00CD00CD008C00CD00CD00CD00CD00FD
:103CA000CD00CD00CD00CD00CD00CD00CD00CD00AC
:103CB000CD00CD00CD009300CD00CD00CD00CD00D6
:103CC000CD00CD00CD00CD00CD00CD00CD00CD008C
:103CD000CD00CD00CD00CD00CD00CD00CD00CD007C
:103CE000CD00CD00CD00CD00CD00CD00CD00CD006C
:103CF000CD00CD00CD009B004FF4700C4FF0070EAF
:103D000075E0B1F5805F0FDAB1F5806F1BDAB1F5C0
:103D1000807F53D0B1F5007F7BD140F2020C4FF091
:103D2000170EC0F2F00C62E0B1F5804F15DAB1F574
:103D3000805F4BD0B1F5005F6BD10222C0F2F00280
:103D400002F1010C51E045D0B1F5006F61D10122C3
:103D5000CFF2000202F1010C47E041D0B1F5004F73
:103D600057D10122CFF200023DE0802951D140F22B
:103D7000010C4FF0170ECFF2000C38E04FF0706CD2
:103D80004FF0080E33E04FF0704C4FF0090E2EE06C
:103D900040F2010C4FF00A0EC0F20F0C27E0012296
:103DA000C0F20F0202F5610C4FF0170E1FE040F257
:103DB000010C4FF0170EC0F6007C18E00122C0F293
:103DC0000F0202F1010C4FF0170E10E00122C0F2B9
:103DD0000F0208E00122C0F6007202F1010C04E0BB
:103DE0000122C0F6007202F1020C4FF0280E7B682F
:103DF00003F138424FEAB222072A01D2002608E036
:103E000041F60042C4F600029A1A18BF0122560079
:103E100007224FF00008FEB90023032888BF0123C2
:103E20004FEA430618D838CD4FF0000887F81080C5
:103E3000CDE900184FF001088DF80A0068467B6153
:103E4000BC61FD61C7E9082CC7E90A1EADF808800E
:103E5000FCF762FE87F80C80B8F1000F03D0012058
:103E60003870C9F80070F0B209B0BDE8F083000006
:103E70002DE9F04186B00D4640F28801C2F2000102
:103E800090460A1D002601230AE000BF0F2E06F10E
:103E900001064FF0000338BF01233032102E0BD043
:103EA00012F8044C002CF1D014680768BC42EDD124
:103EB00057684468A742E9D1DA0701D001214BE0F5
:103EC000002200BF8B5C2BB13032B2F5407FF9D1BC
:103ED000002600E08E184FF00101EEB3002333708E
:103EE0003373D0E90020CDE90333C6E901208DE822
:103EF0000B001046059300F055F8014660BB28788A
:103F000040F288010023C2F2000100BF1A460F2BC5
:103F100004D8531CB14201F13001F7D10F2A06D861
:103F200048B1012803D1D6E90101816106E00221EF
:103F3000002088B105E0D6E901018162002101205D
:103F400050B170686946FCF79FFE4FF0010118B947
:103F500031700021C8F80060084606B0BDE8F08165
:103F600040F288024FF0000CC2F200026346BCF13E
:103F70000F0F05D803F1010C824202F13002F5D196
:103F80000F2B07D841B1012904D1D0E90110886174
:103F90000020704702207047D0E90110886200209D
:103FA0007047000081B000F138404FEAB020072888
:103FB00011D8DFE800F004131F2B37434F5B41F2A9
:103FC0004C00C4F20200016841F001010160006888
:103FD00000F0010055E0022001B0704741F24C00B2
:103FE000C4F20200016841F002010160006800F0C3
:103FF000020046E041F24C00C4F20200016841F0C8
:1040000004010160006800F004003AE041F24C0055
:10401000C4F20200016841F008010160006800F08C
:1040200008002EE041F24C00C4F20200016841F0A9
:1040300010010160006800F0100022E041F24C0025
:10404000C4F20200016841F020010160006800F044
:10405000200016E041F24C00C4F20200016841F079
:1040600040010160006800F040000AE041F24C00AD
:10407000C4F20200016841F080010160006800F0B4
:10408000800000900098002001B07047B0B582B069
:1040900042F20000C4F202000168042262F302014D
:1040A000016000BF016801F007010429FAD147F25D
:1040B0000000C4F200000168012241F2000562F331
:1040C0004A21C4F202050160286840F4807028602B
:1040D00028684005FCD5D5F8940040F00100C5F8EB
:1040E000940000BFD5F894008007FBD568681021C4
:1040F00061F31C606860E86848F28C01CFF6FF113C
:10410000084000F60220E860286840F080702860CF
:10411000E86840F08070E86028688001FCD5E868B5
:1041200048F2FF0140F0020020F07100E8602869C9
:10413000CFF69F71084040F4001040F440602861C1
:10414000286840F080602860286940F48010286169
:1041500028680001FCD5A86840F00300A86000BFF3
:10416000A86800F00C000C28FAD1A8684BF20044B3
:1041700020F0F000A860A868C0F2C44420F4E06019
:10418000A860A86820F46050A8602046FCF7EEFD07
:104190002046FCF715FF286E40F001002866286EC7
:1041A00000F0010001900198002002B0B0BD0000B5
:1041B00070B58AB040F2D8320C460021C2F200023B
:1041C000535C2BB108312029FAD100261EB974E0C6
:1041D0005618002E71D0006843F60041C4F2000169
:1041E000884270602AD043F20001C4F20101884283
:1041F00066D141F24C00C4F2020041690DF1040C99
:1042000041F480514161416901F48051009100996C
:10421000016841F001010160006800F001000090B8
:104220003C48009900903BA0051D2ECD40698CE8CC
:104230002E00059069464FF0904025E041F24C0079
:10424000C4F20200C1680DF1040C41F40041C160E8
:10425000C16801F4004100910099016841F0040136
:104260000160006800F0040000902448009900906C
:1042700022A0051D40692ECD059040F600008CE877
:104280002E00C4F600006946FCF7FEFC6D46284689
:104290002821FBF7D0FF4FF4827001904FF4E060CB
:1042A00002904FF400700590182006900721706866
:1042B00009912946FCF744FE28B101200AB070BDDF
:1042C00002200AB070BD7068416841F480514160BD
:1042D000416821F010014160416821F0080141600E
:1042E000016841F04001016001684906FCD50120E8
:1042F0003070266000200AB070BD00BF001C0000B6
:1043000002000000030000000000000000000000A8
:1043100006000000E00000000200000003000000B2
:10432000000000000000000005000000F0B540F2B1
:10433000D8360024C2F200069C4600BF2546032C56
:1043400004D86C1C864206F10806F7D1032D84BF01
:104350000220F0BD0678002E3ED0002B18BF0123AE
:1043600038D00125E64664460DE000BF1FFA8EF303
:10437000002BA5B24EEA040618BF0123002D18BF7A
:104380000125360426D04668B76807F4C057B7F54C
:10439000C05F18BF5FEAC3730AD029B11FFA8EF35A
:1043A000ACEB0303CB5C00E00023AEF1010E3373F2
:1043B00043689E6816F4C06618BF01263540012D7B
:1043C000D4D11B7B002A1EBFA5B2ACEB050553550B
:1043D000013CCBE70020F0BD0320F0BD2DE9F0410A
:1043E00088B040F20847C2F200073C783E46002CF5
:1043F00018BF002656D10D46016844F20040C4F2B1
:1044000000009046814238D10421002C08BF391D9C
:10441000086041F24C00C4F20200C1680DF1080EC0
:1044200041F40031C160C16801F40031019101998A
:10443000016841F001010160006800F00100019095
:104440002F48019901902EA000F1040C9CE80E1059
:1044500040698EE80E10069001A94FF09040FCF7DD
:1044600013FC4EF22640CEF20000002101704EF205
:104470000410CEF2000040210160D5E900010C22B9
:1044800001900020CDE902000490CDE905200790BD
:10449000002C18BF07467868B96001A9FCF796FDA3
:1044A000012803D1012008B0BDE8F0817868416897
:1044B00021F490414160816821F02A018160016806
:1044C00041F00101016000BF0168C907FCD0018B08
:1044D00041F008010183018B41F01001018300BF0D
:1044E00050E8001F41F0200140E80012002AF7D1F7
:1044F00001203070C8F80060002008B0BDE8F081ED
:104500000C0000000200000003000000000000009A
:10451000000000000700000080B5A2B1D0F804E060
:10452000944600BFDEF81C301B06FBD5A2EB0C0343
:10453000CB5CBCF1010CAEF82830F3D1406800BF71
:10454000C1694906FCD5002080BD000000F056B8C6
:1045500042F68062CFF20F7249F680630244C3F2E2
:1045600047039A420FD801F11100C0B2272884BF37
:104570000020704701EB810045F21A11C0F60001DE
:1045800008445530704746F600434EF20112C8F613
:10459000CA03C0F2F5520344934206D201F112005D
:1045A000C0B21F2810D9002070474EF60003C7F292
:1045B000F203184490424FF00000F5D201F11202CC
:1045C000D2B2202A28BF704701EB810045F2E211E8
:1045D000C0F6000108445A307047000000F014B8DB
:1045E00000F018B800F018B800F01CB8AFF3008065
:1045F00045F28420C0F600007047000045F28C2090
:10460000C0F600007047000045F28E20C0F60000A2
:10461000704700000120704745F29620C0F6000068
:104620007047000045F2C62145F29E2249F201433F
:10463000C0F60001C0F60002C7F23573984238BFD9
:104640000A4645F2B22144F20063C0F60001C2F20C
:10465000C333984228BF11460846704745F26401AB
:10466000C0F6000101EBC0007047000080B584B0C7
:1046700044F20040C4F2000003904FF46120019026
:10468000002040F288320290C2F2000203A801A981
:10469000FFF7A4FE04B080BDB0B5C0B00A46014625
:1046A0000DF1010000F014F801280EDB40F2883013
:1046B000C2F200000DF1010504682846FBF7C6FDB3
:1046C000024620462946FFF727FF40B0B0BD000054
:1046D00037B514460846064B6A46214600F0E0F816
:1046E00004466946002000F075FC20463EBD0000EF
:1046F000D54F000802E008C8121F08C1002AFAD1ED
:1047000070477047002001E001C1121F002AFBD151
:10471000704700002DE9FF5F82B00021DDE9043021
:10472000020DDDF840B0034318D044F61050A2F259
:10473000FF3242431514119801281FD0A5EB0B003E
:10474000401C5FEA000A4FF000064E4FDFF8389138
:10475000B046504615D5CAF1000413E01198012463
:104760004AA3012801D16FEA0B010298119AC0E90E
:104770000031C0E9024206B000F08EB8CBF1000073
:10478000DFE704460021404A491842EB0450CDE9D6
:10479000001012E0E00707D032463B46404649464B
:1047A000FBF74CFE8046894632463B46104619468A
:1047B000FBF744FE06460F466410002CEAD1DDE903
:1047C0000401DDE90023BAF1000F06DAFBF736FE3B
:1047D00042464B46FBF732FE05E0FBF7A4FE42469D
:1047E0004B46FBF7A0FE04460E460022284BFBF783
:1047F00021FF03D84FF0FF30014607E00022254B90
:1048000020463146FBF76BFDFBF7FCFE102409E068
:10481000002C0ADB0A220023FBF7D2FC039B303278
:104820001A55641E50EA0102F2D1641C039AC4F1C5
:1048300011031444119A012A03D0012208430DD117
:104840000AE0084304D000204FF0110B119072E7EA
:10485000A3EB0B056D1E0DE05B4504DD4FF0000280
:1048600005F1010504E003DA4FF00002A5F10105AE
:10487000002AECD002981199C0E90231C0E9004544
:1048800079E70000000014400000F03F3000000015
:104890000000F0430000E03F30BCBDE8C09F0000D6
:1048A0002DE9FF4F95B09B468946064600250FE24D
:1048B000252877D100242746F84A0121059400E0F5
:1048C000044316F8013F203B01FA03F01042F7D1F0
:1048D00030782A2811D06FF02F033078A0F1300201
:1048E000092A16D8059A44F0020402EB820203EB6F
:1048F00042021044761C0590EFE759F8042B05920C
:10490000002A03DA504244F40054059044F00204B3
:10491000761C30782E2816D116F8010F44F00404C6
:104920002A280DD06FF02F023078A0F13003092B28
:1049300009D807EB870302EB4303C718761CF3E79C
:1049400059F8047B761C30786C280FD006DC4C2894
:1049500017D068280DD06A2814D104E0742810D02C
:104960007A280FD10DE044F400140AE044F48014D6
:1049700001E044F440147278824202D104F58014BC
:10498000761C761C307866280BD013DC582877D03C
:1049900009DC002875D04528F6D04628F4D04728F1
:1049A0001AD19DE118E0632835D0642879D06528B4
:1049B00012D195E1702873D008DC6728F1D06928FE
:1049C0006FD06E280DD06F2806D1B5E073282CD09B
:1049D000752875D0782874D05A46179990476D1C61
:1049E00075E1C4F30250022809D003280DD0D9F88C
:1049F000001004280DD00D6009F1040967E1D9F811
:104A00000010EA17C1E90052F6E7D9F800100D804E
:104A1000F2E70D70F0E719F8041B8DF80010002084
:104A20008DF80100EA46012003E059F804AB4FF08D
:104A3000FF3061074FF0000102D40DE008F10101E1
:104A40008846B9420FDA8045F8DB1AF808100029C9
:104A5000F4D108E008F1010188468142FADB1AF836
:104A600008100029F6D105985B46A0EB08072146FF
:104A70003846179A00F097FA284400EB080507E03B
:104A80004DE029E10DE01AF8010B5A4617999047BD
:104A9000B8F10108F7D25B4621463846179A13E170
:104AA00042E00A220092C4F302524FF0000A022AA6
:104AB00008D059F804CB032A4FEAEC710AD00DE074
:104AC00029E02AE009F1070121F00702F2E802C11A
:104AD000914609E00FFA8CFC4FEAEC71042A03D1ED
:104AE0004FFA8CFC4FEAEC71002907DA0A460021E4
:104AF000DCF1000C61EB02012D2202E0220504D55D
:104B00002B228DF80420012203E0E20701D02022AD
:104B1000F7E7904659E00A2102E010220DE010214B
:104B20004FF0000A00910BE010224FF0000A44F011
:104B300004040827009203E008224FF0000A0092C4
:104B4000C4F30252022A05D059F804CB0021032AEB
:104B500008D009E009F1070121F00702F2E802C1DB
:104B6000914605E01FFA8CFC042A01D10CF0FF0CE1
:104B70004FF00008220728D5702806D0009B83F04C
:104B8000100353EA0A0305D00EE040228DF80420FA
:104B9000012208E05CEA010206D030228DF80420F0
:104BA0008DF8050002229046009B83F0080353EA2B
:104BB0000A030AD15CEA010201D1620705D530225D
:104BC0008DF804204FF001087F1E582804D034A02F
:104BD00003900EA802900DE036A0F9E75346604618
:104BE000009AFBF7EDFA84460398825C0298401E17
:104BF000029002705CEA0100F0D1029806A9081A3E
:104C000000F1200A600702D524F4803400E0012777
:104C1000574502DDA7EB0A0000E0002000EB0A0187
:104C2000009005984144401A0590E00306D45B4685
:104C30002146179A059800F0B6F90544002706E0CA
:104C400001A85A46C05D179990476D1C7F1C4745C7
:104C5000F6DBE0030CD55B462146179A059800F079
:104C6000A2F9054404E030205A46179990476D1C7C
:104C70000099481E00900029F5DC08E0029802998E
:104C80005A460078491C0291179990476D1CBAF159
:104C90000001AAF1010AF1DC65E100000928010028
:104CA00030313233343536373839616263646566A2
:104CB0000000000030313233343536373839414264
:104CC000434445460000000000F05BF90544761CB3
:104CD000307800287FF4ECAD19B0284600F04EB9CA
:104CE000620700D4062709F1070222F0070CFCE84E
:104CF0000223E14603F000485FEA080C02D00FF2FD
:104D0000702C0DE05FEA045C02D50FF2682C07E01E
:104D10005FEAC47C02D00FF2602C01E0AFF2700CAD
:104D20004FF0FF3823F00043CDF850C065280CD079
:104D300006DC452809D046281DD047283DD13DE056
:104D4000662818D067287ED138E00021112F01DBBA
:104D5000112000E0781CCDE9000106A90EA8FFF79C
:104D6000D9FCDDE90F010E9A03910021009207F1B1
:104D7000010A04914DE04FF000400097CDE9011089
:104D800006A90EA8FFF7C6FCDDE90F0203920E9BF1
:104D900011990022DDF80CA00093049211B9791C3E
:104DA00000EB010AB7EB0A0004D4C0F1FF3007F1B1
:104DB000010A0490AAEB0700019044E0012F00DAF9
:104DC00001270021112F01DD112000E03846CDE937
:104DD000000106A90EA8FFF79DFCDDE90F010E9A60
:104DE0000391002104910092BA4621070CD4039943
:104DF000514500DA8A46BAF1010F05DD009AAAF1A1
:104E00000101515C302908D0B84202DA10F1040FD8
:104E100006DA0121CDE9011015E0AAF10101E9E767
:104E2000002805DC049901440491AAEB000102E08A
:104E3000411C514500DD8A460499401A401C0190EE
:104E40004FF000400290200704D40198504501DB48
:104E5000CDF8048000208DF84F0002980DF14F0727
:104E6000B0F1004F25D02B200E9002984FF0020891
:104E700000280CDA404202902D200E9007E00A2113
:104E80000298FBF7F7F93031029007F8011DB8F1ED
:104E90000001A8F10108F2DC02980028EFD1791E88
:104EA0000E980870307800F0200040F0450007F8B8
:104EB000020D12A8C01B00F107081498007800B179
:104EC000012000EB0A01019801EBE07105984144D3
:104ED000401A401E0590E00306D45B462146179A0F
:104EE000059800F060F805441498007818B15A4607
:104EF000179990476D1CE00324D55B462146179A0D
:104F0000059800F050F805441CE00498002807DBE1
:104F1000DDE90301884203DD0098405C179901E058
:104F2000179930205A469047049805F10105401C16
:104F300004900198401E019004D12E205A461799E2
:104F400090476D1CBAF10001AAF1010ADDDC05E011
:104F500017F8010B5A46179990476D1CB8F10001DC
:104F6000A8F10108F4DC5B462146179A0598ABE6E8
:104F70002D0000002B0000002000000030BCBDE828
:104F8000C08F2DE9F041044600251E4617468804CF
:104F900004D405E039462020B0476D1C641EF9D5C5
:104FA0002846BDE8F0812DE9F041044600251E4663
:104FB0009046C80301D5302700E02027880404D597
:104FC00005E041463846B0476D1C641EF9D52846B9
:104FD000BDE8F0810A68531C0B6010707047000038
:104FE000093D0000127A000024F4000048E80100A6
:104FF00090D0030020A1070000000000B1280000AD
:1050000061510000C3A20000000000000000000089
:10501000F8180300F0310600E0630C000000000007
:105020000000000001020304060708090000000058
:1050300001020304A0860100400D0300801A06004F
:1050400000350C0040420F0080841E0000093D0026
:1050500000127A000024F40000366E010048E801D6
:10506000006CDC020000004808000000000000485E
:105070000400000000000048000400000004004894
:105080000800000000040048200000000004004860
:105090001000000000040048000400000000004868
:1050A0000001000000000048000200000008004865
:1050B000800000000004004840000000000000489C
:1050C0008000000000000048400000000000004890
:1050D0002000000000040048000200000004004816
:1050E000000100000000004801000000000000482E
:1050F000020000000000004810000000000400480A
:1051000001000000000800480200000000080048FC
:1051100001000000080000070101F100000000F29A
:1051200000000000F300000000F400000000F500A3
:10513000000000F700000000F800000000F9000087
:105140000000FA00000000FB00000000FC0000006E
:1051500000FD00000000FE00000000FF0000000055
:105160000000000000010000000002000000000339
:10517000000000000300000100040000010007001F
:10518000000000080000000009000000000A000004
:1051900000000C000000000D000000000E000000E8
:1051A000000D000001000D000002000E00000200D2
:1051B0000E000003000E000004000E0000070016A1
:1051C0000101010416010102041601010106160184
:1051D000010305160101030716010104061601016A
:1051E0000407EE02000400EE02000400EF020004D7
:1051F00000F002000400F102000400F202000400CA
:10520000F202000400F402000400F602000400F7B9
:1052100002000400F802000400F902000400FA028F
:10522000000400FB02000400FC02000400FD020078
:105230000400FE02000300FF02000400000200045C
:10524000000102000000020200000004020004004D
:105250000502000400060200040007020004000822
:105260000200040009020004000A020004000B020C
:105270000004000C020003000D020001000D0200FA
:1052800000000000000600002C01000001010305E1
:1052900007101314150403000103020000000607A1
:1052A000060403040E0C0E0C0C0C0C080809090073
:1052B000EE070C0C0E0001030404030606060606A6
:1052C00006060600000002020203030405040406A9
:1052D0000505060606070600000052656365697647
:1052E0006564207061796C6F6164202873697A65E8
:1052F0003A202564292069732062696767657220F6
:105300007468616E207468652062756666657220D7
:105310002873697A653A20256429210A0020202D06
:10532000205479706520202020203D2030782530C1
:10533000325820283078303120666F72204C52313C
:105340003131302C203078303220666F72204C5250
:10535000313132302C203078303320666F72204C5F
:105360005231313231290A00202020507265616D9E
:10537000626C65206C656E677468203D2025642032
:1053800073796D626F6C2873290A004C6F5261202B
:105390006D6F64756C6174696F6E20706172616DA0
:1053A00065746572733A0A004C6F526120706163D4
:1053B0006B657420706172616D65746572733A0A11
:1053C000004C523131323120646F65736E27742086
:1053D000757365206C6174657374206669726D778E
:1053E0006172652076657273696F6E207768696394
:1053F00068206973203078253032580A004C5231C9
:10540000313130206973206F6E2076657273696F59
:105410006E203078253032782C20627574206C61D3
:1054200074657374206669726D7761726520766544
:105430007273696F6E206973203078253032580A94
:10544000004E6F2049525120726F7574696E65204D
:10545000646566696E65640A004368616E6E656CBA
:105460002061637469766974792064657465637416
:1054700065640A004E6F206368616E6E656C206122
:1054800063746976697479206465746563746564AE
:105490000A0043414420646F6E650A00474E53532F
:1054A000207363616E20646F6E650A0057692D4634
:1054B00069207363616E20646F6E650A0052782004
:1054C000646F6E650A00496E76616C696420746170
:1054D00072676574206672657175656E6379206F99
:1054E0007220706F776572206C6576656C0A00209B
:1054F00020204F757470757420706F77657220204E
:105500003D2025692064426D0A004C6F5261205293
:10551000782074696D657374616D700A004352433D
:10552000206572726F720A0046534B206C656E677D
:105530007468206572726F720A00496E20257320AC
:105540002D20257320286C696E65202564293A205A
:1055500025730A0020202042616E647769647468B4
:1055600020202020202020203D2025730A002020FC
:1055700020436F64696E672072617465202020206B
:1055800020203D2025730A002020205061636B6598
:105590007420747970652020203D2025730A002036
:1055A0002020537072656164696E67206661637460
:1055B0006F72203D2025730A0052782074696D6552
:1055C0006F75740A0020202052462066726571753E
:1055D000656E637920203D20257520487A0A0057A2
:1055E00041524E3A2000494E464F3A200045525211
:1055F0004F523A20004C52313158585F5354415465
:1056000055535F4552524F52002E2E2F2E2E2F2EC5
:105610002E2F636F6D6D6F6E2F617070735F636F90
:105620006D6D6F6E2E63001B5B306D001B5B303B3E
:1056300033316D001B5B303B33326D001B5B303B05
:1056400033336D00617070735F636F6D6D6F6E5F8C
:105650006C72313178785F66657463685F76657205
:1056600073696F6E00617070735F636F6D6D6F6EE5
:105670005F6C72313178785F73797374656D5F69CF
:105680006E697400617070735F636F6D6D6F6E5FD4
:105690006C72313178785F726164696F5F696E69CD
:1056A00074002E2E2F6D61696E5F7065722E63001F
:1056B0006F6E5F74785F646F6E65006D61696E0018
:1056C0005472616E736D6974746572004C5231313D
:1056D00058585F524144494F5F4C4F52415F4257C7
:1056E0005F323030004C52313158585F524144499A
:1056F0004F5F4C4F52415F42575F343030004C5245
:10570000313158585F524144494F5F4C4F52415FCD
:1057100042575F353030004C52313158585F52415A
:1057200044494F5F4C4F52415F42575F3830300021
:105730004C52313158585F524144494F5F4C4F529F
:10574000415F53463130004C52313158585F52411D
:1057500044494F5F4C4F52415F42575F3130004CDC
:1057600052313158585F524144494F5F4C4F52417A
:105770005F42575F3230004C52313158585F5241CE
:1057800044494F5F4C4F52415F42575F32353000C2
:105790004C52313158585F524144494F5F4C4F523F
:1057A000415F53463131004C52313158585F5241BC
:1057B00044494F5F4C4F52415F42575F3331004C79
:1057C00052313158585F524144494F5F4C4F52411A
:1057D0005F42575F3431004C52313158585F52416B
:1057E00044494F5F4C4F52415F53463132004C5257
:1057F000313158585F524144494F5F4C4F52415FDD
:1058000042575F3632004C52313158585F52414452
:10581000494F5F4C4F52415F42575F3135004C5208
:10582000313158585F524144494F5F4C4F52415FAC
:1058300042575F313235004C52313158585F524136
:1058400044494F5F4C4F52415F534635004C5231F3
:105850003158585F524144494F5F4C4F52415F436A
:10586000525F4C495F345F35004C52313158585FBC
:10587000524144494F5F4C4F52415F43525F345F46
:1058800035004C52313158585F524144494F5F4CBA
:105890004F52415F534636004C52313158585F5297
:1058A0004144494F5F4C4F52415F43525F4C495F07
:1058B000345F36004C52313158585F524144494FA1
:1058C0005F4C4F52415F43525F345F36004C523160
:1058D0003158585F524144494F5F4C4F52415F53DA
:1058E0004637004C52313158585F524144494F5F5E
:1058F0004C4F52415F43525F345F37004C5231315D
:1059000058585F524144494F5F4C4F52415F534694
:1059100038004C52313158585F524144494F5F4C26
:105920004F52415F43525F4C495F345F38004C52E5
:10593000313158585F524144494F5F4C4F52415F9B
:1059400043525F345F38004C52313158585F5241F6
:1059500044494F5F4C4F52415F534639004C5231DE
:105960003158585F524144494F5F504B545F54592E
:1059700050455F4C4F5241004C52313158585F52A4
:105980004144494F5F46414C4C4241434B5F535465
:105990004442595F5243004C52313158585F524192
:1059A00044494F5F46414C4C4241434B5F53544442
:1059B00042595F584F5343004C52313158585F524F
:1059C0004144494F5F504B545F4E4F4E45004C523F
:1059D000313158585F524144494F5F504B545F54E6
:1059E0005950455F4746534B004C52313158585F30
:1059F000524144494F5F504B545F545950455F42A8
:105A000050534B004C52313158585F524144494F2A
:105A10005F4C4F52415F4E4F5F4352004C52313109
:105A200058585F524144494F5F46414C4C424143B4
:105A30004B5F465300556E6B6E6F776E0000000033
:105A4000605A00080000002030000000F446000802
:105A5000905A000830000020E807000004470008C2
:105A600000093D0007040100C0560008D0070000EF
:105A700051450008E9450008E5450008E1450008F2
:105A8000ED4500084D450008DD4500080000000018
:040000050800018965
:00000001FF
