:020000040800F2
:10000000280800209D010008A5010008A70100089C
:10001000A9010008AB010008AD01000800000000C4
:10002000000000000000000000000000AF01000818
:10003000B101000800000000B3010008B50100088C
:10004000B7010008B7010008B7010008B7010008B0
:10005000B7010008B7010008750700080909000882
:100060004D09000891090008D5090008B7010008EA
:10007000B7010008B7010008B7010008B701000880
:10008000B7010008B7010008B7010008B701000870
:10009000B7010008B7010008B7010008190A0008F5
:1000A000B7010008B7010008B7010008B701000850
:1000B000B7010008B7010008B7010008B701000840
:1000C000B7010008B7010008B7010008B701000830
:1000D000B7010008B70100081D120008B7010008A9
:1000E000B9070008B7010008B7010008B701000808
:1000F000B7010008B7010008B7010008B701000800
:10010000B7010008B7010008B7010008B7010008EF
:10011000B7010008B7010008B7010008B7010008DF
:10012000B7010008B7010008B7010008B7010008CF
:10013000B7010008B7010008B7010008B7010008BF
:10014000B7010008F1100008B7010008B701000866
:10015000B7010008B7010008B7010008B70100089F
:10016000B7010008B7010008B7010008B70100088F
:10017000B7010008B7010008B7010008000000003F
:10018000B7010008B7010008DFF80CD000F070FAE2
:1001900000480047A52E0008280800200648804790
:1001A00006480047FEE7FEE7FEE7FEE7FEE7FEE75C
:1001B000FEE7FEE7FEE7FEE70912000889010008F6
:1001C0002DE9F05F0546002092469B46884606468C
:1001D000814640241BE0284641464746224600F01F
:1001E00073F853465A46C01A914110D31146184627
:1001F000224600F05AF82D1A67EB01084F462246B6
:100200000120002100F051F817EB00094E41201E9B
:10021000A4F10104DFDC484631462A46434600F09B
:1002200000B830BCBDE8C09F40EA01039B0703D083
:1002300009E008C9121F08C0042AFAD203E011F825
:10024000013B00F8013B521EF9D27047D2B201E0E7
:1002500000F8012B491EFBD270470022F6E710B5CB
:1002600013460A4604461946FFF7F0FF204610BD24
:10027000421C10F8011B0029FBD1801A704730B5D1
:100280000B46014600202022012409E021FA02F554
:100290009D4205D303FA02F5491B04FA02F52844EE
:1002A000151EA2F10102F1DC30BD202A04DB203A48
:1002B00000FA02F1002070479140C2F1200320FAB9
:1002C00003F3194390407047202A04DB203A21FAB7
:1002D00002F00021704721FA02F3D040C2F120025F
:1002E00091400843194670472DE9FE4F804681EA48
:1002F0000300C00F0C46009021F0004123F00045A0
:10030000B8EB0200A94105D24046214690461C4662
:100310000B46024623F00040104347D0270DC7F399
:100320000A00C3F30A510290401A019040286BDA88
:10033000C3F3130040F4801B0098924620B10023C1
:10034000D2EB030A63EB0B0B01985946C0F1400254
:100350005046FFF7AAFF06460D4650465946019AF9
:1003600000F098F910EB08006141002487EA11526F
:1003700084EAE7731A4340D0009A62B3019A012AD3
:100380004FEA075215DC001B61EB02014FF00042FF
:1003900002EA0752CDE90042001C41F580113246C5
:1003A0002B4600F098F903B000F045B840462146CE
:1003B000F9E7001B61EB0201001C41F580130018F6
:1003C0005B412018A2F5001747EB030140EAD57006
:1003D000B6196D4111E06D084FEA360645EAC07561
:1003E0004FEA0752001B61EB0201001C41F580112E
:1003F00049084FEA30000019514132462B4603B0FC
:1004000000F01CB800F058B9009801224000002309
:10041000D0EB020263EBE073009821464FEAE074F0
:10042000B8EB000061EB0401E9E783F000435BE710
:1004300081F0004158E730BCBDE8C08F30BCBDE85A
:10044000C04FFFF7DFBF2DE9FE4F81EA030404F040
:10045000004421F0004100944FF0000B23F00043D2
:1004600050EA01045ED052EA03045BD0C3F30A549D
:10047000C1F30A552C44A4F2F3340194A0FB0254B6
:10048000C1F3130141F48011C3F3130343F4801348
:1004900001FB024400FB034E840A970A44EA81549C
:1004A00047EA8357A4FB076802958D0A05FB078579
:1004B0004FEA932C04FB0C542705029D4FEA065883
:1004C00047EA1637B5EB08056EEB070C870E920E60
:1004D00047EA811742EA8312A7FB0201B6EB0B0140
:1004E00064EB00042B0D43EA0C335E1844EB1C5004
:1004F000DA465146E7FB0201C5F313044FEA0B331A
:1005000043EA14534FEA0432019C43EA0603A4F180
:100510000C040294009CCDE900B400F0DCF803B0B8
:1005200000F003B800200146F9E730BCBDE8C08FF9
:100530002DE9F04D81EA030404F0004B21F0004561
:1005400014464FF0000A23F0004150EA050220D083
:1005500054EA01021DD0C5F30A570246C5F313033E
:10056000C1F31300C1F30A5640F4801543F480131D
:10057000A7EB0608101BD64608F2FD3873EB050002
:1005800002D308F1010801E092185B41B8F1000FB5
:1005900003DA00200146BDE8F08D00204FF4801101
:1005A000064684460EE0171B73EB050705D3121BA6
:1005B00063EB050306434CEA010C49084FEA30009F
:1005C00092185B4150EA0107EDD152EA030012D0C4
:1005D00082EA040083EA0501084305D0101BAB4101
:1005E00006D20122002306E000224FF0004302E081
:1005F0006FF0010253101AEB06004CEB085110EBA0
:100600000A0041EB0B01BDE8F04D00F055B8C1F315
:100610000A52C1F3130140F2FF3341F480119A42B0
:1006200002DA00200146704740F233439A42A2F2B8
:10063000334202DC5242FFF747BEFFF736BE0000EE
:1006400030B5041E71F1000404DB4FF00044404259
:1006500064EB0101141E73F1000405DB1C464FF02E
:100660000043524263EB0403994208BF904230BDFD
:10067000064C074D06E0E06840F0010394E80700EF
:1006800098471034AC42F6D3FFF782FDFC590008BE
:100690001C5A0008202A06DBCB17203A41FA02F048
:1006A00043EAE07306E041FA02F3D040C2F12002CF
:1006B000914008431946704710B5141E73F10004A9
:1006C00008DA401C41F1000192185B411A4301D144
:1006D00020F0010010BD2DE9F04D92469B4611B16E
:1006E000B1FA81F202E0B0FA80F220329046FFF7D0
:1006F000DCFD04460F4640EA0A0041EA0B0153467E
:100700005A46084313D0114653EA010019D0C8F1E4
:1007100040025046FFF7D8FD05460E465046594662
:100720004246FFF7C2FD084305D0012004E0204601
:100730003946BDE8F08D0020054346EAE0762C43BB
:1007400037430A986305E40AA0EB08000022FD0A7B
:1007500044EA47540A3002D500200146E9E7010582
:1007600010196941DDE9084500196941BDE8F04DFE
:10077000A2E7000040F21440C4F201000168C9077A
:1007800008BF70470121016040F290010020C2F2D1
:10079000000103E03030B0F5407F0BD00A189368B9
:1007A000012BF7D1137C002BF4D09369002BF1D0EF
:1007B000D069184770470000B0B540F21445C4F244
:1007C0000105286840F290044005C2F2000416D5E5
:1007D0004FF480602860002004E000BF3030B0F5A6
:1007E000407F0CD021188A68B2F5806FF6D10A7C60
:1007F000002AF3D08A69002AF0D0C8699047286897
:10080000000516D54FF400602860002004E000BF0A
:100810003030B0F5407F0CD021188A68B2F5006FF7
:10082000F6D10A7C002AF3D08A69002AF0D0C86980
:1008300090472868C00416D54FF4805028600020E7
:1008400004E000BF3030B0F5407F0CD021188A683A
:10085000B2F5805FF6D10A7C002AF3D08A69002ABB
:10086000F0D0C86990472868800416D54FF400502E
:100870002860002004E000BF3030B0F5407F0CD08D
:1008800021188A68B2F5005FF6D10A7C002AF3D0FD
:100890008A69002AF0D0C86990472868400416D5B4
:1008A0004FF480402860002004E000BF3030B0F5F5
:1008B000407F0CD021188A68B2F5804FF6D10A7CAF
:1008C000002AF3D08A69002AF0D0C86990472868C6
:1008D000000458BFB0BD4FF400402860002003E082
:1008E0003030B0F5407F0ED021188A68B2F5004F45
:1008F000F6D10A7C002AF3D08A69002AF0D0C869B0
:10090000BDE8B0401047B0BD40F21440C4F2010051
:100910000168890758BF70470221016040F29001C9
:100920000020C2F2000103E03030B0F5407F0BD070
:100930000A189368022BF7D1137C002BF4D093692B
:10094000002BF1D0D06918477047000040F21440E6
:10095000C4F201000168490758BF704704210160D3
:1009600040F290010020C2F2000103E03030B0F507
:10097000407F0BD00A189368042BF7D1137C002B0F
:10098000F4D09369002BF1D0D0691847704700006C
:1009900040F21440C4F201000168090758BF7047D3
:1009A0000821016040F290010020C2F2000103E042
:1009B0003030B0F5407F0BD00A189368082BF7D180
:1009C000137C002BF4D09369002BF1D0D069184729
:1009D0007047000040F21440C4F201000168C906EB
:1009E00058BF70471021016040F290010020C2F210
:1009F000000103E03030B0F5407F0BD00A18936857
:100A0000102BF7D1137C002BF4D09369002BF1D07D
:100A1000D069184770470000B0B540F21445C4F2E1
:100A20000105286840F290048006C2F2000413D544
:100A300020202860002003E03030B0F5407F0BD04C
:100A400021188A68202AF7D10A7C002AF4D08A6902
:100A5000002AF1D0C86990472868400614D5402084
:100A60002860002004E000BF3030B0F5407F0BD09C
:100A700021188A68402AF7D10A7C002AF4D08A69B2
:100A8000002AF1D0C86990472868000614D5802054
:100A90002860002004E000BF3030B0F5407F0BD06C
:100AA00021188A68802AF7D10A7C002AF4D08A6942
:100AB000002AF1D0C86990472868C00515D54FF4C1
:100AC00080702860002003E03030B0F5407F0CD00B
:100AD00021188A68B2F5807FF6D10A7C002AF3D00B
:100AE0008A69002AF0D0C86990472868800558BFF5
:100AF000B0BD4FF400702860002003E03030B0F546
:100B0000407F0ED021188A68B2F5007FF6D10A7CAA
:100B1000002AF3D08A69002AF0D0C869BDE8B04045
:100B20001047B0BD80B5017A036840F2004EC4F2B0
:100B3000010E89B14BB3417A022929D001292BD06A
:100B4000B9BBDEF804109943CEF80410DEF80010AB
:100B50001943CEF8001029E0DEF800104FF0000C29
:100B60009943CEF80010DEF804109943CEF8041033
:100B70004068DEF820108143CEF82010DEF8241003
:100B800021EA0000CEF8240063E04FF0000C35E0CD
:100B9000DEF80010194302E0DEF800109943CEF8A9
:100BA0000010DEF804101943CEF804104FF0000CCA
:100BB00001E04FF0010C817A03290ED8DFE801F043
:100BC0001E021014DEF80C109943CEF80C10DEF85B
:100BD00008101943CEF8081010E00CF1020C0DE0DB
:100BE000DEF80810994302E0DEF808101943CEF849
:100BF0000810DEF80C101943CEF80C10436843B30C
:100C0000417A02290DD001290FD0C9B9DEF824108C
:100C10009943CEF82410DEF820101943CEF82010A6
:100C200010E0DEF82010194302E0DEF820109943AE
:100C3000CEF82010DEF824101943CEF8241001E07D
:100C40000CF1040C807A032805D8DFE800F00206D6
:100C50001216604680BD012080BDDEF82C0098434E
:100C6000CEF82C00DEF828001843CEF828006046A5
:100C700080BDDEF82800984302E0DEF82800184323
:100C8000CEF82800DEF82C001843CEF82C00604681
:100C900080BD00002DE9F04F0C6894FAA4F2B2FA7E
:100CA00082F234FA02F360D04FF001084FF0030CE7
:100CB0004FF00F0E19E095FAA5F5B5FA85F54B69D9
:100CC000466AAD000EFA05F7BE43AB4033434362BC
:100CD0004B6805686FEA09063540A3402B43036063
:100CE0000C68013234FA02F33FD008FA02F314EA36
:100CF0000305F5D0D1F804B0ABF10103012B16D8F0
:100D000095FAA5F6B6FA86F6D0F8089076000CFAB1
:100D100006F329EA0309D1E9023AB34043EA090399
:100D200083604368A3430AFB04F42343436095FABA
:100D3000A5F3B3FA83F30E69C7685C000CFA04F9F3
:100D400027EA0907A6403E43BBF1020FC660BFD1A8
:100D50002D0AB0D14D69066A9B000EFA03F7BE4317
:100D600005FA03F333430362B2E7002000F000B852
:100D700030BCBDE8C08F000044F6D351C1F262011F
:100D8000A0FB01014FF0FF3000EB91104EF210017B
:100D9000CEF200014860002088600520086070479E
:100DA000B0B541F208050446C028C4F202051CD1C2
:100DB000D5F88000C0F38110DFE800F0022A192383
:100DC00000F0AEF9296844F6C2722B68C1F3031132
:100DD000C0F60002515CC3F3022244F6D273C0F69F
:100DE00000039A5CC840D04014E0002012E055F89F
:100DF000080C42F200414005C0F2F40101EAE07043
:100E000008E0D5F888004FF4004101EA803001E0A5
:100E100000F086F9B4F5407F18BFB0BDD5F880105A
:100E2000C1F30121DFE801F00228172100F078F971
:100E3000296844F6C2722B68C1F30311C0F60002A0
:100E4000515CC3F3022244F6D273C0F600039A5CED
:100E5000C840D040B0BD55F8081C490542F20041D9
:100E6000C0F2F40148BF0846B0BDD5F88810890724
:100E700048BF4FF40040B0BDBDE8B04000F050B9ED
:100E800010B530281FD00C2829D003281CBF002003
:100E900010BD41F20804C4F20204D4F8800000F04E
:100EA0000300DFE800F0024E3D4700F039F9216809
:100EB00044F6C272C1F30311C0F600022368515C0C
:100EC000C3F3C22224E041F20804C4F20204D4F8BD
:100ED0008000C0F30110DFE800F00E34232D41F252
:100EE0000804C4F20204D4F88000C0F38100DFE8F3
:100EF00000F00228172100F013F9216844F6C272AD
:100F0000C1F30311C0F600022368515CC3F302224F
:100F100044F6D273C0F600039A5CC840D04010BDBE
:100F200054F8080C42F200414005C0F2F40101EA15
:100F3000E07010BDD4F888004FF4004101EA803021
:100F400010BDBDE8104000F0EBB800002DE9F047FF
:100F50000268520644BF0120BDE8F08702684FF6E0
:100F6000BF73D1E9008E22EA030CD1E9024A4CEAB0
:100F70000805D1E9046745EA0E05D1E9063245EADC
:100F80000A052E433343D1F820901A433A4342EAEC
:100F900009020260426840F604739A4342EA17422B
:100FA00000232243B3EBD42F426003D1426842F4C2
:100FB00080524260B9F5005F1CBF0020BDE8F08799
:100FC000898C01610020BDE8F087000040F200013B
:100FD000C2F2000108607047B0B504460068C0075F
:100FE00066D10D46206846F6F311CEF6FF7100EA91
:100FF000010ED5E9011CD5E9033241EA0E01A869C9
:101000001943114308432060606820F4405040EACF
:101010000C0060606869A16821F440710843A06019
:1010200044F6FF30C4F2000084424FF0000013DDAC
:1010300044F60041C4F200018C421BD045F200018D
:10104000C4F200018C4217D043F60001C4F2010142
:101050008C4215D1032016E044F20041C4F2000195
:101060008C420FD044F60001C4F200018C4207D13B
:10107000302008E0C02001E04FF44070FFF790FE00
:1010800020B915E00C20FFF7FBFE88B1296879B183
:10109000AA69B2F5004F0DD14A0802EB4000B0FB3F
:1010A000F1F04FF6F0710140C0F34200084406E051
:1010B0000120B0BD00EB5100B0FBF1F080B2E06068
:1010C0000020B0BD81B04EF21001CEF200010A68DE
:1010D00001300092009A28BF4FF0FF3030B100BFBE
:1010E0000A68D20300EBE2700028F9D101B0704722
:1010F00047F60040C4F20000016889070ED5416838
:1011000041F00201416040F2EC31C2F200014A6854
:10111000824218BF7047C86800B10047704700009E
:1011200041F20001C4F202018A68C2F3810242F274
:101130000040C0F2F400DFE802F002650E13086818
:101140000A68000702F008001ED418BBD1F894000A
:10115000C0F3032030E041F20020C0F27A00704773
:10116000CA6802F00302032A17D0022A38D008689E
:10117000012A0A68000702F0080013D418BBD1F84E
:101180009400C0F3032025E090B9D1F8940000F456
:10119000706010E0086800200EE041F20020C0F20C
:1011A0007A001DE090B9D1F8940000F4706010E06E
:1011B000086800F0F000000944F6DC71C0F6000198
:1011C00051F8200070470868002003E0086800F02C
:1011D000F000000944F6DC72C0F6000252F820006C
:1011E000CA68CB68C2F302120132B0FBF2F0C968E0
:1011F000C3F306225043C1F34161022202EB4101D5
:10120000B0FBF1F0704700004EF68850CEF20000BF
:10121000016841F4700101607047000044F2004031
:10122000C4F20000C169890644BF01685FEA8161B8
:1012300000D4704740F20042C2F20002818C536831
:10124000834218BF70479268002AF2D0C8B2104794
:1012500080B582B001A901F095FD032827D145F2A0
:10126000D450C0F6000001F03BF945F29550C0F6AD
:10127000000001F035F945F29D5C45F2E24045F28F
:10128000B15145F2EC52C0F6000CC0F60000C0F6B9
:101290000001C0F600024FF4B573CDF800C001F0B4
:1012A0001FF945F2CF50C0F6000001F019F901A86E
:1012B00000F0ACFA02B080BD2DE9F04381B003200C
:1012C00003F09EF940F24404C2F20004606300257A
:1012D000A046052028F8385FE56303F091F9206205
:1012E0004FF48070264626F8240F43F63120C0F6CE
:1012F0000000C4E90A05072003F082F9A06040F26B
:1013000001292746102027F80C9F03F079F943F2B2
:1013100000016061C4F20101606B2546216004F1A7
:101320004402414625F8189F02F012FC206A04F19D
:101330003002314602F00CFCA06804F1100239467C
:1013400002F068FD606904F11C02294602F062FDAA
:10135000206B02F075FB211D204602F0FBFE2046AB
:1013600001B0BDE8F083000040F2C830C2F20000D6
:1013700000688079162808BF704740F29830C2F2A2
:1013800000008068002102F0BDBD000040F2C830BE
:10139000C2F2000000684079162808BF704740F28A
:1013A000B030C2F200008068002102F0ABBD000046
:1013B00040F2C830C2F2000000688079162808BFE9
:1013C000704740F29830C2F200008068012102F0BC
:1013D00099BD000040F2C830C2F2000000684079B8
:1013E000162808BF704740F2B030C2F20000806893
:1013F000012102F087BD0000F0B581B040F29432C7
:10140000C2F200021378002B00F0B4810C460021D8
:101410001170694601F068FC45F2DC55C0F6000524
:10142000284601F05DF845F28E56C0F600063046BB
:1014300001F056F80099D0A001F052F845F2CF57CC
:10144000C0F60007384601F04BF8009820400090A5
:10145000284601F045F8304601F042F80099CDA049
:1014600001F03EF8384601F03BF89DF800004007D7
:1014700016D545F2DC50C0F6000001F031F845F217
:101480008E50C0F6000001F02BF8CDA001F028F836
:1014900045F2CF50C0F6000001F022F802F0A0F8AB
:1014A0009DF80000C00616D545F2DC50C0F60000DD
:1014B00001F016F845F28E50C0F6000001F010F869
:1014C000C2A001F00DF845F2CF50C0F6000001F0C7
:1014D00007F801F05DFF9DF80000400616D545F2C3
:1014E000D450C0F6000000F0FBFF45F29550C0F666
:1014F000000000F0F5FFBAA000F0F2FF45F2CF5077
:10150000C0F6000000F0ECFF01F00AFF9DF80000BB
:10151000800616D545F2DC50C0F6000000F0E0FF72
:1015200045F28E50C0F6000000F0DAFFB0A000F0E7
:10153000D7FF45F2CF50C0F6000000F0D1FF02F017
:1015400033F80098010753D501061CD4C00135D4E7
:1015500045F2DC50C0F6000000F0C2FF45F28E50AC
:10156000C0F6000000F0BCFF45F26540C0F6000088
:1015700000F0B6FF45F2CF50C0F6000000F0B0FF1B
:1015800001F044FF34E045F2D450C0F6000000F012
:10159000A7FF45F29550C0F6000000F0A1FF45F20C
:1015A000C540C0F6000000F09BFF45F2CF50C0F6EA
:1015B000000000F095FF01F007FF19E045F2D4505C
:1015C000C0F6000000F08CFF45F29550C0F6000018
:1015D00000F086FF45F2D040C0F6000000F080FF2A
:1015E00045F2CF50C0F6000000F07AFF01F05AFE3D
:1015F0009DF80100C0073FD045F2DC54C0F600045E
:10160000204600F06DFF45F28E55C0F600052846D5
:1016100000F066FF45F23A40C0F6000000F060FFBF
:1016200045F2CF50C0F6000000F05AFF009E204661
:1016300000F056FF284600F053FFB0050ED445F2E7
:101640001C40C0F6000000F04BFF45F2CF50C0F642
:10165000000000F045FF01F009FE0DE045F20140F9
:10166000C0F6000000F03CFF45F2CF50C0F600008D
:1016700000F036FF01F0DEFD9DF80100400719D5AE
:1016800045F2E450C0F6000000F02AFF45F2875012
:10169000C0F6000000F024FF45F26150C0F60000E3
:1016A00000F01EFF45F2CF50C0F6000000F018FF1A
:1016B00001F03AFF9DF80300000719D545F2DC5010
:1016C000C0F6000000F00CFF45F28E50C0F600009E
:1016D00000F006FF45F2B240C0F6000000F000FF47
:1016E00045F2CF50C0F6000000F0FAFE01F034FEE3
:1016F0009DF80200C00619D545F2DC50C0F6000086
:1017000000F0EEFE45F28E50C0F6000000F0E8FE5C
:1017100045F25440C0F6000000F0E2FE45F2CF5022
:10172000C0F6000000F0DCFE01F0B6FF9DF80200FC
:10173000000719D545F2DC50C0F6000000F0D0FEDD
:1017400045F28E50C0F6000000F0CAFE45F244405B
:10175000C0F6000000F0C4FE45F2CF50C0F6000015
:1017600000F0BEFE01F0C0FD45F28550C0F600005D
:1017700000F0B6FE01B0F0BD496E7465727275700E
:101780007420666C616773203D20307825303858AE
:101790000A000000496E7465727275707420666C80
:1017A000616773202861667465722066696C746570
:1017B00072696E6729203D203078253038580A003C
:1017C000547820646F6E650A0000000050726561F5
:1017D0006D626C652064657465637465640A0000FD
:1017E000486561646572206572726F720A0000005C
:1017F00053796E63776F7264206F722068656164DD
:1018000065722076616C69640A000000F0B581B0F1
:1018100045F2DC55C0F600050446284600F060FE9F
:1018200045F28E57C0F60007384600F059FE4FA02B
:1018300000F056FE45F2CF56C0F60006304600F0E6
:101840004FFE284600F04CFE384600F049FE618805
:101850004CA000F045FE304600F042FE284600F065
:101860003FFE384600F03CFE21784CA000F038FEE8
:10187000304600F035FE284600F032FE384600F0D3
:101880002FFE617845F2C520C0F6000000F028FE6A
:10189000304600F025FE607801281ED16088B0F542
:1018A000427F1AD045F2E450C0F6000000F018FE66
:1018B00045F28750C0F6000000F012FE618845F244
:1018C000A530C0F600004FF4427200F009FE45F268
:1018D000CF50C0F6000000F003FE607802281AD155
:1018E0006088B0F5817F16D045F2E450C0F6000064
:1018F00000F0F6FD45F28750C0F6000000F0F0FD64
:101900002CA04FF4817100F0EBFD45F2CF50C0F6F2
:10191000000000F0E5FD607803281DD16088B0F577
:10192000817F19D045F2E450C0F6000000F0D8FDE8
:1019300045F28750C0F6000000F0D2FD45F2693054
:10194000C0F600004FF4817100F0CAFD45F2CF509F
:10195000C0F6000000F0C4FD45F28550C0F600005E
:1019600001B0BDE8F04000F0BBBD00BF4C523131CA
:10197000787820696E666F726D6174696F6E3A0A6D
:101980000000000020202D204669726D776172658D
:10199000203D203078253034580A000020202D20AA
:1019A0004861726477617265203D2030782530325D
:1019B000580A00004C523131323020646F65736E2A
:1019C000277420757365206C617465737420666973
:1019D000726D776172652076657273696F6E2077BC
:1019E00068696368206973203078253032580A00AE
:1019F0002DE9F04182B040F20807C2F200074AF236
:101A000000163A68C3F2BC360446304614219047AB
:101A1000002800F0C081054601F05AFE2046022150
:101A200000F0E0FF45F29D580328C0F6000823D1DE
:101A300045F2D450C0F6000000F052FD45F295503A
:101A4000C0F6000000F04CFD45F2E24045F2B15115
:101A500045F22C62C0F60000C0F60001C0F600029C
:101A600040F29D13CDF8008000F03AFD45F2CF50D2
:101A7000C0F6000000F034FD2046314600F0C6FFFD
:101A8000032823D145F2D450C0F6000000F028FD11
:101A900045F29550C0F6000000F022FD45F2E2400C
:101AA00045F2B15145F22C62C0F60000C0F60001CB
:101AB000C0F600024FF4CF73CDF8008000F010FDA7
:101AC00045F2CF50C0F6000000F00AFD79683046BC
:101AD00088470146204600F0B7FF032823D145F28E
:101AE000D450C0F6000000F0FBFC45F29550C0F663
:101AF000000000F0F5FC45F2E24045F2B15145F23C
:101B00002C62C0F60000C0F60001C0F600024FF4DF
:101B1000D073CDF8008000F0E3FC45F2CF50C0F662
:101B2000000000F0DDFC691C204600F047FF0328A0
:101B300023D145F2D450C0F6000000F0D1FC45F2AC
:101B40009550C0F6000000F0CBFC45F2E24045F2B3
:101B5000B15145F22C62C0F60000C0F60001C0F69B
:101B6000000240F2A113CDF8008000F0B9FC45F26C
:101B7000CF50C0F6000000F0B3FC95F900102046ED
:101B8000022201F019F8032823D145F2D450C0F6FF
:101B9000000000F0A5FC45F29550C0F6000000F0F2
:101BA0009FFC45F2E24045F2B15145F22C62C0F68D
:101BB0000000C0F60001C0F600024FF4D173CDF86A
:101BC000008000F08DFC45F2CF50C0F6000000F020
:101BD00087FC2046012100F0B9FF032823D145F2FC
:101BE000D450C0F6000000F07BFC45F29550C0F6E2
:101BF000000000F075FC45F2E24045F2B15145F2BB
:101C00002C62C0F60000C0F60001C0F6000240F2EF
:101C1000A313CDF8008000F063FC45F2CF50C0F66E
:101C2000000000F05DFC20460021002500F016FDBC
:101C3000032823D145F2D450C0F6000000F050FC38
:101C400045F29550C0F6000000F04AFC45F2E24033
:101C500045F2B15145F22C62C0F60000C0F6000119
:101C6000C0F600024FF4D273CDF8008000F038FCCB
:101C700045F2CF50C0F6000000F032FC01F0C0FD8C
:101C800040F20401C2F200012046CD7000F054FE83
:101C9000032823D145F2D450C0F6000000F020FC08
:101CA00045F29550C0F6000000F01AFC45F2E24003
:101CB00045F2B15145F22C62C0F60000C0F60001B9
:101CC000C0F6000240F2AB13CDF8008000F008FC33
:101CD00045F2CF50C0F6000000F002FC45F2BC0116
:101CE000C0F60001204600F03BFE032823D145F258
:101CF000D450C0F6000000F0F3FB45F29550C0F65A
:101D0000000000F0EDFB45F2E24045F2B15145F232
:101D10002C62C0F60000C0F60001C0F600024FF4CD
:101D2000D673CDF8008000F0DBFB45F2CF50C0F653
:101D3000000000F0D5FB2046122100F02BFE032806
:101D40001CBF02B0BDE8F08145F2D450C0F60000DF
:101D500000F0C6FB45F29550C0F6000000F0C0FB55
:101D600045F2E24045F2B15145F22C62C0F6000066
:101D7000C0F60001C0F6000240F2AD13CDF80080BD
:101D800000F0AEFB45F2CF50C0F6000002B0BDE857
:101D9000F04100F0A5BB45F2D450C0F6000000F0C1
:101DA0009FFB45F29550C0F6000000F099FB45F20C
:101DB0006E40C0F6000000F093FB45F2CF50C0F635
:101DC000000000F08DFB00BFFEE700002DE9F043AE
:101DD00083B00E4602A91D461746804600F092FCCD
:101DE0009DF80830BB422B7014D945F2D450C0F690
:101DF000000000F075FB45F29550C0F6000000F0C1
:101E00006FFB297845F28220C0F600003A4600F0C8
:101E100067FB6DE09DF809204046314600F0E2FE88
:101E20002A7838A03CA100F05BFB2878B8B145F2D5
:101E300085590027C0F600093BA407E0F15D204664
:101E400000F04EFB28780137874208D2002FF5D0EA
:101E500017F00F00F2D1484600F042FBEEE745F2E2
:101E60008550C0F6000000F03BFB45F2DC55C0F6A3
:101E70000005284600F034FB45F28E56C0F60006F9
:101E8000304600F02DFB2AA000F02AFB45F2CF5788
:101E9000C0F60007384600F023FB01A9404600F0D9
:101EA00005FC284600F01CFB304600F019FB9DF9AC
:101EB000041023A000F014FB384600F011FB284664
:101EC00000F00EFB304600F00BFB9DF9061023A03E
:101ED00000F006FB384600F003FB284600F000FB4C
:101EE000304600F0FDFA9DF9051025A000F0F8FA43
:101EF00045F2CF50C0F6000000F0F2FA03B0BDE8A2
:101F0000F08300BF2573202D2028256C7520627971
:101F1000746573293A0A00005061636B657420632D
:101F20006F6E74656E74000020253032580000001A
:101F30005061636B6574207374617475733A0A0041
:101F400020202D2052535349207061636B6574200B
:101F50003D2025692064426D0A00000020202D20CC
:101F60005369676E616C2052535349207061636BF3
:101F70006574203D2025692064426D0A0000000040
:101F800020202D20534E52207061636B6574203DDC
:101F90002025692064420A00B0B582B0044600F0F2
:101FA00011FF032826D145F2D450C0F6000000F0FE
:101FB00097FA45F29550C0F6000000F091FA45F20C
:101FC0009D5545F2E24045F2B15145F20D62C0F631
:101FD0000005C0F60000C0F60001C0F6000240F2A5
:101FE0004513009500F07CFA45F2CF50C0F6000092
:101FF00000F076FA40F20805C2F20005E868804772
:102000000146204600F01EFF032827D145F2D45098
:10201000C0F6000000F064FA45F29550C0F60000EA
:1020200000F05EFA45F29D5C45F2E24045F2B151A6
:1020300045F20D62C0F6000CC0F60000C0F60001CB
:10204000C0F6000240F24913CDF800C000F048FA93
:1020500045F2CF50C0F6000000F042FAA868804771
:102060000146204600F0B0FE032827D145F2D450A7
:10207000C0F6000000F034FA45F29550C0F60000BA
:1020800000F02EFA45F29D5C45F2E24045F2B15176
:1020900045F20D62C0F6000CC0F60000C0F600016B
:1020A000C0F600024FF4A673CDF800C000F018FA95
:1020B00045F2CF50C0F6000000F012FA28698047C0
:1020C000017871B341784268204600F0CFFE0328C2
:1020D00027D145F2D450C0F6000000F001FA45F2D5
:1020E0009550C0F6000000F0FBF945F29D5C45F20A
:1020F000E24045F2B15145F20D62C0F6000CC0F667
:102100000000C0F60001C0F6000240F25113CDF805
:1021100000C000F0E5F945F2CF50C0F6000000F035
:10212000DFF96869804701784278204600F094FD25
:10213000032826D145F2D450C0F6000000F0D0F9B3
:1021400045F29550C0F6000000F0CAF945F29D55E1
:1021500045F2E24045F2B15145F20D62C0F600058C
:10216000C0F60000C0F60001C0F6000240F25513B0
:10217000009500F0B5F945F2CF50C0F6000000F030
:10218000AFF9204600F080FD032826D145F2D45057
:10219000C0F6000000F0A4F945F29550C0F600002A
:1021A00000F09EF945F29D5545F2E24045F2B151ED
:1021B00045F20D62C0F60005C0F60000C0F6000151
:1021C000C0F6000240F25713009500F089F945F27D
:1021D000CF50C0F6000000F083F920463F2100F008
:1021E00027FD032826D145F2D450C0F6000000F0A8
:1021F00077F945F29550C0F6000000F071F945F20C
:102200009D5545F2E24045F2B15145F20D62C0F6EE
:102210000005C0F60000C0F60001C0F600024FF451
:10222000AC73009500F05CF945F2CF50C0F60000A9
:1022300000F056F90DF10601204600F087FD032855
:1022400026D145F2D450C0F6000000F049F945F21D
:102250009550C0F6000000F043F945F29D5545F257
:10226000E24045F2B15145F20D62C0F60005C0F6FC
:102270000000C0F60001C0F6000240F25B130095BA
:1022800000F02EF945F2CF50C0F6000000F028F91A
:10229000204600F0F9FC032826D145F2D450C0F6C0
:1022A000000000F01DF945F29550C0F6000000F066
:1022B00017F945F29D5545F2E24045F2B15145F21C
:1022C0000D62C0F60005C0F60000C0F60001C0F6C1
:1022D00000024FF4AE73009500F002F945F2CF50C2
:1022E000C0F6000000F0FCF84CF6FC71C0F6FF31BF
:1022F000204600F0DBFC032826D145F2D450C0F67E
:10230000000000F0EDF845F29550C0F6000000F036
:10231000E7F845F29D5545F2E24045F2B15145F2EC
:102320000D62C0F60005C0F60000C0F60001C0F660
:10233000000240F25D13009500F0D2F845F2CF5054
:10234000C0F6000000F0CCF802B0B0BD70B500F0EF
:1023500097F845F2DC54C0F60004204600F0C0F8BF
:1023600045F28E55C0F60005284600F0B9F800F099
:10237000C7F801460DA000F0B3F845F2CF56C0F6FD
:102380000006304600F0ACF8204600F0A9F82846D8
:1023900000F0A6F845F28550C0F6000000F0A0F865
:1023A0003046BDE8704000F09BB800BF4C52313160
:1023B0005858206472697665722076657273696F09
:1023C0006E3A2025730A000010B540F20800C2F2F0
:1023D0000000806980470146407940F2C834C2F26B
:1023E0000004162821600ED002F00AF940F2B03144
:1023F000C2F200014FF40073086001F1080221F8F5
:10240000043F01F007FD2068807916280ED002F005
:10241000F7F840F29831C2F200014FF400730860FF
:1024200001F1080221F8043F01F0F4FC2068C079B2
:1024300016280ED002F0E4F840F2A431C2F20001F6
:102440004FF40073086001F1080221F8043F01F025
:10245000E1FC20680079162808BF10BD02F0D0F812
:1024600040F2BC31C2F200014FF40073086001F188
:10247000080221F8043FBDE8104001F0CBBC000089
:1024800080B507A000F02CF807A000F029F808A0FC
:102490000CA100F025F810A0BDE8804000F020B8A5
:1024A0001B5B303B33326D00494E464F3A200000F3
:1024B00053444B2076657273696F6E3A2025730A18
:1024C00000000000322E302E312D342D6763393656
:1024D00034393636000000001B5B306D0000000010
:1024E00083B080B581B00DF10C0C8CE80E0003A90F
:1024F000009102F0C3F801B0BDE8804003B070471E
:1025000000A0704776322E322E300000F0B581B038
:1025100015460E4604460DF1030700BF606C3946B0
:1025200001F0DEFA9DF803000128F7D020690021B0
:1025300001F0E8FC6068002132462B4601F0C8FE3D
:102540002069012101F0DEFC002001B0F0BD000097
:102550002DE9F04381B0DDF82080994617460E46FC
:10256000044600200DF102058DF801008DF80000F1
:10257000606C294601F0B4FA9DF802000128F7D0FA
:102580002069002101F0BEFC6068314600223B4614
:1025900001F09EFE2069012101F0B4FC0DF103055C
:1025A000606C294601F09CFA9DF803000128F7D0E1
:1025B0002069002101F0A6FC60680DF101016A4666
:1025C000012301F085FE606800214A46434601F080
:1025D0007FFE2069012101F095FC002001B0BDE8DB
:1025E000F083000010B50446C069002101F08AFCA8
:1025F0000120FEF767FDE069012101F083FC002066
:1026000010BD00002DE9F04381B0DDF8208099462F
:1026100017460E4604460DF1030500BF606C2946BF
:1026200001F05EFA9DF803000128F7D0206900212F
:1026300001F068FC6068314600223B4601F048FE2C
:10264000606849460022434601F042FE20690121AC
:1026500001F058FC002001B0BDE8F08380B582B0E5
:1026600042F20272ADF805208DF807104FF0000C11
:102670000DF1050103220023CDF800C0FFF7C2FFD2
:1026800002B080BD0138C1B2022982BF45F6F21006
:10269000C0F60000704740B201A151F82000704719
:1026A0003559000854590008D9590008B0B584B00C
:1026B0000C4640F20241ADF80E1000254FF0030C1D
:1026C0000DF10E010DF10A0302228DF80C50ADF848
:1026D0000A50CDF800C0FFF73BFF08B104B0B0BD11
:1026E0009DF80A109DF80C20A5EB510121709DF971
:1026F0000B10023189086170A5EB5201A17004B082
:10270000B0BD0000B0B582B00D4640F20231ADF868
:1027100006100021ADF8041002240DF1060101ABF2
:1027200002220094FFF714FF08B102B0B0BDBDF85B
:102730000410298002B0B0BD0138C1B20E2982BF99
:1027400045F6F210C0F60000704740B201A151F802
:1027500020007047C357000864570008AB570008B3
:10276000DB57000834570008BB560008F259000830
:10277000045700081C5700087C570008F25900084D
:10278000F259000889560008A2560008D4560008DD
:10279000072882BF45F6F210C0F60000704740B22D
:1027A00001A151F820007047C159000826580008BF
:1027B00071580008A0580008EB5800080A58000893
:1027C00055580008CF58000845F6F21205A1C0F68A
:1027D0000002012808BF0A4609A1002818BF1146B7
:1027E000084670474C52313158585F524144494F66
:1027F0005F4C4F52415F4352435F4F4E0000000019
:102800004C52313158585F524144494F5F4C4F52FE
:10281000415F4352435F4F464600000045F6F212C7
:1028200005A1C0F60002012808BF0A460AA1002837
:1028300018BF1146084670474C52313158585F5204
:102840004144494F5F4C4F52415F49515F494E5699
:1028500045525445440000004C52313158585F52A3
:102860004144494F5F4C4F52415F49515F5354417E
:102870004E4441524400000045F6F21205A1C0F654
:102880000002012808BF0A460AA1002818BF114605
:10289000084670474C52313158585F524144494FB5
:1028A0005F4C4F52415F504B545F494D504C494330
:1028B000495400004C52313158585F524144494FFD
:1028C0005F4C4F52415F504B545F4558504C494309
:1028D000495400000538C1B2072982BF45F6F210FD
:1028E000C0F60000704740B201A151F820007047C7
:1028F000F45700083F5800088A580008B9580008E3
:1029000004590008ED5600084D5700089457000878
:10291000032882BF45F6F210C0F60000704740B2AF
:1029200001A151F820007047755900088B59000823
:102930001A590008A659000880B584B0096840F605
:102940000272ADF80A2003914FF0000C0DF10A015C
:1029500006220023CDF800C0FFF754FE04B080BD6E
:1029600080B584B00B8841F20202ADF808201ABA93
:10297000D1F80210120CADF80A2003914FF0000CB0
:1029800002A908220023CDF800C0FFF73BFE04B0E7
:1029900080BD000080B582B042F60232ADF805205D
:1029A0008DF807104FF0000C0DF1050103220023F4
:1029B000CDF800C0FFF726FE02B080BD80B584B020
:1029C000096841F20252ADF80A2003914FF0000C61
:1029D0000DF10A0106220023CDF800C0FFF712FE18
:1029E00004B080BD80B582B040F60262ADF805202B
:1029F0008DF807104FF0000C0DF1050103220023A4
:102A0000CDF800C0FFF7FEFD02B080BD80B584B0F8
:102A100040F60232ADF80A200A0E8DF80C200A0C9E
:102A20008DF80D200A0A8DF80E208DF80F104FF04A
:102A3000000C0DF10A0106220023CDF800C0FFF7BB
:102A4000E1FD04B080BD000080B586B042F6021200
:102A5000ADF80B200A784B7891F802C002F00F0213
:102A600091F803E042EA03128DF80D200CF00F02FA
:102A700042EA0E128DF80E200A794B7902F00F020D
:102A800042EA03128DF80F208A79CB7902F00F0207
:102A900042EA03128DF810200A7A4B7A02F00F02F4
:102AA00042EA03128DF811208A7ACB7A02F00F02E3
:102AB00042EA03128DF812200A7B4B7B91F80EC07C
:102AC00002F00F0291F80FE042EA03120B7C498AF0
:102AD0008DF813200CF00F0242EA0E1209BA8DF89D
:102AE000142003F00F02090C8DF81520ADF8161014
:102AF0004FF0000C0DF10B010D220023CDF800C0AA
:102B0000FFF780FD06B080BD80B584B044F6D35297
:102B1000C903C1F26202A1FB021240F6021391093D
:102B2000ADF80B30930D920B8DF80D308DF80E2013
:102B30008DF80F104FF0000C0DF10B010522002352
:102B4000CDF800C0FFF75EFD04B080BD80B582B057
:102B500041F20232ADF805208DF807104FF0000C5D
:102B60000DF1050103220023CDF800C0FFF74AFD57
:102B700002B080BD80B584B044F6D352C903C1F21F
:102B80006202A1FB021240F602239109ADF80B305C
:102B9000930D920B8DF80D308DF80E208DF80F10DF
:102BA0004FF0000C0DF10B0105220023CDF800C001
:102BB000FFF728FD04B080BD80B582B041F202135A
:102BC000ADF804308DF806108DF807204FF0000C9A
:102BD00001A904220023CDF800C0FFF713FD02B0C5
:102BE00080BD000080B582B09C460B4640F60121B6
:102BF000ADF804108DF8062001A904228DF807C055
:102C0000CDF800C0FFF7A4FC02B080BD80B582B053
:102C10000B4640F601119446ADF806100DF1060181
:102C20000222CDF800C0FFF7EDFC02B080BD00002D
:102C300080B582B040F60172ADF805208DF807101E
:102C40004FF0000C0DF1050103220023CDF800C068
:102C5000FFF7D8FC02B080BD80B582B041F20163BD
:102C6000ADF80530002A18BF41F004018DF80710B7
:102C70004FF0000C0DF1050103220023CDF800C038
:102C8000FFF7C0FC02B080BD80B582B040F60161A4
:102C9000ADF806104FF0000C0DF1060102220023E2
:102CA000CDF800C0FFF7AEFC02B080BD80B584B0A7
:102CB00041F20142ADF80A200A0E8DF80C200A0CF0
:102CC0008DF80D200A0A8DF80E208DF80F104FF0A8
:102CD000000C0DF10A0106220023CDF800C0FFF719
:102CE00091FC04B080BD000070B584B00C4601A911
:102CF00006220546FFF70AFC10B1002620B11EE0AF
:102D0000DDF806100EBAD0B9CEB141F20140ADF8EF
:102D10000A00300E8DF80C00300C8DF80D00300AD2
:102D20008DF80E004FF0000C0DF10A012846062226
:102D300000238DF80F60CDF800C0FFF763FC14B1DD
:102D4000002808BF266004B070BD0000B0B584B094
:102D50000D4640F60151ADF80E10002102910224FB
:102D60000DF10E0102AB02220094FFF7F1FB08B156
:102D700004B0B0BDBDF8081009BA090C298004B030
:102D8000B0BD000010B584B00C4640F20111ADF8A2
:102D90000E10002102914FF0040C0DF10E0102AB58
:102DA0000222CDF800C0FFF7D3FB08B104B010BD7C
:102DB000BDF80810BDF80A20218011BA090C618005
:102DC00004B010BDFFF70EBC80B584B041F2012203
:102DD000ADF806200A684968029203914FF0000C92
:102DE0000DF106010A220023CDF800C0FFF70AFC0E
:102DF00004B080BD80B584B041F20133ADF8063037
:102E00000B0E8DF808300B0C8DF809300B0A8DF87D
:102E10000B10110E8DF80C10110C8DF80D10110AFD
:102E20008DF80A308DF80E108DF80F204FF0000C41
:102E30000DF106010A220023CDF800C0FFF7E2FBE6
:102E400004B080BD80B582B041F20102ADF805202A
:102E50008DF807104FF0000C0DF10501032200233F
:102E6000CDF800C0FFF7CEFB02B080BD80B584B0C6
:102E70008DF80C10110C41F201738DF80D10110A30
:102E8000ADF80A308DF80E108DF80F204FF0000CC1
:102E90000DF10A0106220023CDF800C0FFF7B2FBB6
:102EA00004B080BD82B040F2DC4AC0F2001A01F0EA
:102EB000BFF8FFF789FA44F23D60C0F6000001F068
:102EC000A7FB45F2DC50C0F60000FFF709FB45F216
:102ED0008E50C0F60000FFF703FBBBA0FFF700FB1E
:102EE00045F2CF50C0F60000FFF7FAFAFFF72EFACE
:102EF000FEF7E2F940F28C08C2F20008C8F80000C0
:102F0000FFF74AF8D8F80000FEF7A2F9D8F8000059
:102F1000FEF76EFDD8F8000051460022FFF76AFF69
:102F2000032825D145F2D450C0F60000FFF7D8FAA7
:102F300045F29550C0F60000FFF7D2FA45F2E240A4
:102F400045F2676145F2716245F29D57C0F6000097
:102F5000C0F60001C0F600023623C0F60007009755
:102F6000FFF7BEFA45F2CF50C0F60000FFF7B8FAFF
:102F7000D8F800004CF6FC71C0F6FF31FFF796FE62
:102F8000032825D145F2D450C0F60000FFF7A8FA77
:102F900045F29550C0F60000FFF7A2FA45F2E24074
:102FA00045F2676145F2716245F29D57C0F6000037
:102FB000C0F60001C0F600023723C0F600070097F4
:102FC000FFF78EFA45F2CF50C0F60000FFF788FAFF
:102FD00040F2280B0120C2F2000B00BF0BF80000EA
:102FE00001301928FAD145F2DC56C0F60006304609
:102FF000FFF776FA45F28E57C0F600073846FFF71E
:103000006FFA45F24A60C0F60000FFF769FA45F230
:10301000CF54C0F600042046FFF762FA40F2FC35B8
:1030200045F26469C2F20005C0F600090BE000BF7A
:1030300040F2254140F2FC350020C2F20001C2F20C
:10304000000508702870D8F800005146FEF7D4F942
:1030500028780128F7D13046FFF742FA3846FFF7C3
:103060003FFA64A0FFF73CFA2046FFF739FA40F236
:103070000C48C2F200084046FDF7FAF800F0FE01E5
:10308000C5B2192988BF1925584641462A46DA464D
:10309000FDF7CAF83046FFF723FA3846FFF720FA63
:1030A0005FA0FFF71DFA2046FFF71AFA9DB1AAF1BB
:1030B0000108AB463046FFF713FA3846FFF710FA1F
:1030C00018F8011F4846FFF70BFA2046FFF708FAE9
:1030D000BBF1010BEED13046FFF702FA3846FFF79D
:1030E000FFF945F28550C0F60000FFF7F9F92046D8
:1030F000FFF7F6F9192DD34605D20BEB0500C5F104
:103100001901FDF7AAF840F28C08C2F20008D8F8BD
:10311000000059461922FFF779FD032822D145F214
:10312000D450C0F60000FFF7DBF945F29550C0F629
:103130000000FFF7D5F945F2E24045F2676145F23C
:10314000766245F29D55C0F60000C0F60001C0F65B
:1031500000027E23C0F600050095FFF7C1F9204666
:10316000FFF7BEF9FEF736F9D8F800000021FFF7A7
:1031700001FD40F2DC4A0328C0F2001A7FF458AF88
:1031800045F2D450C0F60000FFF7AAF945F2955079
:10319000C0F60000FFF7A4F945F2E24045F267618E
:1031A00045F2766245F29D55C0F60000C0F600017A
:1031B000C0F600028123C0F600050095FFF790F9E4
:1031C0002046FFF78DF933E73D3D3D3D3D204C6FF7
:1031D0005261206578616D706C65202D2D20776FB0
:1031E000726B2077697468204D4F53343D3D3D3DEF
:1031F0003D0A0A0055415254206461746120726591
:103200006365697665642C20707265706172696EA1
:103210006720746F2073656E642E2E2E0A000000E6
:1032200053656E64696E6720737472696E673A20C5
:103230000000000080B545F2DC50C0F60000FFF74A
:103240004FF945F28E50C0F60000FFF749F945F2FC
:10325000E930C0F60000FFF743F945F2CF50C0F661
:103260000000BDE88040FFF73BB9000080B545F2A3
:10327000DC50C0F60000FFF733F945F28E50C0F67F
:103280000000FFF72DF945F2E930C0F60000FFF726
:1032900027F945F2CF50C0F60000BDE88040FFF7A7
:1032A0001FB9000080B545F2DC50C0F60000FFF702
:1032B00017F945F28E50C0F60000FFF711F905A08E
:1032C000FFF70EF945F2CF50C0F60000BDE8804090
:1032D000FFF706B96F6E5F66736B5F6C656E5F6557
:1032E00072726F720A00000080B545F2DC50C0F6C1
:1032F0000000FFF7F5F845F28E50C0F60000FFF72A
:10330000EFF845F2E930C0F60000FFF7E9F845F2C2
:10331000CF50C0F60000BDE88040FFF7E1B80000E4
:1033200080B545F2DC50C0F60000FFF7D9F845F251
:103330008E50C0F60000FFF7D3F845F2E930C0F632
:103340000000FFF7CDF845F2CF50C0F60000BDE811
:103350008040FFF7C5B8000080B545F2DC50C0F6EC
:103360000000FFF7BDF845F28E50C0F60000FFF7F1
:10337000B7F845F2E930C0F60000FFF7B1F845F2C2
:10338000CF50C0F60000BDE88040FFF7A9B80000AC
:1033900080B545F2DC50C0F60000FFF7A1F845F219
:1033A0008E50C0F60000FFF79BF845F2E930C0F6FA
:1033B0000000FFF795F845F2CF50C0F60000BDE8D9
:1033C0008040FFF78DB8000080B545F2DC50C0F6B4
:1033D0000000FFF785F845F28E50C0F60000FFF7B9
:1033E0007FF805A0FFF77CF845F2CF50C0F600004B
:1033F000BDE88040FFF774B86F6E5F72785F6372EC
:10340000635F6572726F720A00000000F0B581B0F0
:10341000FDF7AAFF40F28C00C2F2000040F228043F
:103420000068C2F200040DF1030321461922FEF7E1
:10343000CDFC45F2DC55C0F600052846FFF750F8F4
:1034400045F28E56C0F600063046FFF749F82CA02C
:10345000FFF746F845F2CF57C0F600073846FFF7AA
:103460003FF82846FFF73CF83046FFF739F829A027
:10347000FFF736F83846FFF733F89DF8030080B1C0
:1034800045F264654FF0FF36C0F60005A01941789B
:103490002846FFF725F89DF80300B11C013681424C
:1034A000F4D345F2DC54C0F600042046FFF718F8C8
:1034B00045F28E55C0F600052846FFF711F845F293
:1034C0008550C0F60000FFF70BF845F2CF56C0F666
:1034D00000063046FFF704F8FDF758FF2046FEF7D8
:1034E000FFFF2846FEF7FCFF45F24A60C0F60000E9
:1034F000FEF7F6FF3046FEF7F3FF01B0F0BD00BF68
:1035000052656365697665207375636365737321BE
:103510000A0000005B5358313237385D2044617433
:10352000613A09090000000080B582B0FDF740FF54
:1035300040F28C00C2F20000006841F28831FFF7CF
:10354000E3FA03281CBF02B080BD45F2D450C0F698
:103550000000FEF7C5FF45F29550C0F60000FEF7EB
:10356000BFFF45F29D5C45F2E24045F26761C0F65F
:10357000000CC0F60000C0F6000107A2A823CDF899
:1035800000C0FEF7ADFF45F2CF50C0F6000002B01C
:10359000BDE88040FEF7A4BF6F6E5F72785F74690C
:1035A0006D656F757400000080B545F2DC50C0F6A3
:1035B0000000FEF795FF45F28E50C0F60000FEF7C2
:1035C0008FFF45F2E930C0F60000FEF789FF45F2B3
:1035D000CF50C0F60000BDE88040FEF781BF00007C
:1035E00080B582B045F2DC50C0F60000FEF778FFEF
:1035F00045F28E50C0F60000FEF772FF1FA0FEF7E6
:103600006FFF45F2CF50C0F60000FEF769FFFDF7EF
:10361000CFFE40F28C00C2F20000006841F2883117
:10362000FFF772FA03281CBF02B080BD45F2D450E8
:10363000C0F60000FEF754FF45F29550C0F60000BA
:10364000FEF74EFF45F29D5C45F2E24045F26761B0
:10365000C0F6000CC0F60000C0F600010BA28B23E0
:10366000CDF800C0FEF73CFF45F2CF50C0F6000099
:1036700002B0BDE88040FEF733BF00BF545820635E
:103680006F6D706C657465640A0000006F6E5F7426
:10369000785F646F6E65000080B545F2DC50C0F65F
:1036A0000000FEF71DFF45F28E50C0F60000FEF749
:1036B00017FF45F2E930C0F60000FEF711FF45F2B2
:1036C000CF50C0F60000BDE88040FEF709BF000003
:1036D00070B545F2DC54C0F600042046FEF700FF4A
:1036E00045F28E55C0F600052846FEF7F9FE32A0D9
:1036F000FEF7F6FE45F2CF56C0F600063046FEF75E
:10370000EFFE2046FEF7ECFE2846FEF7E9FE02201B
:10371000FFF7FEF8014645F23050C0F60000FEF714
:10372000DFFE3046FEF7DCFE2046FEF7D9FE2846D7
:10373000FEF7D6FE45F26D504AF20011C0F60000C9
:10374000C3F2BC31FEF7CCFE3046FEF7C9FE204680
:10375000FEF7C6FE2846FEF7C3FE45F29740C0F6C8
:1037600000001421FEF7BCFE3046FEF7B9FE2046ED
:10377000FEF7B6FE2846FEF7B3FE0120FEF782FFF5
:10378000014612A0FEF7ACFE3046FEF7A9FE204629
:10379000FEF7A6FE2846FEF7A3FE12A0FEF7A0FE47
:1037A0003046FEF79DFE45F28550C0F60000BDE8AC
:1037B0007040FEF795BE00BF436F6D6D6F6E207059
:1037C0006172616D65746572733A0A00202020464B
:1037D000616C6C6261636B206D6F6465203D2025B8
:1037E000730A0000202020527820626F6F737420CB
:1037F00064656163746976617465640A0000000041
:10380000F0B581B045F2DC54C0F600042046FEF766
:1038100067FE45F28E56C0F600063046FEF760FEA3
:1038200045F23330C0F60000FEF75AFE45F2CF55A0
:10383000C0F600052846FEF753FE2046FEF750FE70
:103840003046FEF74DFE0920FFF744F8014645F2E9
:103850004750C0F60000FEF743FE2846FEF740FE44
:103860002046FEF73DFE3046FEF73AFE0520FEF705
:1038700063FF014645F2FC40C0F60000FEF730FE53
:103880002846FEF72DFE2046FEF72AFE3046FEF7BC
:1038900027FE0320FEF77CFF014645F21650C0F6D6
:1038A0000000FEF71DFE2846FEF71AFE45F285577A
:1038B000C0F600073846FEF713FE2046FEF710FE5E
:1038C0003046FEF70DFE45F25030C0F60000FEF720
:1038D00007FE2846FEF704FE2046FEF701FE3046AE
:1038E000FEF7FEFD45F21030C0F600000821FEF79D
:1038F000F7FD2846FEF7F4FD2046FEF7F1FD3046C1
:10390000FEF7EEFD0020FEF7B7FF014624A0FEF70C
:10391000E7FD2846FEF7E4FD2046FEF7E1FD3046D0
:10392000FEF7DEFD25A01921FEF7DAFD2846FEF799
:10393000D7FD2046FEF7D4FD3046FEF7D1FD01202D
:10394000FEF742FF014626A0FEF7CAFD2846FEF715
:10395000C7FD2046FEF7C4FD3046FEF7C1FD00203E
:10396000FEF75CFF014625A0FEF7BAFD2846FEF7EC
:10397000B7FD3846FEF7B4FD2046FEF7B1FD3046F0
:10398000FEF7AEFD24A01221FEF7AAFD2846FEF7A1
:10399000A7FD384601B0BDE8F040FEF7A1BD00BF6D
:1039A000202020486561646572206D6F6465202069
:1039B0002020203D2025730A0000000020202050F8
:1039C00061796C6F6164206C656E67746820203D5E
:1039D00020256420627974652873290A000000009C
:1039E000202020435243206D6F646520202020203A
:1039F0002020203D2025730A0000000020202049BF
:103A00005120202020202020202020202020203D68
:103A10002025730A000000004C6F52612073796EFC
:103A200063776F7264203D203078253032580A0069
:103A300040F29430C2F20000012101707047000092
:103A400040F290010023C2F2000100BF1A460F2B82
:103A500004D8531C814201F13001F7D110B50F2A6F
:103A600003D8017B09B1017C09B1022010BDD0E966
:103A700008E140F2080CCBB2C4F2010C5CF8232040
:103A80000C0C22EA114194FAA4F2B2FA82F20EFA74
:103A900002F211434CF82310C26A11064EF20011D3
:103AA000CEF2000108D453B202F01F02012404FA3E
:103AB00002F25B0941F82320C26A4EF6145402F068
:103AC0000F03CEF2000441FA82F12344120658BFDC
:103AD00001F540730021012219700274084610BDDF
:103AE00040F290024FF0000CC2F200026346BCF1BB
:103AF0000F0F05D803F1010C824202F13002F5D11B
:103B0000B0B50F2B84BF0220B0BDD0E901E595FA16
:103B1000A5F0B0FA80F0DEF800304200032000FA91
:103B200002F4234033FA02FC06D0BCF1010F18BFA7
:103B3000B0BD0EF1140001E00EF110000068284045
:103B4000401BB0FA80F0400908700020B0BD0000B2
:103B50002DE9F04389B00D4640F29001C2F2000118
:103B600091460A1D002701230AE000BF0F2F07F12D
:103B700001074FF0000338BF01233032102F0BD064
:103B800012F8046C002EF1D016680468A642EDD13C
:103B900056684468A642E9D1DA0701D0012634E12B
:103BA000002200BF8B5C2BB13032B2F5407FF9D1DF
:103BB000002700E08F18002F4FF0010600F025814C
:103BC00000223A703A73D0E90010CDE90526C7E922
:103BD0000110CDE903020846CDE9072200F0B4F94F
:103BE0000646002840F01181786803A9FDF752F8D5
:103BF00008B1012609E16878002800F00281B9685F
:103C00000226FF2900F34F804B1E3F2B00F27F80DE
:103C10004FF4702C4FF0060EDFE813F0BB004000AD
:103C2000CD008200CD00CD00CD008700CD00CD00BD
:103C3000CD00CD00CD00CD00CD008C00CD00CD005D
:103C4000CD00CD00CD00CD00CD00CD00CD00CD000C
:103C5000CD00CD00CD00CD00CD009300CD00CD0036
:103C6000CD00CD00CD00CD00CD00CD00CD00CD00EC
:103C7000CD00CD00CD00CD00CD00CD00CD00CD00DC
:103C8000CD00CD00CD00CD00CD00CD00CD00CD00CC
:103C9000CD00CD00CD00CD00CD009B004FF4700CC9
:103CA0004FF0070E75E0B1F5805F0FDAB1F5806F68
:103CB0001BDAB1F5807F53D0B1F5007F7BD140F2A4
:103CC000020C4FF0170EC0F2F00C62E0B1F5804F1D
:103CD00015DAB1F5805F4BD0B1F5005F6BD10222F0
:103CE000C0F2F00202F1010C51E045D0B1F5006FD5
:103CF00061D10122CFF2000202F1010C47E041D074
:103D0000B1F5004F57D10122CFF200023DE08029EA
:103D100051D140F2010C4FF0170ECFF2000C38E0F9
:103D20004FF0706C4FF0080E33E04FF0704C4FF0D6
:103D3000090E2EE040F2010C4FF00A0EC0F20F0CFB
:103D400027E00122C0F20F0202F5610C4FF0170EBE
:103D50001FE040F2010C4FF0170EC0F6007C18E097
:103D60000122C0F20F0202F1010C4FF0170E10E019
:103D70000122C0F20F0208E00122C0F6007202F137
:103D8000010C04E00122C0F6007202F1020C4FF0B7
:103D9000280E7B6803F138424FEAB222072A01D28B
:103DA000002608E041F60042C4F600029A1A18BF45
:103DB0000122560007224FF00008FEB90023032815
:103DC00088BF01234FEA430618D838CD4FF00008CA
:103DD00087F81080CDE900184FF001088DF80A002F
:103DE00068467B61BC61FD61C7E9082CC7E90A1E12
:103DF000ADF80880FCF796FE87F80C80B8F1000F4C
:103E000003D001203870C9F80070F0B209B0BDE8E5
:103E1000F08300002DE9F04186B00D4640F290019C
:103E2000C2F2000190460A1D002601230AE000BFED
:103E30000F2E06F101064FF0000338BF0123303288
:103E4000102E0BD012F8044C002CF1D01468076827
:103E5000BC42EDD157684468A742E9D1DA0701D0E6
:103E600001214BE0002200BF8B5C2BB13032B2F558
:103E7000407FF9D1002600E08E184FF00101EEB32B
:103E8000002333703373D0E90020CDE90333C6E952
:103E900001208DE80B001046059300F055F801460F
:103EA00060BB287840F290010023C2F2000100BFFD
:103EB0001A460F2B04D8531CB14201F13001F7D13F
:103EC0000F2A06D848B1012803D1D6E90101816142
:103ED00006E00221002088B105E0D6E901018162F7
:103EE0000021012050B170686946FCF7D3FE4FF005
:103EF000010118B931700021C8F80060084606B009
:103F0000BDE8F08140F290024FF0000CC2F20002D6
:103F10006346BCF10F0F05D803F1010C824202F198
:103F20003002F5D10F2B07D841B1012904D1D0E9D6
:103F3000011088610020704702207047D0E901100D
:103F4000886200207047000081B000F138404FEADD
:103F5000B020072811D8DFE800F004131F2B3743E7
:103F60004F5B41F24C00C4F20200016841F00101D4
:103F70000160006800F0010055E0022001B07047C8
:103F800041F24C00C4F20200016841F002010160FC
:103F9000006800F0020046E041F24C00C4F202006A
:103FA000016841F004010160006800F004003AE09B
:103FB00041F24C00C4F20200016841F008010160C6
:103FC000006800F008002EE041F24C00C4F202004C
:103FD000016841F010010160006800F0100022E06B
:103FE00041F24C00C4F20200016841F0200101607E
:103FF000006800F0200016E041F24C00C4F202001C
:10400000016841F040010160006800F040000AE0F2
:1040100041F24C00C4F20200016841F080010160ED
:10402000006800F0800000900098002001B0704708
:10403000B0B582B042F20000C4F20200016804226E
:1040400062F30201016000BF016801F00701042969
:10405000FAD147F20000C4F200000168012241F2E7
:10406000000562F34A21C4F202050160286840F4A9
:104070008070286028684005FCD5D5F8940040F091
:104080000100C5F8940000BFD5F894008007FBD567
:104090006868102161F31C606860E86848F28C0170
:1040A000CFF6FF11084000F60220E860286840F0D3
:1040B00080702860E86840F08070E86028688001BF
:1040C000FCD5E86848F2FF0140F0020020F07100E2
:1040D000E8602869CFF69F71084040F4001040F472
:1040E00040602861286840F080602860286940F4BA
:1040F0008010286128680001FCD5A86840F0030002
:10410000A86000BFA86800F00C000C28FAD1A868CD
:104110004BF2004420F0F000A860A868C0F2C4444C
:1041200020F4E060A860A86820F46050A8602046F1
:10413000FCF722FE2046FCF749FF286E40F0010004
:104140002866286E00F0010001900198002002B05E
:10415000B0BD000070B58AB040F2CC320C460021F0
:10416000C2F20002535C2BB108312029FAD100269B
:104170001EB974E05618002E71D0006843F6004155
:10418000C4F20001884270602AD043F20001C4F2F8
:104190000101884266D141F24C00C4F2020041693B
:1041A0000DF1040C41F480514161416901F48051E9
:1041B00000910099016841F001010160006800F080
:1041C000010000903C48009900903BA0051D2ECDB9
:1041D00040698CE82E00059069464FF0904025E03C
:1041E00041F24C00C4F20200C1680DF1040C41F42C
:1041F0000041C160C16801F400410091009901686B
:1042000041F004010160006800F0040000902448BF
:104210000099009022A0051D40692ECD059040F622
:1042200000008CE82E00C4F600006946FCF732FD61
:104230006D4628462821FCF710F84FF48270019053
:104240004FF4E06002904FF4007005901820069043
:104250000721706809912946FCF778FE28B10120F2
:104260000AB070BD02200AB070BD7068416841F4A8
:1042700080514160416821F010014160416821F0A6
:1042800008014160016841F0400101600168490690
:10429000FCD501203070266000200AB070BD00BF40
:1042A000001C0000020000000300000000000000ED
:1042B0000000000006000000E00000000200000016
:1042C00003000000000000000000000005000000E6
:1042D000F0B540F2CC360024C2F200069C4600BF86
:1042E0002546032C04D86C1C864206F10806F7D13B
:1042F000032D84BF0220F0BD0678002E3ED0002B97
:1043000018BF012338D00125E64664460DE000BF02
:104310001FFA8EF3002BA5B24EEA040618BF012344
:10432000002D18BF0125360426D04668B76807F46B
:10433000C057B7F5C05F18BF5FEAC3730AD029B191
:104340001FFA8EF3ACEB0303CB5C00E00023AEF16D
:10435000010E337343689E6816F4C06618BF0126C9
:104360003540012DD4D11B7B002A1EBFA5B2ACEB7A
:1043700005055355013CCBE70020F0BD0320F0BDFF
:104380002DE9F04188B040F20047C2F200073C78C6
:104390003E46002C18BF002656D10D46016844F257
:1043A0000040C4F200009046814238D10421002C24
:1043B00008BF391D086041F24C00C4F20200C16818
:1043C0000DF1080E41F40031C160C16801F4003103
:1043D00001910199016841F001010160006800F05C
:1043E000010001902F48019901902EA000F1040CCA
:1043F0009CE80E1040698EE80E10069001A94FF05F
:104400009040FCF747FC4EF22640CEF2000000211F
:1044100001704EF20410CEF2000040210160D5E997
:1044200000010C2201900020CDE902000490CDE9AA
:1044300005200790002C18BF07467868B96001A9CD
:10444000FCF7CAFD012803D1012008B0BDE8F081C6
:104450007868416821F490414160816821F02A0127
:104460008160016841F00101016000BF0168C90776
:10447000FCD0018B41F008010183018B41F0100158
:10448000018300BF50E8001F41F0200140E8001206
:10449000002AF7D101203070C8F80060002008B071
:1044A000BDE8F0810C0000000200000003000000E5
:1044B00000000000000000000700000080B5A2B16D
:1044C000D0F804E0944600BFDEF81C301B06FBD594
:1044D000A2EB0C03CB5CBCF1010CAEF82830F3D19D
:1044E000406800BFC1694906FCD5002080BD0000BE
:1044F00000F056B842F68062CFF20F7249F6806340
:104500000244C3F247039A420FD801F11100C0B22E
:10451000272884BF0020704701EB810045F2C201CB
:10452000C0F6000108445530704746F600434EF28D
:104530000112C8F6CA03C0F2F5520344934206D2F0
:1045400001F11200C0B21F2810D9002070474EF6AA
:104550000003C7F2F203184490424FF00000F5D276
:1045600001F11202D2B2202A28BF704701EB81006C
:1045700045F28A11C0F6000108445A307047000025
:1045800000F014B800F018B800F018B800F01CB82B
:10459000AFF3008045F22C20C0F600007047000009
:1045A00045F23420C0F600007047000045F2362086
:1045B000C0F60000704700000120704745F23E2021
:1045C000C0F600007047000045F26E2145F2462219
:1045D00049F20143C0F60001C0F60002C7F235738C
:1045E000984238BF0A4645F25A2144F20063C0F6A9
:1045F0000001C2F2C333984228BF114608467047F3
:1046000045F20C01C0F6000101EBC000704700004C
:1046100080B584B044F20041C4F2000103914FF42C
:10462000E13140F29032CDE90110C2F2000203A85C
:1046300001A9FFF7A5FE04B080BD000040F22542AD
:10464000C2F200021378D9B2182910D801335FFAE8
:1046500083FC137040F20C42C2F20002BCF1180F4E
:10466000505404D80D2802D00A2818BF704740F2D1
:10467000FC30C2F20000012101707047B0B5C0B03B
:104680000A4601460DF1010000F014F801280EDB86
:1046900040F29030C2F200000DF101050468284696
:1046A000FBF7E6FD024620462946FFF707FF40B02C
:1046B000B0BD000037B514460846064B6A46214691
:1046C00000F0E0F804466946002000F075FC204642
:1046D0003EBD0000B94F000802E008C8121F08C123
:1046E000002AFAD170477047002001E001C1121F73
:1046F000002AFBD1704700002DE9FF5F82B0002146
:10470000DDE90430020DDDF840B0034318D044F673
:104710001050A2F2FF3242431514119801281FD005
:10472000A5EB0B00401C5FEA000A4FF000064E4F5D
:10473000DFF83891B046504615D5CAF1000413E0B1
:10474000119801244AA3012801D16FEA0B010298B4
:10475000119AC0E90031C0E9024206B000F08EB8FB
:10476000CBF10000DFE704460021404A491842EB44
:104770000450CDE9001012E0E00707D032463B4676
:1047800040464946FBF75FFE8046894632463B4637
:1047900010461946FBF757FE06460F466410002CDC
:1047A000EAD1DDE90401DDE90023BAF1000F06DA00
:1047B000FBF749FE42464B46FBF745FE05E0FBF79B
:1047C000B7FE42464B46FBF7B3FE04460E460022B8
:1047D000284BFBF735FF03D84FF0FF30014607E0C9
:1047E0000022254B20463146FBF77EFDFBF70FFFED
:1047F000102409E0002C0ADB0A220023FBF7E0FC6E
:10480000039B30321A55641E50EA0102F2D1641C37
:10481000039AC4F111031444119A012A03D001220E
:1048200008430DD10AE0084304D000204FF0110BDB
:10483000119072E7A3EB0B056D1E0DE05B4504DDE7
:104840004FF0000205F1010504E003DA4FF0000229
:10485000A5F10105002AECD002981199C0E90231B6
:10486000C0E9004579E70000000014400000F03F77
:10487000300000000000F0430000E03F30BCBDE825
:10488000C09F00002DE9FF4F95B09B468946064624
:1048900000250FE2252877D100242746F84A012178
:1048A000059400E0044316F8013F203B01FA03F0B1
:1048B0001042F7D130782A2811D06FF02F033078CA
:1048C000A0F13002092A16D8059A44F0020402EB3E
:1048D000820203EB42021044761C0590EFE759F880
:1048E000042B0592002A03DA504244F40054059048
:1048F00044F00204761C30782E2816D116F8010FE9
:1049000044F004042A280DD06FF02F023078A0F173
:104910003003092B09D807EB870302EB4303C718C1
:10492000761CF3E759F8047B761C30786C280FD09E
:1049300006DC4C2817D068280DD06A2814D104E072
:10494000742810D07A280FD10DE044F400140AE046
:1049500044F4801401E044F440147278824202D19D
:1049600004F58014761C761C307866280BD013DC96
:10497000582877D009DC002875D04528F6D046287D
:10498000F4D047281AD19DE118E0632835D0642877
:1049900079D0652812D195E1702873D008DC67289A
:1049A000F1D069286FD06E280DD06F2806D1B5E000
:1049B00073282CD0752875D0782874D05A4617994A
:1049C00090476D1C75E1C4F30250022809D00328FA
:1049D0000DD0D9F8001004280DD00D6009F104099C
:1049E00067E1D9F80010EA17C1E90052F6E7D9F8F3
:1049F00000100D80F2E70D70F0E719F8041B8DF838
:104A0000001000208DF80100EA46012003E059F86B
:104A100004AB4FF0FF3061074FF0000102D40DE00E
:104A200008F101018846B9420FDA8045F8DB1AF82F
:104A300008100029F4D108E008F1010188468142FC
:104A4000FADB1AF808100029F6D105985B46A0EBAE
:104A5000080721463846179A00F097FA284400EBD9
:104A6000080507E04DE029E10DE01AF8010B5A4670
:104A700017999047B8F10108F7D25B4621463846AE
:104A8000179A13E142E00A220092C4F302524FF057
:104A9000000A022A08D059F804CB032A4FEAEC7125
:104AA0000AD00DE029E02AE009F1070121F0070210
:104AB000F2E802C1914609E00FFA8CFC4FEAEC7172
:104AC000042A03D14FFA8CFC4FEAEC71002907DA73
:104AD0000A460021DCF1000C61EB02012D2202E00C
:104AE000220504D52B228DF80420012203E0E207E1
:104AF00001D02022F7E7904659E00A2102E0102277
:104B00000DE010214FF0000A00910BE010224FF051
:104B1000000A44F004040827009203E008224FF042
:104B2000000A0092C4F30252022A05D059F804CBBD
:104B30000021032A08D009E009F1070121F007024A
:104B4000F2E802C1914605E01FFA8CFC042A01D16B
:104B50000CF0FF0C4FF00008220728D5702806D073
:104B6000009B83F0100353EA0A0305D00EE04022B5
:104B70008DF80420012208E05CEA010206D0302210
:104B80008DF804208DF8050002229046009B83F0EA
:104B9000080353EA0A030AD15CEA010201D1620761
:104BA00005D530228DF804204FF001087F1E5828CB
:104BB00004D034A003900EA802900DE036A0F9E7CF
:104BC00053466046009AFBF7FBFA84460398825CE2
:104BD0000298401E029002705CEA0100F0D1029837
:104BE00006A9081A00F1200A600702D524F48034CF
:104BF00000E00127574502DDA7EB0A0000E0002096
:104C000000EB0A01009005984144401A0590E0032A
:104C100006D45B462146179A059800F0B6F905447C
:104C2000002706E001A85A46C05D179990476D1C01
:104C30007F1C4745F6DBE0030CD55B462146179AFF
:104C4000059800F0A2F9054404E030205A4617996F
:104C500090476D1C0099481E00900029F5DC08E083
:104C6000029802995A460078491C02911799904778
:104C70006D1CBAF10001AAF1010AF1DC65E1000046
:104C80000928010030313233343536373839616222
:104C900063646566000000003031323334353637E6
:104CA00038394142434445460000000000F05BF9BA
:104CB0000544761C307800287FF4ECAD19B0284606
:104CC00000F04EB9620700D4062709F1070222F06E
:104CD000070CFCE80223E14603F000485FEA080CF9
:104CE00002D00FF2702C0DE05FEA045C02D50FF2E7
:104CF000682C07E05FEAC47C02D00FF2602C01E070
:104D0000AFF2700C4FF0FF3823F00043CDF850C0E5
:104D100065280CD006DC452809D046281DD0472838
:104D20003DD13DE0662818D067287ED138E00021CB
:104D3000112F01DB112000E0781CCDE9000106A94C
:104D40000EA8FFF7D9FCDDE90F010E9A03910021AF
:104D5000009207F1010A04914DE04FF000400097E6
:104D6000CDE9011006A90EA8FFF7C6FCDDE90F0288
:104D700003920E9B11990022DDF80CA0009304927F
:104D800011B9791C00EB010AB7EB0A0004D4C0F199
:104D9000FF3007F1010A0490AAEB0700019044E0FC
:104DA000012F00DA01270021112F01DD112000E081
:104DB0003846CDE9000106A90EA8FFF79DFCDDE904
:104DC0000F010E9A0391002104910092BA46210727
:104DD0000CD40399514500DA8A46BAF1010F05DD7A
:104DE000009AAAF10101515C302908D0B84202DAD8
:104DF00010F1040F06DA0121CDE9011015E0AAF146
:104E00000101E9E7002805DC049901440491AAEBBB
:104E1000000102E0411C514500DD8A460499401A18
:104E2000401C01904FF000400290200704D40198EC
:104E3000504501DBCDF8048000208DF84F0002982A
:104E40000DF14F07B0F1004F25D02B200E900298A6
:104E50004FF0020800280CDA404202902D200E90FC
:104E600007E00A210298FBF70AFA3031029007F8AE
:104E7000011DB8F10001A8F10108F2DC0298002838
:104E8000EFD1791E0E980870307800F0200040F0C5
:104E9000450007F8020D12A8C01B00F1070814987E
:104EA000007800B1012000EB0A01019801EBE071EC
:104EB00005984144401A401E0590E00306D45B4625
:104EC0002146179A059800F060F805441498007878
:104ED00018B15A46179990476D1CE00324D55B46DC
:104EE0002146179A059800F050F805441CE00498F4
:104EF000002807DBDDE90301884203DD0098405C00
:104F0000179901E0179930205A469047049805F107
:104F10000105401C04900198401E019004D12E20F0
:104F20005A46179990476D1CBAF10001AAF1010A7F
:104F3000DDDC05E017F8010B5A46179990476D1C08
:104F4000B8F10001A8F10108F4DC5B462146179A8C
:104F50000598ABE62D0000002B00000020000000AB
:104F600030BCBDE8C08F2DE9F041044600251E4647
:104F70001746880404D405E039462020B0476D1C4C
:104F8000641EF9D52846BDE8F0812DE9F0410446BC
:104F900000251E469046C80301D5302700E0202793
:104FA000880404D505E041463846B0476D1C641EB0
:104FB000F9D52846BDE8F0810A68531C0B601070D3
:104FC0007047000000000000000001020304060713
:104FD000080900000000010203040000A08601008F
:104FE000400D0300801A060000350C0040420F00FF
:104FF00080841E0000093D0000127A000024F400A5
:1050000000366E010048E801006CDC020000004838
:1050100008000000000000480400000000000048F4
:1050200000040000000400480800000000040048DC
:1050300020000000000400481000000000040048A8
:1050400000040000000000480001000000000048CB
:105050000002000000080048800000000004004832
:1050600040000000000000488000000000000048F0
:10507000400000000000004820000000000400483C
:105080000002000000040048000100000000004889
:10509000010000000000004802000000000000487D
:1050A0001000000000040048010000000008004853
:1050B000020000000008004801000000080000197C
:1050C0000100F100000000F200000000F300000009
:1050D00000F400000000F500000000F700000000F0
:1050E000F800000000F900000000FA00000000FBDA
:1050F00000000000FC00000000FD00000000FE00B9
:10510000000000FF0000000000000000000100009F
:105110000000020000000003000000000300000186
:10512000000400000100070000000008000000006B
:1051300009000000000A000000000C000000000D43
:10514000000000000E000000000D000001000D0036
:105150000002000E000002000E000003000E00001E
:1051600004000E00000700160101010416010102EF
:1051700004160101010616010103051601010307CA
:1051800016010104061601010407EE02000400EEF8
:1051900002000400EF02000400F002000400F1022B
:1051A000000400F202000400F202000400F4020015
:1051B0000400F602000400F702000400F8020004F4
:1051C00000F902000400FA02000400FB02000400DF
:1051D000FC02000400FD02000400FE02000300FFC8
:1051E00002000400000200040001020000000202AC
:1051F0000000000402000400050200040006020092
:105200000400070200040008020004000902000470
:10521000000A020004000B020004000C020003005C
:105220000D020001000D0200000000000006000059
:105230002C010000010103050710131415040300DD
:105240000103020000000607060403040E0C0E0C06
:105250000C0C0C0808090900EE070C0C0E000103E9
:1052600004040306060606060606060000000202FF
:1052700002030304050404060505060606070600E6
:1052800000005265636569766564207061796C6FB2
:105290006164202873697A653A202564292069733E
:1052A00020626967676572207468616E2074686542
:1052B00020627566666572202873697A653A2025D2
:1052C0006429210A0020202D205479706520202097
:1052D00020203D2030782530325820283078303159
:1052E00020666F72204C52313131302C20307830B2
:1052F0003220666F72204C52313132302C2030789F
:10530000303320666F72204C5231313231290A001D
:10531000202020507265616D626C65206C656E673F
:105320007468203D2025642073796D626F6C28734A
:10533000290A004C6F5261206D6F64756C6174694D
:105340006F6E20706172616D65746572733A0A00E8
:105350004C6F5261207061636B6574207061726183
:105360006D65746572733A0A004C523131323120E6
:10537000646F65736E277420757365206C61746546
:105380007374206669726D776172652076657273D9
:10539000696F6E20776869636820697320307825AB
:1053A0003032580A004C5231313130206973206F4D
:1053B0006E2076657273696F6E2030782530327892
:1053C0002C20627574206C61746573742066697238
:1053D0006D776172652076657273696F6E2069738F
:1053E000203078253032580A004E6F204952512023
:1053F000726F7574696E6520646566696E65640AAE
:10540000004368616E6E656C2061637469766974CF
:10541000792064657465637465640A004E6F206367
:1054200068616E6E656C2061637469766974792059
:1054300064657465637465640A0043414420646F65
:105440006E650A00474E5353207363616E20646F8C
:105450006E650A0057692D4669207363616E20648A
:105460006F6E650A00527820646F6E650A00496E9F
:1054700076616C6964207461726765742066726518
:105480007175656E6379206F7220706F7765722019
:105490006C6576656C0A002020204F7574707574F9
:1054A00020706F77657220203D2025692064426D51
:1054B0000A004C6F52612052782074696D657374D4
:1054C000616D700A00435243206572726F720A0068
:1054D00046534B206C656E677468206572726F72FC
:1054E0000A00496E202573202D20257320286C6921
:1054F0006E65202564293A2025730A002020204269
:10550000616E647769647468202020202020202048
:105510003D2025730A00202020436F64696E6720B8
:10552000726174652020202020203D2025730A0010
:105530002020205061636B65742074797065202091
:10554000203D2025730A002020205370726561647D
:10555000696E6720666163746F72203D2025730A4F
:105560000052782074696D656F75740A00202020E0
:105570005246206672657175656E637920203D2004
:10558000257520487A0A005741524E3A2000494E6C
:10559000464F3A20004552524F523A20004C523169
:1055A0003158585F5354415455535F4552524F52EE
:1055B000002E2E2F2E2E2F2E2E2F636F6D6D6F6EC1
:1055C0002F617070735F636F6D6D6F6E2E63001B64
:1055D0005B306D001B5B303B33316D001B5B303B40
:1055E00033326D001B5B303B33336D006170707381
:1055F0005F636F6D6D6F6E5F6C72313178785F666F
:10560000657463685F76657273696F6E0061707050
:10561000735F636F6D6D6F6E5F6C72313178785F41
:1056200073797374656D5F696E697400617070730E
:105630005F636F6D6D6F6E5F6C72313178785F7222
:105640006164696F5F696E69740057616974696E3E
:105650006720666F72205541525420646174612E38
:105660002E2E0A002563002E2E2F6D61696E2E638B
:10567000006D61696E0073656E645F737472696E4C
:10568000675F746F5F6D6F73004C52313158585FB4
:10569000524144494F5F4C4F52415F42575F323055
:1056A00030004C52313158585F524144494F5F4CA1
:1056B0004F52415F42575F343030004C52313158C5
:1056C000585F524144494F5F4C4F52415F42575FD0
:1056D000353030004C52313158585F524144494FB7
:1056E0005F4C4F52415F42575F383030004C52316F
:1056F0003158585F524144494F5F4C4F52415F53BC
:10570000463130004C52313158585F524144494F74
:105710005F4C4F52415F42575F3130004C52313144
:1057200058585F524144494F5F4C4F52415F425776
:105730005F3230004C52313158585F524144494F2A
:105740005F4C4F52415F42575F323530004C52310F
:105750003158585F524144494F5F4C4F52415F535B
:10576000463131004C52313158585F524144494F13
:105770005F4C4F52415F42575F3331004C523131E1
:1057800058585F524144494F5F4C4F52415F425716
:105790005F3431004C52313158585F524144494FC7
:1057A0005F4C4F52415F53463132004C52313158B9
:1057B000585F524144494F5F4C4F52415F42575FDF
:1057C0003632004C52313158585F524144494F5F94
:1057D0004C4F52415F42575F3135004C5231315886
:1057E000585F524144494F5F4C4F52415F42575FAF
:1057F000313235004C52313158585F524144494F93
:105800005F4C4F52415F534635004C52313158582E
:105810005F524144494F5F4C4F52415F43525F4C8E
:10582000495F345F35004C52313158585F52414422
:10583000494F5F4C4F52415F43525F345F35004CDC
:1058400052313158585F524144494F5F4C4F524199
:105850005F534636004C52313158585F52414449EB
:105860004F5F4C4F52415F43525F4C495F345F364C
:10587000004C52313158585F524144494F5F4C4FB0
:1058800052415F43525F345F36004C5231315858B9
:105890005F524144494F5F4C4F52415F534637007E
:1058A0004C52313158585F524144494F5F4C4F522E
:1058B000415F43525F345F37004C52313158585F7B
:1058C000524144494F5F4C4F52415F534638004C60
:1058D00052313158585F524144494F5F4C4F524109
:1058E0005F43525F4C495F345F38004C523131584E
:1058F000585F524144494F5F4C4F52415F43525FA2
:10590000345F38004C52313158585F524144494F4E
:105910005F4C4F52415F534639004C523131585819
:105920005F524144494F5F504B545F545950455F5B
:105930004C4F5241004C52313158585F524144490A
:105940004F5F46414C4C4241434B5F535444425994
:105950005F5243004C52313158585F524144494FD5
:105960005F46414C4C4241434B5F53544442595F64
:10597000584F5343004C52313158585F52414449BB
:105980004F5F504B545F4E4F4E45004C5231315893
:10599000585F524144494F5F504B545F54595045F2
:1059A0005F4746534B004C52313158585F52414487
:1059B000494F5F504B545F545950455F4250534BD1
:1059C000004C52313158585F524144494F5F4C4F5F
:1059D00052415F4E4F5F4352004C52313158585F35
:1059E000524144494F5F46414C4C4241434B5F4614
:1059F0005300556E6B6E6F776E000000205A0008E2
:105A00000000002028000000D8460008485A00087E
:105A10002800002000080000E84600080000000000
:105A200000093D0009050300F54400088D45000804
:105A3000894500088545000891450008F1440008A3
:085A4000814500080000000090
:040000050800018965
:00000001FF
